LX51 LINKER/LOCATER V4.66.97.0                                                          06/06/2023  14:37:28  PAGE 1


LX51 LINKER/LOCATER V4.66.97.0, INVOKED BY:
C:\KEIL_V5\C51\BIN\LX51.EXE .\Objects\main.obj, .\Objects\sys.obj, .\Objects\IIC.obj, .\Objects\AHT20.obj, .\Objects\DS3
>> 231.obj, .\Objects\lcd_uc1609.obj, .\Objects\EC11.obj, .\Objects\STC12C5A60S2_EEPROM.obj TO .\Objects\ELE_C51 PRINT (
>> .\Listings\ELE_C51.map) REMOVEUNUSED


CPU MODE:     8051 MODE
MEMORY MODEL: SMALL WITH FLOATING POINT ARITHMETIC


INPUT MODULES INCLUDED:
  .\Objects\main.obj (MAIN)
         COMMENT TYPE 0: C51 V9.60.0.0
  .\Objects\sys.obj (SYS)
         COMMENT TYPE 0: C51 V9.60.0.0
  .\Objects\IIC.obj (IIC)
         COMMENT TYPE 0: C51 V9.60.0.0
  .\Objects\AHT20.obj (AHT20)
         COMMENT TYPE 0: C51 V9.60.0.0
  .\Objects\DS3231.obj (DS3231)
         COMMENT TYPE 0: C51 V9.60.0.0
  .\Objects\lcd_uc1609.obj (LCD_UC1609)
         COMMENT TYPE 0: C51 V9.60.0.0
  .\Objects\EC11.obj (EC11)
         COMMENT TYPE 0: C51 V9.60.0.0
  .\Objects\STC12C5A60S2_EEPROM.obj (STC12C5A60S2_EEPROM)
         COMMENT TYPE 0: C51 V9.60.0.0
  C:\KEIL_V5\C51\LIB\C51FPS.LIB (?C?FPADD)
         COMMENT TYPE 1: A51 / ASM51 Assembler
  C:\KEIL_V5\C51\LIB\C51FPS.LIB (?C?FPMUL)
         COMMENT TYPE 1: A51 / ASM51 Assembler
  C:\KEIL_V5\C51\LIB\C51FPS.LIB (?C?FPDIV)
         COMMENT TYPE 1: A51 / ASM51 Assembler
  C:\KEIL_V5\C51\LIB\C51FPS.LIB (?C?FCAST)
         COMMENT TYPE 1: A51 / ASM51 Assembler
  C:\KEIL_V5\C51\LIB\C51FPS.LIB (?C?CASTF)
         COMMENT TYPE 1: A51 / ASM51 Assembler
  C:\KEIL_V5\C51\LIB\C51FPS.LIB (?C?FPGETOPN)
         COMMENT TYPE 1: A51 / ASM51 Assembler
  C:\KEIL_V5\C51\LIB\C51S.LIB (?C_STARTUP)
         COMMENT TYPE 1: A51 / ASM51 Assembler
  C:\KEIL_V5\C51\LIB\C51S.LIB (?C?CLDPTR)
         COMMENT TYPE 1: A51 / ASM51 Assembler
  C:\KEIL_V5\C51\LIB\C51S.LIB (?C?CLDOPTR)
         COMMENT TYPE 1: A51 / ASM51 Assembler
  C:\KEIL_V5\C51\LIB\C51S.LIB (?C?CSTPTR)
         COMMENT TYPE 1: A51 / ASM51 Assembler
  C:\KEIL_V5\C51\LIB\C51S.LIB (?C?UIDIV)
         COMMENT TYPE 1: A51 / ASM51 Assembler
  C:\KEIL_V5\C51\LIB\C51S.LIB (?C?SIDIV)
         COMMENT TYPE 1: A51 / ASM51 Assembler
  C:\KEIL_V5\C51\LIB\C51S.LIB (?C?LNEG)
         COMMENT TYPE 1: A51 / ASM51 Assembler
  C:\KEIL_V5\C51\LIB\C51S.LIB (?C?ULSHR)
         COMMENT TYPE 1: A51 / ASM51 Assembler
  C:\KEIL_V5\C51\LIB\C51S.LIB (?C?LSHL)
         COMMENT TYPE 1: A51 / ASM51 Assembler
  C:\KEIL_V5\C51\LIB\C51S.LIB (?C?LSTPTR)
         COMMENT TYPE 1: A51 / ASM51 Assembler
  C:\KEIL_V5\C51\LIB\C51S.LIB (?C?LSTOPTR)
         COMMENT TYPE 1: A51 / ASM51 Assembler
  C:\KEIL_V5\C51\LIB\C51S.LIB (?C?CCASE)
         COMMENT TYPE 1: A51 / ASM51 Assembler
  C:\KEIL_V5\C51\LIB\C51S.LIB (?C?MEMSET)
         COMMENT TYPE 1: A51 / ASM51 Assembler
  C:\KEIL_V5\C51\LIB\C51S.LIB (?C_INIT)
LX51 LINKER/LOCATER V4.66.97.0                                                        06/06/2023  14:37:28  PAGE 2


         COMMENT TYPE 1: A51 / ASM51 Assembler
  C:\KEIL_V5\C51\LIB\C51S.LIB (?C?LSTIDATA)
         COMMENT TYPE 1: A51 / ASM51 Assembler
  C:\KEIL_V5\C51\LIB\C51S.LIB (?C?LSTXDATA)
         COMMENT TYPE 1: A51 / ASM51 Assembler
  C:\KEIL_V5\C51\LIB\C51S.LIB (?C?LSTPDATA)
         COMMENT TYPE 1: A51 / ASM51 Assembler


ACTIVE MEMORY CLASSES OF MODULE:  .\Objects\ELE_C51 (MAIN)

BASE        START       END         USED      MEMORY CLASS
==========================================================
C:000000H   C:000000H   C:00FFFFH   0050F5H   CODE
I:000000H   I:000000H   I:00007FH   00006FH   DATA
C:000000H   C:000000H   C:00FFFFH   001367H   CONST
X:000000H   X:000000H   X:00FFFFH   000010H   XDATA
I:000020H.0 I:000020H.0 I:00002FH.7 000000H.5 BIT
I:000000H   I:000000H   I:0000FFH   000001H   IDATA


MEMORY MAP OF MODULE:  .\Objects\ELE_C51 (MAIN)


START     STOP      LENGTH    ALIGN  RELOC    MEMORY CLASS   SEGMENT NAME
=========================================================================

* * * * * * * * * * *   D A T A   M E M O R Y   * * * * * * * * * * * * *
000000H   000007H   000008H   ---    AT..     DATA           "REG BANK 0"
000008H   00001AH   000013H   BYTE   UNIT     DATA           ?DT?SYS
00001BH   00001CH   000002H   BYTE   UNIT     DATA           ?DT?EC11
00001DH.0 00001FH.7 000003H.0 ---    ---      **GAP**
000020H.0 000020H.1 000000H.2 BIT    UNIT     BIT            ?BI?EC11
000020H.2 000020H.3 000000H.2 BIT    UNIT     BIT            _BIT_GROUP_
000020H.4 000020H.4 000000H.1 BIT    UNIT     BIT            ?BI?IIC
000020H.5 000020H   000000H.3 ---    ---      **GAP**
000021H   000047H   000027H   BYTE   UNIT     DATA           _DATA_GROUP_
000048H   00006AH   000023H   BYTE   UNIT     DATA           ?DT?MAIN
00006BH   000072H   000008H   BYTE   UNIT     DATA           ?DT?AHT20
000073H   000073H   000001H   BYTE   UNIT     IDATA          ?STACK

* * * * * * * * * * *   C O D E   M E M O R Y   * * * * * * * * * * * * *
000000H   000002H   000003H   ---    OFFS..   CODE           ?CO??C_STARTUP?0
000003H   00000AH   000008H   BYTE   UNIT     CODE           ?PR?DELAY10US?SYS
00000BH   00000DH   000003H   BYTE   OFFS..   CODE           ?MAIN?0000B
00000EH   000022H   000015H   BYTE   UNIT     CODE           ?PR?_EEPROM_SECTORERASE?STC12C5A60S2_EEPROM
000023H   000025H   000003H   BYTE   OFFS..   CODE           ?SYS?00023
000026H   002C09H   002BE4H   BYTE   UNIT     CODE           ?PR?MAIN?MAIN
002C0AH   00379CH   000B93H   BYTE   UNIT     CODE           ?PR?OSTIME?MAIN
00379DH   003CC4H   000528H   BYTE   UNIT     CODE           ?C?LIB_CODE
003CC5H   00405DH   000399H   BYTE   UNIT     CODE           ?PR?MAIN
00405EH   004218H   0001BBH   BYTE   UNIT     CODE           ?PR?NZ_CHEACK?MAIN
004219H   0043C5H   0001ADH   BYTE   UNIT     CODE           ?PR?MAP_INIT?MAIN
0043C6H   004571H   0001ACH   BYTE   UNIT     CODE           ?PR?EEPROM_INIT?MAIN
004572H   004697H   000126H   BYTE   UNIT     CODE           ?PR?EEPROM_WRITE?MAIN
004698H   0047ADH   000116H   BYTE   UNIT     CODE           ?PR?_AHT20_READ_CTDATA_CRC?AHT20
0047AEH   004880H   0000D3H   BYTE   UNIT     CODE           ?PR?ENCODER?EC11
004881H   00490CH   00008CH   BYTE   UNIT     CODE           ?C_C51STARTUP
00490DH   004989H   00007DH   BYTE   UNIT     CODE           ?PR?_DISPLINE?LCD_UC1609
00498AH   0049F6H   00006DH   BYTE   UNIT     CODE           ?C_INITSEG
0049F7H   004A61H   00006BH   BYTE   UNIT     CODE           ?PR?_DISP_8X16?LCD_UC1609
004A62H   004ACCH   00006BH   BYTE   UNIT     CODE           ?PR?_DISP_16X16?LCD_UC1609
004ACDH   004B37H   00006BH   BYTE   UNIT     CODE           ?PR?_DISP_16X32?LCD_UC1609
004B38H   004B9AH   000063H   BYTE   UNIT     CODE           ?PR?_JH_RESET_REG?AHT20
004B9BH   004BF4H   00005AH   BYTE   UNIT     CODE           ?PR?AHT20
LX51 LINKER/LOCATER V4.66.97.0                                                        06/06/2023  14:37:28  PAGE 3


004BF5H   004C43H   00004FH   BYTE   UNIT     CODE           ?PR?_STRING_8X16?LCD_UC1609
004C44H   004C91H   00004EH   BYTE   UNIT     CODE           ?PR?LCD_UC1609_INIT?LCD_UC1609
004C92H   004CDCH   00004BH   BYTE   UNIT     CODE           ?PR?_WRITE_IIC_BYTE?IIC
004CDDH   004D27H   00004BH   BYTE   UNIT     CODE           ?PR?_WRITE_IIC_BYTE_TIME?IIC
004D28H   004D72H   00004BH   BYTE   UNIT     CODE           ?PR?_CALC_CRC8?AHT20
004D73H   004DBCH   00004AH   BYTE   UNIT     CODE           ?PR?UARTREAD?SYS
004DBDH   004DF2H   000036H   BYTE   UNIT     CODE           ?PR?READ_IIC_BYTE?IIC
004DF3H   004E28H   000036H   BYTE   UNIT     CODE           ?PR?READ_IIC_BYTE_TIME?IIC
004E29H   004E5AH   000032H   BYTE   UNIT     CODE           ?PR?_LCD_ADDRESS?LCD_UC1609
004E5BH   004E8AH   000030H   BYTE   UNIT     CODE           ?PR?_WRITEDATA?LCD_UC1609
004E8BH   004EB4H   00002AH   BYTE   UNIT     CODE           ?PR?_EEPROM_READ_N?STC12C5A60S2_EEPROM
004EB5H   004EDEH   00002AH   BYTE   UNIT     CODE           ?PR?_EEPROM_WRITE_N?STC12C5A60S2_EEPROM
004EDFH   004F01H   000023H   BYTE   UNIT     CODE           ?PR?_SPEAK?MAIN
004F02H   004F20H   00001FH   BYTE   UNIT     CODE           ?PR?PWM_INIT?MAIN
004F21H   004F3CH   00001CH   BYTE   UNIT     CODE           ?PR?_WRITE_DS3231_BYTE?DS3231
004F3DH   004F56H   00001AH   BYTE   UNIT     CODE           ?PR?_DELAY_MS?SYS
004F57H   004F70H   00001AH   BYTE   UNIT     CODE           ?PR?AHT20_SENDAC?AHT20
004F71H   004F87H   000017H   BYTE   UNIT     CODE           ?PR?_PWM_SET?MAIN
004F88H   004F9EH   000017H   BYTE   UNIT     CODE           ?PR?UART_INIT?SYS
004F9FH   004FB4H   000016H   BYTE   UNIT     CODE           ?PR?_UART_PUTSTRING?SYS
004FB5H   004FCAH   000016H   BYTE   UNIT     CODE           ?PR?READ_DS3231_CURRENT?DS3231
004FCBH   004FDFH   000015H   BYTE   UNIT     CODE           ?PR?STC12C5A60S2_EEPROM
004FE0H   004FF3H   000014H   BYTE   UNIT     CODE           ?PR?_BCD2HEX?DS3231
004FF4H   005006H   000013H   BYTE   UNIT     CODE           ?PR?AHT20_READ_STATUS?AHT20
005007H   005019H   000013H   BYTE   UNIT     CODE           ?PR?_HEX2BCD?DS3231
00501AH   00502BH   000012H   BYTE   UNIT     CODE           ?PR?_READ_DS3231_RANDOM?DS3231
00502CH   00503CH   000011H   BYTE   UNIT     CODE           ?PR?SEND_ACK?IIC
00503DH   00504DH   000011H   BYTE   UNIT     CODE           ?PR?SEND_NOT_ACK?IIC
00504EH   00505EH   000011H   BYTE   UNIT     CODE           ?PR?SEND_NOT_ACK_TIME?IIC
00505FH   00506DH   00000FH   BYTE   UNIT     CODE           ?PR?I2C_START?IIC
00506EH   00507CH   00000FH   BYTE   UNIT     CODE           ?PR?I2C_START_TIME?IIC
00507DH   00508BH   00000FH   BYTE   UNIT     CODE           ?PR?AHT20_START_INIT?AHT20
00508CH   005099H   00000EH   BYTE   UNIT     CODE           ?PR?DISABLEEEPROM?STC12C5A60S2_EEPROM
00509AH   0050A6H   00000DH   BYTE   UNIT     CODE           ?PR?DELAY100MS?SYS
0050A7H   0050B1H   00000BH   BYTE   UNIT     CODE           ?PR?DELAY10MS?SYS
0050B2H   0050BBH   00000AH   BYTE   UNIT     CODE           ?PR?INIT?MAIN
0050BCH   0050C5H   00000AH   BYTE   UNIT     CODE           ?PR?DELAY1MS?SYS
0050C6H   0050CFH   00000AH   BYTE   UNIT     CODE           ?PR?I2C_STOP?IIC
0050D0H   0050D9H   00000AH   BYTE   UNIT     CODE           ?PR?I2C_STOP_TIME?IIC
0050DAH   0050E2H   000009H   BYTE   UNIT     CODE           ?PR?DELAY100US?SYS
0050E3H   0050EAH   000008H   BYTE   UNIT     CODE           ?PR?_UARTSEND?SYS
0050EBH   0050F2H   000008H   BYTE   UNIT     CODE           ?PR?IIC
0050F3H   0050F4H   000002H   BYTE   UNIT     CODE           ?PR?DELAY1US?SYS
0050F5H   005E6BH   000D77H   BYTE   UNIT     CONST          ?CO?MAIN
005E6CH   00645BH   0005F0H   BYTE   UNIT     CONST          ?CO?LCD_UC1609

* * * * * * * * * * *  X D A T A   M E M O R Y  * * * * * * * * * * * * *
000000H   00000CH   00000DH   BYTE   UNIT     XDATA          ?XD?MAIN
00000DH   00000FH   000003H   BYTE   UNIT     XDATA          _XDATA_GROUP_

* * * * * * * * *   R E M O V E D     S E G M E N T S   * * * * * * * *
   *DEL*:           000011H   BYTE   UNIT     CODE           ?PR?SEND_ACK_TIME?IIC
   *DEL*:           000036H   BYTE   UNIT     CODE           ?PR?RECEIVE_ACK?IIC
   *DEL*:           000002H   BYTE   UNIT     DATA           ?DT?RECEIVE_ACK?IIC
   *DEL*:           000036H   BYTE   UNIT     CODE           ?PR?RECEIVE_ACK_TIME?IIC
   *DEL*:           000002H   BYTE   UNIT     DATA           ?DT?RECEIVE_ACK_TIME?IIC
   *DEL*:           000011H   BYTE   UNIT     CODE           ?PR?AHT20_READ_CAL_ENABLE?AHT20
   *DEL*:           0000F9H   BYTE   UNIT     CODE           ?PR?_AHT20_READ_CTDATA?AHT20
   *DEL*:           000010H   BYTE   UNIT     DATA           ?DT?_AHT20_READ_CTDATA?AHT20
   *DEL*:           000039H   BYTE   UNIT     CODE           ?PR?AHT20_INIT?AHT20
   *DEL*:           00004CH   BYTE   UNIT     CODE           ?PR?_MODIFYTIME?DS3231
   *DEL*:           000006H   BYTE   UNIT     DATA           ?DT?_MODIFYTIME?DS3231



LX51 LINKER/LOCATER V4.66.97.0                                                        06/06/2023  14:37:28  PAGE 4


OVERLAY MAP OF MODULE:   .\Objects\ELE_C51 (MAIN)


FUNCTION/MODULE                               BIT_GROUP   DATA_GROUP   XDATA_GROUP
--> CALLED FUNCTION/MODULE                   START  STOP  START  STOP  START  STOP
==================================================================================
OSTIME/MAIN                                  ----- -----  ----- -----  ----- -----
  +--> ENCODER/EC11
  +--> MAIN
  +--> _PWM_SET/MAIN

ENCODER/EC11                                 20H.2 20H.2  ----- -----  ----- -----

MAIN                                         ----- -----  ----- -----  ----- -----

_PWM_SET/MAIN                                ----- -----  ----- -----  ----- -----

*** NEW ROOT *******************************

UARTREAD/SYS                                 ----- -----  0021H 0021H  ----- -----

*** NEW ROOT *******************************

?C_C51STARTUP                                ----- -----  ----- -----  ----- -----
  +--> MAIN/MAIN
  +--> ?C_INITSEG

MAIN/MAIN                                    ----- -----  0022H 0032H  000DH 000FH
  +--> EEPROM_INIT/MAIN
  +--> LCD_UC1609_INIT/LCD_UC1609
  +--> UART_INIT/SYS
  +--> PWM_INIT/MAIN
  +--> _PWM_SET/MAIN
  +--> DELAY10MS/SYS
  +--> MAIN
  +--> _DISP_16X16/LCD_UC1609
  +--> AHT20_READ_STATUS/AHT20
  +--> AHT20_START_INIT/AHT20
  +--> INIT/MAIN
  +--> MAP_INIT/MAIN
  +--> _UART_PUTSTRING/SYS
  +--> _UARTSEND/SYS
  +--> _WRITE_DS3231_BYTE/DS3231
  +--> _STRING_8X16/LCD_UC1609
  +--> EEPROM_WRITE/MAIN
  +--> _DELAY_MS/SYS
  +--> _DISP_8X16/LCD_UC1609
  +--> _READ_DS3231_RANDOM/DS3231
  +--> _BCD2HEX/DS3231
  +--> _DISP_16X32/LCD_UC1609
  +--> NZ_CHEACK/MAIN
  +--> _SPEAK/MAIN
  +--> DELAY100MS/SYS
  +--> _HEX2BCD/DS3231
  +--> DELAY1MS/SYS
  +--> _AHT20_READ_CTDATA_CRC/AHT20
  +--> _DISPLINE/LCD_UC1609

EEPROM_INIT/MAIN                             ----- -----  ----- -----  ----- -----
  +--> _EEPROM_READ_N/STC12C5A60S2_EEPROM
  +--> MAIN

_EEPROM_READ_N/STC12C5A60S2_EEPROM           ----- -----  0033H 0038H  ----- -----
  +--> STC12C5A60S2_EEPROM
  +--> DISABLEEEPROM/STC12C5A60S2_EEPROM
LX51 LINKER/LOCATER V4.66.97.0                                                        06/06/2023  14:37:28  PAGE 5



STC12C5A60S2_EEPROM                          ----- -----  ----- -----  ----- -----

DISABLEEEPROM/STC12C5A60S2_EEPROM            ----- -----  ----- -----  ----- -----

LCD_UC1609_INIT/LCD_UC1609                   ----- -----  ----- -----  ----- -----
  +--> DELAY1MS/SYS
  +--> DELAY10MS/SYS
  +--> _WRITEDATA/LCD_UC1609

DELAY1MS/SYS                                 ----- -----  ----- -----  ----- -----

DELAY10MS/SYS                                ----- -----  ----- -----  ----- -----

_WRITEDATA/LCD_UC1609                        20H.3 20H.3  ----- -----  ----- -----

UART_INIT/SYS                                ----- -----  ----- -----  ----- -----

PWM_INIT/MAIN                                ----- -----  ----- -----  ----- -----

_DISP_16X16/LCD_UC1609                       ----- -----  0033H 003CH  ----- -----
  +--> _LCD_ADDRESS/LCD_UC1609
  +--> _WRITEDATA/LCD_UC1609

_LCD_ADDRESS/LCD_UC1609                      ----- -----  ----- -----  ----- -----
  +--> _WRITEDATA/LCD_UC1609

AHT20_READ_STATUS/AHT20                      ----- -----  0043H 0043H  ----- -----
  +--> I2C_START/IIC
  +--> _WRITE_IIC_BYTE/IIC
  +--> READ_IIC_BYTE/IIC
  +--> I2C_STOP/IIC

I2C_START/IIC                                ----- -----  ----- -----  ----- -----
  +--> DELAY10US/SYS

DELAY10US/SYS                                ----- -----  ----- -----  ----- -----

_WRITE_IIC_BYTE/IIC                          ----- -----  0044H 0045H  ----- -----
  +--> IIC
  +--> DELAY1US/SYS
  +--> DELAY10US/SYS

IIC                                          ----- -----  ----- -----  ----- -----

DELAY1US/SYS                                 ----- -----  ----- -----  ----- -----

READ_IIC_BYTE/IIC                            ----- -----  0044H 0045H  ----- -----
  +--> IIC
  +--> DELAY1US/SYS
  +--> DELAY10US/SYS

I2C_STOP/IIC                                 ----- -----  ----- -----  ----- -----
  +--> DELAY10US/SYS

AHT20_START_INIT/AHT20                       ----- -----  ----- -----  ----- -----
  +--> _JH_RESET_REG/AHT20

_JH_RESET_REG/AHT20                          ----- -----  0033H 0036H  ----- -----
  +--> I2C_START/IIC
  +--> _WRITE_IIC_BYTE/IIC
  +--> READ_IIC_BYTE/IIC
  +--> SEND_ACK/IIC
  +--> I2C_STOP/IIC
  +--> DELAY10MS/SYS
LX51 LINKER/LOCATER V4.66.97.0                                                        06/06/2023  14:37:28  PAGE 6



SEND_ACK/IIC                                 ----- -----  ----- -----  ----- -----
  +--> DELAY10US/SYS

INIT/MAIN                                    ----- -----  ----- -----  ----- -----

MAP_INIT/MAIN                                ----- -----  ----- -----  ----- -----
  +--> MAIN
  +--> _DISP_8X16/LCD_UC1609
  +--> _DISP_16X16/LCD_UC1609
  +--> _DISP_16X32/LCD_UC1609

_DISP_8X16/LCD_UC1609                        ----- -----  003DH 0046H  ----- -----
  +--> _LCD_ADDRESS/LCD_UC1609
  +--> _WRITEDATA/LCD_UC1609

_DISP_16X32/LCD_UC1609                       ----- -----  0033H 003CH  ----- -----
  +--> _LCD_ADDRESS/LCD_UC1609
  +--> _WRITEDATA/LCD_UC1609

_UART_PUTSTRING/SYS                          ----- -----  ----- -----  ----- -----

_UARTSEND/SYS                                ----- -----  ----- -----  ----- -----

_WRITE_DS3231_BYTE/DS3231                    ----- -----  0033H 0034H  ----- -----
  +--> I2C_START_TIME/IIC
  +--> _WRITE_IIC_BYTE_TIME/IIC
  +--> I2C_STOP_TIME/IIC
  +--> DELAY10US/SYS

I2C_START_TIME/IIC                           ----- -----  ----- -----  ----- -----
  +--> DELAY10US/SYS

_WRITE_IIC_BYTE_TIME/IIC                     ----- -----  0035H 0036H  ----- -----
  +--> IIC
  +--> DELAY1US/SYS
  +--> DELAY10US/SYS

I2C_STOP_TIME/IIC                            ----- -----  ----- -----  ----- -----
  +--> DELAY10US/SYS

_STRING_8X16/LCD_UC1609                      ----- -----  0033H 003CH  ----- -----
  +--> _DISP_8X16/LCD_UC1609

EEPROM_WRITE/MAIN                            ----- -----  ----- -----  ----- -----
  +--> _EEPROM_SECTORERASE/STC12C5A60S2_EEPROM
  +--> _EEPROM_WRITE_N/STC12C5A60S2_EEPROM

_EEPROM_SECTORERASE/STC12C5A60S2_EEPROM      ----- -----  ----- -----  ----- -----
  +--> STC12C5A60S2_EEPROM
  +--> DISABLEEEPROM/STC12C5A60S2_EEPROM

_EEPROM_WRITE_N/STC12C5A60S2_EEPROM          ----- -----  0033H 0038H  ----- -----
  +--> STC12C5A60S2_EEPROM
  +--> DISABLEEEPROM/STC12C5A60S2_EEPROM

_DELAY_MS/SYS                                ----- -----  ----- -----  ----- -----

_READ_DS3231_RANDOM/DS3231                   ----- -----  0033H 0033H  ----- -----
  +--> I2C_START_TIME/IIC
  +--> _WRITE_IIC_BYTE_TIME/IIC
  +--> READ_DS3231_CURRENT/DS3231

READ_DS3231_CURRENT/DS3231                   ----- -----  0034H 0034H  ----- -----
  +--> I2C_START_TIME/IIC
LX51 LINKER/LOCATER V4.66.97.0                                                        06/06/2023  14:37:28  PAGE 7


  +--> _WRITE_IIC_BYTE_TIME/IIC
  +--> READ_IIC_BYTE_TIME/IIC
  +--> SEND_NOT_ACK_TIME/IIC
  +--> I2C_STOP_TIME/IIC

READ_IIC_BYTE_TIME/IIC                       ----- -----  0035H 0036H  ----- -----
  +--> IIC
  +--> DELAY1US/SYS
  +--> DELAY10US/SYS

SEND_NOT_ACK_TIME/IIC                        ----- -----  ----- -----  ----- -----
  +--> DELAY10US/SYS

_BCD2HEX/DS3231                              ----- -----  ----- -----  ----- -----

NZ_CHEACK/MAIN                               ----- -----  ----- -----  ----- -----
  +--> MAIN
  +--> EEPROM_WRITE/MAIN

_SPEAK/MAIN                                  ----- -----  0033H 0033H  ----- -----
  +--> DELAY100US/SYS
  +--> MAIN

DELAY100US/SYS                               ----- -----  ----- -----  ----- -----

DELAY100MS/SYS                               ----- -----  ----- -----  ----- -----

_HEX2BCD/DS3231                              ----- -----  ----- -----  ----- -----

_AHT20_READ_CTDATA_CRC/AHT20                 ----- -----  0033H 0042H  ----- -----
  +--> AHT20_SENDAC/AHT20
  +--> DELAY100MS/SYS
  +--> AHT20_READ_STATUS/AHT20
  +--> DELAY1MS/SYS
  +--> I2C_START/IIC
  +--> _WRITE_IIC_BYTE/IIC
  +--> READ_IIC_BYTE/IIC
  +--> SEND_ACK/IIC
  +--> SEND_NOT_ACK/IIC
  +--> I2C_STOP/IIC
  +--> _CALC_CRC8/AHT20
  +--> AHT20

AHT20_SENDAC/AHT20                           ----- -----  ----- -----  ----- -----
  +--> I2C_START/IIC
  +--> _WRITE_IIC_BYTE/IIC
  +--> I2C_STOP/IIC

SEND_NOT_ACK/IIC                             ----- -----  ----- -----  ----- -----
  +--> DELAY10US/SYS

_CALC_CRC8/AHT20                             ----- -----  0043H 0047H  ----- -----

AHT20                                        ----- -----  ----- -----  ----- -----

_DISPLINE/LCD_UC1609                         ----- -----  0033H 003BH  ----- -----
  +--> _WRITEDATA/LCD_UC1609

?C_INITSEG                                   ----- -----  ----- -----  ----- -----



PUBLIC SYMBOLS OF MODULE:  .\Objects\ELE_C51 (MAIN)


LX51 LINKER/LOCATER V4.66.97.0                                                        06/06/2023  14:37:28  PAGE 8


      VALUE       CLASS    TYPE      PUBLIC SYMBOL NAME
      =================================================
      00000033H   DATA     BYTE      ?_Disp_16x16?BYTE
      00000033H   DATA     BYTE      ?_Disp_16x32?BYTE
      0000003DH   DATA     BYTE      ?_Disp_8x16?BYTE
      00000033H   DATA     BYTE      ?_EEPROM_read_n?BYTE
      00000033H   DATA     BYTE      ?_EEPROM_write_n?BYTE
*DEL*:00000000H   DATA     BYTE      ?_ModifyTime?BYTE
      00000033H   DATA     BYTE      ?_String_8x16?BYTE
      00000020H.3 BIT      BIT       ?_WriteData?BIT
      01003A79H   CODE     ---       ?C?CASTF
      01003C4FH   CODE     ---       ?C?CCASE
      01003B13H   CODE     ---       ?C?CLDOPTR
      01003AFAH   CODE     ---       ?C?CLDPTR
      00000000H   NUMBER   ---       ?C?CODESEG
      01003B40H   CODE     ---       ?C?CSTPTR
      01003A45H   CODE     ---       ?C?FCASTC
      01003A40H   CODE     ---       ?C?FCASTI
      01003A3BH   CODE     ---       ?C?FCASTL
      010037A4H   CODE     ---       ?C?FPADD
      0100399EH   CODE     ---       ?C?FPDIV
      01003AB0H   CODE     ---       ?C?FPGETOPN2
      01003895H   CODE     ---       ?C?FPMUL
      01003AE5H   CODE     ---       ?C?FPNANRESULT
      01003AEFH   CODE     ---       ?C?FPOVERFLOW
      01003AC7H   CODE     ---       ?C?FPRESULT
      01003ADBH   CODE     ---       ?C?FPRESULT2
      010037A0H   CODE     ---       ?C?FPSUB
      01003AECH   CODE     ---       ?C?FPUNDERFLOW
      01003BDDH   CODE     ---       ?C?LNEG
      01003BFEH   CODE     ---       ?C?LSHL
      01003CA1H   CODE     ---       ?C?LSTIDATA
      01003C2BH   CODE     ---       ?C?LSTOPTR
      01003CB9H   CODE     ---       ?C?LSTPDATA
      01003C11H   CODE     ---       ?C?LSTPTR
      01003CADH   CODE     ---       ?C?LSTXDATA
      01003C75H   CODE     ---       ?C?MEMSET
      01003BA7H   CODE     ---       ?C?SIDIV
      01003B52H   CODE     ---       ?C?UIDIV
      01003BEBH   CODE     ---       ?C?ULSHR
      00000000H   NUMBER   ---       ?C?XDATASEG
      010048C8H   CODE     ---       ?C_START
      01000000H   CODE     ---       ?C_STARTUP
*DEL*:00000000H   CODE     ---       _AHT20_Read_CTdata
      01004698H   CODE     ---       _AHT20_Read_CTdata_crc
      01004FE0H   CODE     ---       _BCD2HEX
      01004D28H   CODE     ---       _Calc_CRC8
      01004F3DH   CODE     ---       _delay_ms
      01004A62H   CODE     ---       _Disp_16x16
      01004ACDH   CODE     ---       _Disp_16x32
      010049F7H   CODE     ---       _Disp_8x16
      0100490DH   CODE     ---       _Displine
      01004E8BH   CODE     ---       _EEPROM_read_n
      0100000EH   CODE     ---       _EEPROM_SectorErase
      01004EB5H   CODE     ---       _EEPROM_write_n
      01005007H   CODE     ---       _HEX2BCD
      01004B38H   CODE     ---       _JH_Reset_REG
      01004E29H   CODE     ---       _lcd_address
*DEL*:00000000H   CODE     ---       _ModifyTime
      01004F7FH   CODE     ---       _pwm_set
      0100501AH   CODE     ---       _read_DS3231_random
      01004EDFH   CODE     ---       _speak
      01004BF5H   CODE     ---       _String_8x16
      01004F9FH   CODE     ---       _UART_PutString
      010050E3H   CODE     ---       _UARTSend
LX51 LINKER/LOCATER V4.66.97.0                                                        06/06/2023  14:37:28  PAGE 9


      01004F21H   CODE     ---       _write_DS3231_byte
      01004C92H   CODE     ---       _Write_IIC_Byte
      01004CDDH   CODE     ---       _Write_IIC_Byte_time
      01004E5BH   CODE     ---       _WriteData
*SFR* 00000080H.0 DATA     BIT       A25
*SFR* 00000080H.1 DATA     BIT       A26
*SFR* 00000080H.2 DATA     BIT       A27
      02000003H   XDATA    BYTE      A_ON
*SFR* 000000D0H.6 DATA     BIT       AC
*SFR* 000000E0H   DATA     BYTE      ACC
      00000020H.4 BIT      BIT       ack
*SFR* 000000BCH   DATA     BYTE      ADC_CONTR
*SFR* 000000BDH   DATA     BYTE      ADC_RES
*SFR* 000000BEH   DATA     BYTE      ADC_RESL
*DEL*:00000000H   CODE     ---       AHT20_Init
*DEL*:00000000H   CODE     ---       AHT20_Read_Cal_Enable
      01004FF4H   CODE     ---       AHT20_Read_Status
      01004F57H   CODE     ---       AHT20_SendAC
      0100507DH   CODE     ---       AHT20_Start_Init
*SFR* 0000008EH   DATA     BYTE      AUXR
*SFR* 000000A2H   DATA     BYTE      AUXR1
*SFR* 000000F0H   DATA     BYTE      B
      010052A8H   CONST    ---       black
*SFR* 000000A0H.0 DATA     BIT       BLUE
*SFR* 0000009CH   DATA     BYTE      BRT
*SFR* 000000A1H   DATA     BYTE      BUS_SPEED
*SFR* 000000A0H.4 DATA     BIT       BUSY
*SFR* 000000FAH   DATA     BYTE      CCAP0H
*SFR* 000000EAH   DATA     BYTE      CCAP0L
*SFR* 000000FBH   DATA     BYTE      CCAP1H
*SFR* 000000EBH   DATA     BYTE      CCAP1L
*SFR* 000000DAH   DATA     BYTE      CCAPM0
*SFR* 000000DBH   DATA     BYTE      CCAPM1
*SFR* 000000D8H.0 DATA     BIT       CCF0
*SFR* 000000D8H.1 DATA     BIT       CCF1
*SFR* 000000D8H   DATA     BYTE      CCON
*SFR* 00000090H.4 DATA     BIT       CD
*SFR* 000000D8H.7 DATA     BIT       CF
*SFR* 000000F9H   DATA     BYTE      CH
      0000006AH   DATA     BYTE      choice
*SFR* 000000E9H   DATA     BYTE      CL
      010052A4H   CONST    ---       clear
*SFR* 00000097H   DATA     BYTE      CLK_DIV
*SFR* 000000D9H   DATA     BYTE      CMOD
*SFR* 000000D8H.6 DATA     BIT       CR
      00000072H   DATA     BYTE      CRC_WrongFlag
*SFR* 00000090H.3 DATA     BIT       CS
      0000006BH   DATA     ---       CTDATA
*SFR* 000000D0H.7 DATA     BIT       CY
      0100509AH   CODE     ---       Delay100ms
      010050DAH   CODE     ---       Delay100us
      010050A7H   CODE     ---       Delay10ms
      01000003H   CODE     ---       Delay10us
      010050BCH   CODE     ---       Delay1ms
      010050F3H   CODE     ---       Delay1us
      0100508CH   CODE     ---       DisableEEPROM
*SFR* 00000083H   DATA     BYTE      DPH
*SFR* 00000082H   DATA     BYTE      DPL
*SFR* 000000A8H.7 DATA     BIT       EA
*SFR* 000000A8H.5 DATA     BIT       EADC
      010043C6H   CODE     ---       EEPROM_init
      01004572H   CODE     ---       EEPROM_write
*SFR* 000000A8H.6 DATA     BIT       ELVD
      0000004CH   DATA     BYTE      enc
      010047AEH   CODE     ---       Encoder
LX51 LINKER/LOCATER V4.66.97.0                                                        06/06/2023  14:37:28  PAGE 10


*SFR* 000000A8H.4 DATA     BIT       ES
*SFR* 000000A8H.1 DATA     BIT       ET0
*SFR* 000000A8H.3 DATA     BIT       ET1
*SFR* 000000A8H.0 DATA     BIT       EX0
*SFR* 000000A8H.2 DATA     BIT       EX1
*SFR* 000000D0H.5 DATA     BIT       F0
*SFR* 000000D0H.1 DATA     BIT       F1
      00000051H   DATA     BYTE      fb_1
      00000052H   DATA     BYTE      fb_2
      00000053H   DATA     BYTE      fb_3
      00000054H   DATA     BYTE      fb_4
      00000055H   DATA     BYTE      fb_5
      00000056H   DATA     BYTE      fb_6
      00000057H   DATA     BYTE      fb_7
      00000058H   DATA     BYTE      fb_8
      0000004DH   DATA     BYTE      fen
      02000007H   XDATA    BYTE      fen_2
      00000008H   DATA     BYTE      flag_uart
      0000001AH   DATA     BYTE      i
      0100505FH   CODE     ---       I2C_Start
      0100506EH   CODE     ---       I2C_Start_time
      010050C6H   CODE     ---       I2C_Stop
      010050D0H   CODE     ---       I2C_Stop_time
*SFR* 000000C3H   DATA     BYTE      IAP_ADDRH
*SFR* 000000C4H   DATA     BYTE      IAP_ADDRL
*SFR* 000000C5H   DATA     BYTE      IAP_CMD
*SFR* 000000C7H   DATA     BYTE      IAP_CONTR
*SFR* 000000C2H   DATA     BYTE      IAP_DATA
*SFR* 000000C6H   DATA     BYTE      IAP_TRIG
*SFR* 000000A8H   DATA     BYTE      IE
*SFR* 00000088H.1 DATA     BIT       IE0
*SFR* 00000088H.3 DATA     BIT       IE1
*SFR* 000000AFH   DATA     BYTE      IE2
      010050B2H   CODE     ---       init
*SFR* 000000B8H   DATA     BYTE      IP
*SFR* 000000B5H   DATA     BYTE      IP2
*SFR* 000000B7H   DATA     BYTE      IPH
*SFR* 000000B6H   DATA     BYTE      IPH2
*SFR* 000000C3H   DATA     BYTE      ISP_ADDRH
*SFR* 000000C4H   DATA     BYTE      ISP_ADDRL
*SFR* 000000C5H   DATA     BYTE      ISP_CMD
*SFR* 000000C7H   DATA     BYTE      ISP_CONTR
*SFR* 000000C2H   DATA     BYTE      ISP_DATA
*SFR* 000000C6H   DATA     BYTE      ISP_TRIG
*SFR* 00000088H.0 DATA     BIT       IT0
*SFR* 00000088H.2 DATA     BIT       IT1
      00000068H   DATA     BYTE      j
      00000069H   DATA     BYTE      k
*SFR* 000000C0H.6 DATA     BIT       KEY
      02000000H   XDATA    BYTE      lanya_flag
      01004C44H   CODE     ---       lcd_uc1609_init
      01000026H   CODE     ---       main
      01004219H   CODE     ---       MAP_init
      0000004BH   DATA     BYTE      menu
      0000004AH   DATA     BYTE      miao
      02000008H   XDATA    WORD      N
      00000049H   DATA     BYTE      nian
      02000005H   XDATA    BYTE      NZ_A
      02000006H   XDATA    BYTE      NZ_B
      0100405EH   CODE     ---       NZ_Cheack
      02000004H   XDATA    BYTE      NZ_fen
      02000002H   XDATA    BYTE      NZ_LL
      0200000AH   XDATA    BYTE      NZ_shi
      01002C0AH   CODE     ---       OStime
*SFR* 000000D0H.2 DATA     BIT       OV
LX51 LINKER/LOCATER V4.66.97.0                                                        06/06/2023  14:37:28  PAGE 11


*SFR* 000000D0H.0 DATA     BIT       P
*SFR* 00000080H   DATA     BYTE      P0
*SFR* 00000080H.0 DATA     BIT       P00
*SFR* 00000080H.1 DATA     BIT       P01
*SFR* 00000080H.2 DATA     BIT       P02
*SFR* 00000080H.3 DATA     BIT       P03
*SFR* 00000080H.4 DATA     BIT       P04
*SFR* 00000080H.5 DATA     BIT       P05
*SFR* 00000080H.6 DATA     BIT       P06
*SFR* 00000080H.7 DATA     BIT       P07
*SFR* 00000094H   DATA     BYTE      P0M0
*SFR* 00000093H   DATA     BYTE      P0M1
*SFR* 00000090H   DATA     BYTE      P1
*SFR* 00000090H.0 DATA     BIT       P10
*SFR* 00000090H.1 DATA     BIT       P11
*SFR* 00000090H.2 DATA     BIT       P12
*SFR* 00000090H.3 DATA     BIT       P13
*SFR* 00000090H.4 DATA     BIT       P14
*SFR* 00000090H.5 DATA     BIT       P15
*SFR* 00000090H.6 DATA     BIT       P16
*SFR* 00000090H.7 DATA     BIT       P17
*SFR* 0000009DH   DATA     BYTE      P1ASF
*SFR* 00000092H   DATA     BYTE      P1M0
*SFR* 00000091H   DATA     BYTE      P1M1
*SFR* 000000A0H   DATA     BYTE      P2
*SFR* 000000A0H.0 DATA     BIT       P20
*SFR* 000000A0H.1 DATA     BIT       P21
*SFR* 000000A0H.2 DATA     BIT       P22
*SFR* 000000A0H.3 DATA     BIT       P23
*SFR* 000000A0H.4 DATA     BIT       P24
*SFR* 000000A0H.5 DATA     BIT       P25
*SFR* 000000A0H.6 DATA     BIT       P26
*SFR* 000000A0H.7 DATA     BIT       P27
*SFR* 00000096H   DATA     BYTE      P2M0
*SFR* 00000095H   DATA     BYTE      P2M1
*SFR* 000000B0H   DATA     BYTE      P3
*SFR* 000000B0H.0 DATA     BIT       P30
*SFR* 000000B0H.1 DATA     BIT       P31
*SFR* 000000B0H.2 DATA     BIT       P32
*SFR* 000000B0H.3 DATA     BIT       P33
*SFR* 000000B0H.4 DATA     BIT       P34
*SFR* 000000B0H.5 DATA     BIT       P35
*SFR* 000000B0H.6 DATA     BIT       P36
*SFR* 000000B0H.7 DATA     BIT       P37
*SFR* 000000B2H   DATA     BYTE      P3M0
*SFR* 000000B1H   DATA     BYTE      P3M1
*SFR* 000000C0H   DATA     BYTE      P4
*SFR* 000000C0H.0 DATA     BIT       P40
*SFR* 000000C0H.1 DATA     BIT       P41
*SFR* 000000C0H.2 DATA     BIT       P42
*SFR* 000000C0H.3 DATA     BIT       P43
*SFR* 000000C0H.4 DATA     BIT       P44
*SFR* 000000C0H.5 DATA     BIT       P45
*SFR* 000000C0H.6 DATA     BIT       P46
*SFR* 000000C0H.7 DATA     BIT       P47
*SFR* 000000B4H   DATA     BYTE      P4M0
*SFR* 000000B3H   DATA     BYTE      P4M1
*SFR* 000000BBH   DATA     BYTE      P4SW
*SFR* 000000C8H   DATA     BYTE      P5
*SFR* 000000C8H.0 DATA     BIT       P50
*SFR* 000000C8H.1 DATA     BIT       P51
*SFR* 000000C8H.2 DATA     BIT       P52
*SFR* 000000C8H.3 DATA     BIT       P53
*SFR* 000000CAH   DATA     BYTE      P5M0
*SFR* 000000C9H   DATA     BYTE      P5M1
LX51 LINKER/LOCATER V4.66.97.0                                                        06/06/2023  14:37:28  PAGE 12


*SFR* 000000B8H.5 DATA     BIT       PADC
*SFR* 000000F2H   DATA     BYTE      PCA_PWM0
*SFR* 000000F3H   DATA     BYTE      PCA_PWM1
*SFR* 00000087H   DATA     BYTE      PCON
*SFR* 000000C0H.4 DATA     BIT       PINA
*SFR* 000000C0H.5 DATA     BIT       PINB
*SFR* 000000B8H.6 DATA     BIT       PLVD
*SFR* 000000A0H.3 DATA     BIT       PM
*SFR* 000000B8H.7 DATA     BIT       PPCA
*SFR* 000000B8H.4 DATA     BIT       PS
*SFR* 000000D0H   DATA     BYTE      PSW
*SFR* 000000B8H.1 DATA     BIT       PT0
*SFR* 000000B8H.3 DATA     BIT       PT1
      01004F02H   CODE     ---       pwm_init
*SFR* 000000B8H.0 DATA     BIT       PX0
*SFR* 000000B8H.2 DATA     BIT       PX1
*SFR* 00000098H.2 DATA     BIT       RB8
      01004FB5H   CODE     ---       read_DS3231_current
      01004DBDH   CODE     ---       Read_IIC_Byte
      01004DF3H   CODE     ---       Read_IIC_Byte_time
*DEL*:00000000H   CODE     ---       Receive_ACK
*DEL*:00000000H   CODE     ---       Receive_ACK_time
      00000009H   DATA     ---       ReciveData
*SFR* 00000098H.4 DATA     BIT       REN
*SFR* 00000098H.0 DATA     BIT       RI
      0000004EH   DATA     BYTE      rii
*SFR* 000000D0H.3 DATA     BIT       RS0
*SFR* 000000D0H.4 DATA     BIT       RS1
*SFR* 00000090H.5 DATA     BIT       RST
*SFR* 0000009BH   DATA     BYTE      S2BUF
*SFR* 0000009AH   DATA     BYTE      S2CON
*SFR* 000000A9H   DATA     BYTE      SADDR
*SFR* 000000B9H   DATA     BYTE      SADEN
*SFR* 00000099H   DATA     BYTE      SBUF
*SFR* 00000090H.7 DATA     BIT       SCK
*SFR* 000000A0H.7 DATA     BIT       SCL
*SFR* 000000A0H.7 DATA     BIT       SCL_time
*SFR* 00000098H   DATA     BYTE      SCON
*SFR* 000000A0H.6 DATA     BIT       SDA
*SFR* 000000A0H.6 DATA     BIT       SDA_time
*SFR* 00000090H.6 DATA     BIT       SDAK
      0100502CH   CODE     ---       Send_ACK
*DEL*:00000000H   CODE     ---       Send_ACK_time
      0100503DH   CODE     ---       Send_NOT_ACK
      0100504EH   CODE     ---       Send_NOT_ACK_time
      0200000CH   XDATA    BYTE      shengyin_flag
      0000004FH   DATA     BYTE      shi
*SFR* 00000098H.7 DATA     BIT       SM0
*SFR* 00000098H.6 DATA     BIT       SM1
*SFR* 00000098H.5 DATA     BIT       SM2
*SFR* 00000081H   DATA     BYTE      SP
*SFR* 000000CEH   DATA     BYTE      SPCTL
*SFR* 000000CFH   DATA     BYTE      SPDAT
*SFR* 000000CDH   DATA     BYTE      SPSTAT
*SFR* 00000098H.3 DATA     BIT       TB8
      02000001H   XDATA    BYTE      TC
*SFR* 00000088H   DATA     BYTE      TCON
*SFR* 00000088H.5 DATA     BIT       TF0
*SFR* 00000088H.7 DATA     BIT       TF1
*SFR* 0000008CH   DATA     BYTE      TH0
*SFR* 0000008DH   DATA     BYTE      TH1
*SFR* 00000098H.1 DATA     BIT       TI
      00000059H   DATA     ---       time1
      0000005CH   DATA     ---       time2
      0000005FH   DATA     ---       time3
LX51 LINKER/LOCATER V4.66.97.0                                                        06/06/2023  14:37:28  PAGE 13


      00000062H   DATA     ---       time4
      00000065H   DATA     ---       time5
*SFR* 0000008AH   DATA     BYTE      TL0
*SFR* 0000008BH   DATA     BYTE      TL1
*SFR* 00000089H   DATA     BYTE      TMOD
*SFR* 00000088H.4 DATA     BIT       TR0
*SFR* 00000088H.6 DATA     BIT       TR1
      01004F88H   CODE     ---       UART_init
      01004D73H   CODE     ---       UARTRead
*SFR* 0000008FH   DATA     BYTE      WAKE_CLKO
*SFR* 000000C1H   DATA     BYTE      WDT_CONTR
      00000048H   DATA     BYTE      xingqi
      00000050H   DATA     BYTE      yue
*SFR* 000000A0H.5 DATA     BIT       yyxp_data
*SFR* 000000C0H.0 DATA     BIT       yyxp_rest
      0200000BH   XDATA    BYTE      zhendong_flag
      01005E6CH   CONST    ---       ZM1_8x16
      0100544CH   CONST    ---       ZM_16x16
      01005B6CH   CONST    ---       ZM_16x32
      010052ACH   CONST    ---       ZM_8x16



SYMBOL TABLE OF MODULE:  .\Objects\ELE_C51 (MAIN)

      VALUE       REP       CLASS    TYPE      SYMBOL NAME
      ====================================================
      ---         MODULE    ---      ---       MAIN
      0000006AH   PUBLIC    DATA     BYTE      choice
      00000069H   PUBLIC    DATA     BYTE      k
      00000068H   PUBLIC    DATA     BYTE      j
      0200000CH   PUBLIC    XDATA    BYTE      shengyin_flag
      00000065H   PUBLIC    DATA     ---       time5
      00000062H   PUBLIC    DATA     ---       time4
      0000005FH   PUBLIC    DATA     ---       time3
      0000005CH   PUBLIC    DATA     ---       time2
      00000059H   PUBLIC    DATA     ---       time1
      00000058H   PUBLIC    DATA     BYTE      fb_8
      00000057H   PUBLIC    DATA     BYTE      fb_7
      0200000BH   PUBLIC    XDATA    BYTE      zhendong_flag
      00000056H   PUBLIC    DATA     BYTE      fb_6
      00000055H   PUBLIC    DATA     BYTE      fb_5
      00000054H   PUBLIC    DATA     BYTE      fb_4
      00000053H   PUBLIC    DATA     BYTE      fb_3
      00000052H   PUBLIC    DATA     BYTE      fb_2
      00000051H   PUBLIC    DATA     BYTE      fb_1
      00000050H   PUBLIC    DATA     BYTE      yue
      0200000AH   PUBLIC    XDATA    BYTE      NZ_shi
      02000008H   PUBLIC    XDATA    WORD      N
      02000007H   PUBLIC    XDATA    BYTE      fen_2
      02000006H   PUBLIC    XDATA    BYTE      NZ_B
      02000005H   PUBLIC    XDATA    BYTE      NZ_A
      0000004FH   PUBLIC    DATA     BYTE      shi
      0000004EH   PUBLIC    DATA     BYTE      rii
      02000004H   PUBLIC    XDATA    BYTE      NZ_fen
      02000003H   PUBLIC    XDATA    BYTE      A_ON
      0000004DH   PUBLIC    DATA     BYTE      fen
      0000004CH   PUBLIC    DATA     BYTE      enc
      0000004BH   PUBLIC    DATA     BYTE      menu
      0000004AH   PUBLIC    DATA     BYTE      miao
      00000049H   PUBLIC    DATA     BYTE      nian
      02000002H   PUBLIC    XDATA    BYTE      NZ_LL
      02000001H   PUBLIC    XDATA    BYTE      TC
      02000000H   PUBLIC    XDATA    BYTE      lanya_flag
      00000048H   PUBLIC    DATA     BYTE      xingqi
LX51 LINKER/LOCATER V4.66.97.0                                                        06/06/2023  14:37:28  PAGE 14


      01005B6CH   PUBLIC    CONST    ---       ZM_16x32
      0100544CH   PUBLIC    CONST    ---       ZM_16x16
      010052ACH   PUBLIC    CONST    ---       ZM_8x16
      010052A8H   PUBLIC    CONST    ---       black
      010052A4H   PUBLIC    CONST    ---       clear
      01000026H   PUBLIC    CODE     ---       main
      01004EDFH   PUBLIC    CODE     ---       _speak
      01002C0AH   PUBLIC    CODE     ---       OStime
      010050B2H   PUBLIC    CODE     ---       init
      01004572H   PUBLIC    CODE     ---       EEPROM_write
      010043C6H   PUBLIC    CODE     ---       EEPROM_init
      01004219H   PUBLIC    CODE     ---       MAP_init
      0100405EH   PUBLIC    CODE     ---       NZ_Cheack
      01004F02H   PUBLIC    CODE     ---       pwm_init
      01004F7FH   PUBLIC    CODE     ---       _pwm_set
      00000092H   SFRSYM    DATA     BYTE      P1M0
      00000093H   SFRSYM    DATA     BYTE      P0M1
      00000096H   SFRSYM    DATA     BYTE      P2M0
      00000091H   SFRSYM    DATA     BYTE      P1M1
      00000080H   SFRSYM    DATA     BYTE      P0
      000000B2H   SFRSYM    DATA     BYTE      P3M0
      00000095H   SFRSYM    DATA     BYTE      P2M1
      00000090H   SFRSYM    DATA     BYTE      P1
      000000B4H   SFRSYM    DATA     BYTE      P4M0
      000000B1H   SFRSYM    DATA     BYTE      P3M1
      000000A0H   SFRSYM    DATA     BYTE      P2
      000000CAH   SFRSYM    DATA     BYTE      P5M0
      000000B3H   SFRSYM    DATA     BYTE      P4M1
      000000B0H   SFRSYM    DATA     BYTE      P3
      000000C9H   SFRSYM    DATA     BYTE      P5M1
      000000C0H   SFRSYM    DATA     BYTE      P4
      000000D0H.6 SFRSYM    DATA     BIT       AC
      000000C8H   SFRSYM    DATA     BYTE      P5
      000000A8H.7 SFRSYM    DATA     BIT       EA
      00000090H.4 SFRSYM    DATA     BIT       CD
      000000CEH   SFRSYM    DATA     BYTE      SPCTL
      000000D8H.7 SFRSYM    DATA     BIT       CF
      000000F9H   SFRSYM    DATA     BYTE      CH
      000000A8H.5 SFRSYM    DATA     BIT       EADC
      000000A8H   SFRSYM    DATA     BYTE      IE
      000000E9H   SFRSYM    DATA     BYTE      CL
      000000C5H   SFRSYM    DATA     BYTE      IAP_CMD
      000000FAH   SFRSYM    DATA     BYTE      CCAP0H
      000000FBH   SFRSYM    DATA     BYTE      CCAP1H
      000000BDH   SFRSYM    DATA     BYTE      ADC_RES
      000000B6H   SFRSYM    DATA     BYTE      IPH2
      000000EAH   SFRSYM    DATA     BYTE      CCAP0L
      000000D8H.6 SFRSYM    DATA     BIT       CR
      00000090H.3 SFRSYM    DATA     BIT       CS
      000000EBH   SFRSYM    DATA     BYTE      CCAP1L
      000000DAH   SFRSYM    DATA     BYTE      CCAPM0
      000000DBH   SFRSYM    DATA     BYTE      CCAPM1
      000000A8H.4 SFRSYM    DATA     BIT       ES
      000000B8H.5 SFRSYM    DATA     BIT       PADC
      000000B8H   SFRSYM    DATA     BYTE      IP
      00000098H.0 SFRSYM    DATA     BIT       RI
      000000D0H.7 SFRSYM    DATA     BIT       CY
      000000A0H.3 SFRSYM    DATA     BIT       PM
      00000098H.1 SFRSYM    DATA     BIT       TI
      00000097H   SFRSYM    DATA     BYTE      CLK_DIV
      000000C3H   SFRSYM    DATA     BYTE      IAP_ADDRH
      000000B8H.4 SFRSYM    DATA     BIT       PS
      00000081H   SFRSYM    DATA     BYTE      SP
      00000090H.6 SFRSYM    DATA     BIT       SDAK
      000000C4H   SFRSYM    DATA     BYTE      IAP_ADDRL
LX51 LINKER/LOCATER V4.66.97.0                                                        06/06/2023  14:37:28  PAGE 15


      000000D9H   SFRSYM    DATA     BYTE      CMOD
      000000D8H   SFRSYM    DATA     BYTE      CCON
      000000B8H.7 SFRSYM    DATA     BIT       PPCA
      000000D0H.2 SFRSYM    DATA     BIT       OV
      00000080H.0 SFRSYM    DATA     BIT       A25
      000000A0H.0 SFRSYM    DATA     BIT       BLUE
      00000080H.1 SFRSYM    DATA     BIT       A26
      000000C0H.4 SFRSYM    DATA     BIT       PINA
      00000080H.2 SFRSYM    DATA     BIT       A27
      000000C0H.5 SFRSYM    DATA     BIT       PINB
      000000A8H.6 SFRSYM    DATA     BIT       ELVD
      000000BBH   SFRSYM    DATA     BYTE      P4SW
      00000080H.0 SFRSYM    DATA     BIT       P00
      000000BCH   SFRSYM    DATA     BYTE      ADC_CONTR
      00000099H   SFRSYM    DATA     BYTE      SBUF
      00000090H.0 SFRSYM    DATA     BIT       P10
      00000080H.1 SFRSYM    DATA     BIT       P01
      00000087H   SFRSYM    DATA     BYTE      PCON
      000000A0H.0 SFRSYM    DATA     BIT       P20
      00000090H.1 SFRSYM    DATA     BIT       P11
      00000080H.2 SFRSYM    DATA     BIT       P02
      000000B0H.0 SFRSYM    DATA     BIT       P30
      000000A0H.1 SFRSYM    DATA     BIT       P21
      00000090H.2 SFRSYM    DATA     BIT       P12
      00000080H.3 SFRSYM    DATA     BIT       P03
      00000098H   SFRSYM    DATA     BYTE      SCON
      000000C0H.0 SFRSYM    DATA     BIT       P40
      000000B0H.1 SFRSYM    DATA     BIT       P31
      000000A0H.2 SFRSYM    DATA     BIT       P22
      00000090H.3 SFRSYM    DATA     BIT       P13
      00000080H.4 SFRSYM    DATA     BIT       P04
      0000008FH   SFRSYM    DATA     BYTE      WAKE_CLKO
      00000089H   SFRSYM    DATA     BYTE      TMOD
      00000088H   SFRSYM    DATA     BYTE      TCON
      000000C8H.0 SFRSYM    DATA     BIT       P50
      000000C0H.1 SFRSYM    DATA     BIT       P41
      000000B0H.2 SFRSYM    DATA     BIT       P32
      000000A0H.3 SFRSYM    DATA     BIT       P23
      00000090H.4 SFRSYM    DATA     BIT       P14
      00000080H.5 SFRSYM    DATA     BIT       P05
      000000C8H.1 SFRSYM    DATA     BIT       P51
      000000C0H.2 SFRSYM    DATA     BIT       P42
      000000B0H.3 SFRSYM    DATA     BIT       P33
      000000A0H.4 SFRSYM    DATA     BIT       P24
      00000090H.5 SFRSYM    DATA     BIT       P15
      00000080H.6 SFRSYM    DATA     BIT       P06
      000000C8H.2 SFRSYM    DATA     BIT       P52
      000000C0H.3 SFRSYM    DATA     BIT       P43
      000000B0H.4 SFRSYM    DATA     BIT       P34
      000000A0H.5 SFRSYM    DATA     BIT       P25
      00000090H.6 SFRSYM    DATA     BIT       P16
      00000080H.7 SFRSYM    DATA     BIT       P07
      000000B8H.6 SFRSYM    DATA     BIT       PLVD
      000000C8H.3 SFRSYM    DATA     BIT       P53
      000000C0H.4 SFRSYM    DATA     BIT       P44
      000000B0H.5 SFRSYM    DATA     BIT       P35
      000000A0H.6 SFRSYM    DATA     BIT       P26
      00000090H.7 SFRSYM    DATA     BIT       P17
      000000C0H.5 SFRSYM    DATA     BIT       P45
      000000B0H.6 SFRSYM    DATA     BIT       P36
      000000A0H.7 SFRSYM    DATA     BIT       P27
      000000C0H.6 SFRSYM    DATA     BIT       P46
      000000B0H.7 SFRSYM    DATA     BIT       P37
      000000C0H.7 SFRSYM    DATA     BIT       P47
      00000088H.1 SFRSYM    DATA     BIT       IE0
LX51 LINKER/LOCATER V4.66.97.0                                                        06/06/2023  14:37:28  PAGE 16


      000000A1H   SFRSYM    DATA     BYTE      BUS_SPEED
      00000088H.3 SFRSYM    DATA     BIT       IE1
      000000AFH   SFRSYM    DATA     BYTE      IE2
      0000008EH   SFRSYM    DATA     BYTE      AUXR
      000000F0H   SFRSYM    DATA     BYTE      B
      000000C7H   SFRSYM    DATA     BYTE      IAP_CONTR
      000000A0H.4 SFRSYM    DATA     BIT       BUSY
      000000E0H   SFRSYM    DATA     BYTE      ACC
      000000A8H.1 SFRSYM    DATA     BIT       ET0
      00000088H.5 SFRSYM    DATA     BIT       TF0
      000000A8H.3 SFRSYM    DATA     BIT       ET1
      00000088H.7 SFRSYM    DATA     BIT       TF1
      000000B5H   SFRSYM    DATA     BYTE      IP2
      00000098H.2 SFRSYM    DATA     BIT       RB8
      0000008CH   SFRSYM    DATA     BYTE      TH0
      0000008DH   SFRSYM    DATA     BYTE      TH1
      00000088H.0 SFRSYM    DATA     BIT       IT0
      000000A8H.0 SFRSYM    DATA     BIT       EX0
      00000098H.3 SFRSYM    DATA     BIT       TB8
      00000088H.2 SFRSYM    DATA     BIT       IT1
      000000A8H.2 SFRSYM    DATA     BIT       EX1
      000000D0H.0 SFRSYM    DATA     BIT       P
      00000098H.7 SFRSYM    DATA     BIT       SM0
      0000008AH   SFRSYM    DATA     BYTE      TL0
      00000098H.6 SFRSYM    DATA     BIT       SM1
      0000008BH   SFRSYM    DATA     BYTE      TL1
      00000098H.5 SFRSYM    DATA     BIT       SM2
      000000B8H.1 SFRSYM    DATA     BIT       PT0
      000000B8H.3 SFRSYM    DATA     BIT       PT1
      000000D0H.3 SFRSYM    DATA     BIT       RS0
      000000C2H   SFRSYM    DATA     BYTE      IAP_DATA
      00000088H.4 SFRSYM    DATA     BIT       TR0
      000000D0H.4 SFRSYM    DATA     BIT       RS1
      00000088H.6 SFRSYM    DATA     BIT       TR1
      000000A0H.6 SFRSYM    DATA     BIT       SDA
      000000C1H   SFRSYM    DATA     BYTE      WDT_CONTR
      000000B8H.0 SFRSYM    DATA     BIT       PX0
      000000A0H.5 SFRSYM    DATA     BIT       yyxp_data
      000000B8H.2 SFRSYM    DATA     BIT       PX1
      000000F2H   SFRSYM    DATA     BYTE      PCA_PWM0
      000000F3H   SFRSYM    DATA     BYTE      PCA_PWM1
      0000009DH   SFRSYM    DATA     BYTE      P1ASF
      00000083H   SFRSYM    DATA     BYTE      DPH
      000000BEH   SFRSYM    DATA     BYTE      ADC_RESL
      00000082H   SFRSYM    DATA     BYTE      DPL
      00000090H.7 SFRSYM    DATA     BIT       SCK
      000000CDH   SFRSYM    DATA     BYTE      SPSTAT
      000000B7H   SFRSYM    DATA     BYTE      IPH
      000000A0H.7 SFRSYM    DATA     BIT       SCL
      0000009BH   SFRSYM    DATA     BYTE      S2BUF
      00000098H.4 SFRSYM    DATA     BIT       REN
      0000009AH   SFRSYM    DATA     BYTE      S2CON
      0000009CH   SFRSYM    DATA     BYTE      BRT
      000000C0H.6 SFRSYM    DATA     BIT       KEY
      000000A0H.6 SFRSYM    DATA     BIT       SDA_time
      000000B9H   SFRSYM    DATA     BYTE      SADEN
      000000A9H   SFRSYM    DATA     BYTE      SADDR
      000000C6H   SFRSYM    DATA     BYTE      IAP_TRIG
      000000A2H   SFRSYM    DATA     BYTE      AUXR1
      000000A0H.7 SFRSYM    DATA     BIT       SCL_time
      000000D0H.5 SFRSYM    DATA     BIT       F0
      000000D0H.1 SFRSYM    DATA     BIT       F1
      00000090H.5 SFRSYM    DATA     BIT       RST
      000000D0H   SFRSYM    DATA     BYTE      PSW
      000000D8H.0 SFRSYM    DATA     BIT       CCF0
LX51 LINKER/LOCATER V4.66.97.0                                                        06/06/2023  14:37:28  PAGE 17


      000000C0H.0 SFRSYM    DATA     BIT       yyxp_rest
      000000CFH   SFRSYM    DATA     BYTE      SPDAT
      000000D8H.1 SFRSYM    DATA     BIT       CCF1
      00000094H   SFRSYM    DATA     BYTE      P0M0

      01003CC5H   BLOCK     CODE     ---       LVL=0
      ---         BLOCKEND  ---      ---       LVL=0

      01004F71H   BLOCK     CODE     VOID      LVL=0
      ---         BLOCKEND  ---      ---       LVL=0

      01004F7FH   BLOCK     CODE     ---       LVL=0
      00000007H   SYMBOL    DATA     BYTE      x
      00000005H   SYMBOL    DATA     BYTE      y
      01004F7FH   LINE      CODE     ---       #48
      01004F7FH   LINE      CODE     ---       #49
      01004F81H   LINE      CODE     ---       #50
      01004F83H   LINE      CODE     ---       #51
      01004F85H   LINE      CODE     ---       #52
      01004F87H   LINE      CODE     ---       #53
      ---         BLOCKEND  ---      ---       LVL=0

      01004F02H   BLOCK     CODE     ---       LVL=0
      01004F02H   LINE      CODE     ---       #60
      01004F02H   LINE      CODE     ---       #61
      01004F05H   LINE      CODE     ---       #65
      01004F07H   LINE      CODE     ---       #66
      01004F09H   LINE      CODE     ---       #67
      01004F0BH   LINE      CODE     ---       #68
      01004F0EH   LINE      CODE     ---       #70
      01004F12H   LINE      CODE     ---       #71
      01004F15H   LINE      CODE     ---       #73
      01004F1BH   LINE      CODE     ---       #74
      01004F1EH   LINE      CODE     ---       #76
      01004F20H   LINE      CODE     ---       #77
      ---         BLOCKEND  ---      ---       LVL=0

      0100405EH   BLOCK     CODE     ---       LVL=0
      0100405EH   LINE      CODE     ---       #80
      0100405EH   LINE      CODE     ---       #81
      0100405EH   LINE      CODE     ---       #82
      01004066H   LINE      CODE     ---       #83
      01004066H   LINE      CODE     ---       #84
      01004075H   LINE      CODE     ---       #85
      01004075H   LINE      CODE     ---       #86
      0100407AH   LINE      CODE     ---       #87
      0100407AH   LINE      CODE     ---       #88
      0100407AH   LINE      CODE     ---       #89
      01004085H   LINE      CODE     ---       #90
      01004085H   LINE      CODE     ---       #91
      0100408CH   LINE      CODE     ---       #92
      0100408CH   LINE      CODE     ---       #93
      01004099H   LINE      CODE     ---       #94
      01004099H   LINE      CODE     ---       #96
      0100409CH   LINE      CODE     ---       #97
      0100409FH   LINE      CODE     ---       #98
      0100409FH   LINE      CODE     ---       #99
      010040A2H   LINE      CODE     ---       #100
      010040A5H   LINE      CODE     ---       #101
      010040A5H   LINE      CODE     ---       #102
      010040A7H   LINE      CODE     ---       #104
      010040A7H   LINE      CODE     ---       #105
      010040B7H   LINE      CODE     ---       #106
      010040C2H   LINE      CODE     ---       #107
      010040C2H   LINE      CODE     ---       #109
LX51 LINKER/LOCATER V4.66.97.0                                                        06/06/2023  14:37:28  PAGE 18


      010040C4H   LINE      CODE     ---       #110
      010040C4H   LINE      CODE     ---       #111
      010040C7H   LINE      CODE     ---       #112
      010040C7H   LINE      CODE     ---       #113
      010040C7H   LINE      CODE     ---       #114
      010040C7H   LINE      CODE     ---       #115
      010040D2H   LINE      CODE     ---       #116
      010040D2H   LINE      CODE     ---       #117
      010040D9H   LINE      CODE     ---       #118
      010040D9H   LINE      CODE     ---       #119
      010040E8H   LINE      CODE     ---       #120
      010040E8H   LINE      CODE     ---       #122
      010040EBH   LINE      CODE     ---       #123
      010040F0H   LINE      CODE     ---       #124
      010040F0H   LINE      CODE     ---       #125
      010040F0H   LINE      CODE     ---       #126
      010040F0H   LINE      CODE     ---       #127
      010040F2H   LINE      CODE     ---       #129
      010040F2H   LINE      CODE     ---       #130
      01004102H   LINE      CODE     ---       #131
      0100410FH   LINE      CODE     ---       #132
      0100410FH   LINE      CODE     ---       #134
      01004115H   LINE      CODE     ---       #135
      01004117H   LINE      CODE     ---       #136
      0100411AH   LINE      CODE     ---       #137
      0100411AH   LINE      CODE     ---       #138
      0100411AH   LINE      CODE     ---       #139
      0100411AH   LINE      CODE     ---       #140
      01004125H   LINE      CODE     ---       #141
      01004125H   LINE      CODE     ---       #142
      0100412CH   LINE      CODE     ---       #143
      0100412CH   LINE      CODE     ---       #144
      0100413BH   LINE      CODE     ---       #145
      0100413BH   LINE      CODE     ---       #147
      0100413EH   LINE      CODE     ---       #148
      01004143H   LINE      CODE     ---       #149
      01004143H   LINE      CODE     ---       #150
      01004143H   LINE      CODE     ---       #151
      01004143H   LINE      CODE     ---       #152
      01004145H   LINE      CODE     ---       #154
      01004145H   LINE      CODE     ---       #155
      01004155H   LINE      CODE     ---       #156
      01004162H   LINE      CODE     ---       #157
      01004162H   LINE      CODE     ---       #159
      01004168H   LINE      CODE     ---       #160
      0100416AH   LINE      CODE     ---       #161
      0100416DH   LINE      CODE     ---       #162
      0100416DH   LINE      CODE     ---       #163
      0100416DH   LINE      CODE     ---       #164
      0100416DH   LINE      CODE     ---       #165
      01004178H   LINE      CODE     ---       #166
      01004178H   LINE      CODE     ---       #167
      0100417FH   LINE      CODE     ---       #168
      0100417FH   LINE      CODE     ---       #169
      0100418EH   LINE      CODE     ---       #170
      0100418EH   LINE      CODE     ---       #172
      01004191H   LINE      CODE     ---       #173
      01004196H   LINE      CODE     ---       #174
      01004196H   LINE      CODE     ---       #175
      01004196H   LINE      CODE     ---       #176
      01004196H   LINE      CODE     ---       #177
      01004198H   LINE      CODE     ---       #179
      01004198H   LINE      CODE     ---       #180
      010041A8H   LINE      CODE     ---       #181
      010041B5H   LINE      CODE     ---       #182
LX51 LINKER/LOCATER V4.66.97.0                                                        06/06/2023  14:37:28  PAGE 19


      010041B5H   LINE      CODE     ---       #184
      010041BBH   LINE      CODE     ---       #185
      010041BDH   LINE      CODE     ---       #186
      010041C0H   LINE      CODE     ---       #187
      010041C0H   LINE      CODE     ---       #188
      010041C0H   LINE      CODE     ---       #189
      010041C0H   LINE      CODE     ---       #191
      010041CBH   LINE      CODE     ---       #192
      010041CBH   LINE      CODE     ---       #193
      010041D2H   LINE      CODE     ---       #194
      010041D2H   LINE      CODE     ---       #195
      010041E1H   LINE      CODE     ---       #196
      010041E1H   LINE      CODE     ---       #198
      010041E4H   LINE      CODE     ---       #199
      010041E9H   LINE      CODE     ---       #200
      010041E9H   LINE      CODE     ---       #201
      010041E9H   LINE      CODE     ---       #202
      010041E9H   LINE      CODE     ---       #203
      010041EBH   LINE      CODE     ---       #205
      010041EBH   LINE      CODE     ---       #206
      010041FBH   LINE      CODE     ---       #207
      01004208H   LINE      CODE     ---       #208
      01004208H   LINE      CODE     ---       #210
      0100420EH   LINE      CODE     ---       #211
      01004214H   LINE      CODE     ---       #212
      01004218H   LINE      CODE     ---       #213
      01004218H   LINE      CODE     ---       #214
      01004218H   LINE      CODE     ---       #215
      01004218H   LINE      CODE     ---       #216
      ---         BLOCKEND  ---      ---       LVL=0

      01004219H   BLOCK     CODE     ---       LVL=0
      01004219H   LINE      CODE     ---       #218
      01004219H   LINE      CODE     ---       #219
      01004219H   LINE      CODE     ---       #220
      01004229H   LINE      CODE     ---       #221
      01004236H   LINE      CODE     ---       #222
      01004240H   LINE      CODE     ---       #223
      01004249H   LINE      CODE     ---       #225
      01004256H   LINE      CODE     ---       #226
      01004263H   LINE      CODE     ---       #227
      01004270H   LINE      CODE     ---       #228
      0100427DH   LINE      CODE     ---       #229
      0100428EH   LINE      CODE     ---       #231
      0100429AH   LINE      CODE     ---       #232
      010042A5H   LINE      CODE     ---       #233
      010042B0H   LINE      CODE     ---       #234
      010042BBH   LINE      CODE     ---       #235
      010042C6H   LINE      CODE     ---       #236
      010042D3H   LINE      CODE     ---       #237
      010042E5H   LINE      CODE     ---       #239
      010042F1H   LINE      CODE     ---       #240
      010042FAH   LINE      CODE     ---       #241
      01004302H   LINE      CODE     ---       #242
      0100430AH   LINE      CODE     ---       #243
      01004316H   LINE      CODE     ---       #244
      01004322H   LINE      CODE     ---       #245
      0100432DH   LINE      CODE     ---       #246
      01004338H   LINE      CODE     ---       #247
      0100434AH   LINE      CODE     ---       #248
      01004355H   LINE      CODE     ---       #249
      01004360H   LINE      CODE     ---       #250
      01004372H   LINE      CODE     ---       #253
      ---         BLOCKEND  ---      ---       LVL=0

LX51 LINKER/LOCATER V4.66.97.0                                                        06/06/2023  14:37:28  PAGE 20


      010043C6H   BLOCK     CODE     ---       LVL=0
      010043C6H   LINE      CODE     ---       #254
      010043C6H   LINE      CODE     ---       #255
      010043C6H   LINE      CODE     ---       #258
      010043D6H   LINE      CODE     ---       #259
      010043E6H   LINE      CODE     ---       #260
      010043F6H   LINE      CODE     ---       #261
      01004400H   LINE      CODE     ---       #262
      0100440AH   LINE      CODE     ---       #263
      01004414H   LINE      CODE     ---       #265
      01004423H   LINE      CODE     ---       #266
      0100442EH   LINE      CODE     ---       #267
      0100443AH   LINE      CODE     ---       #268
      0100444AH   LINE      CODE     ---       #269
      01004453H   LINE      CODE     ---       #272
      0100445EH   LINE      CODE     ---       #273
      0100446AH   LINE      CODE     ---       #274
      0100447BH   LINE      CODE     ---       #275
      01004485H   LINE      CODE     ---       #276
      01004490H   LINE      CODE     ---       #278
      0100449BH   LINE      CODE     ---       #279
      010044A7H   LINE      CODE     ---       #280
      010044B8H   LINE      CODE     ---       #281
      010044C2H   LINE      CODE     ---       #282
      010044CDH   LINE      CODE     ---       #284
      010044D8H   LINE      CODE     ---       #285
      010044E4H   LINE      CODE     ---       #286
      010044F0H   LINE      CODE     ---       #287
      010044FDH   LINE      CODE     ---       #288
      01004508H   LINE      CODE     ---       #290
      01004513H   LINE      CODE     ---       #291
      01004524H   LINE      CODE     ---       #292
      01004534H   LINE      CODE     ---       #293
      0100453FH   LINE      CODE     ---       #294
      0100454AH   LINE      CODE     ---       #296
      ---         BLOCKEND  ---      ---       LVL=0

      01004572H   BLOCK     CODE     ---       LVL=0
      01004572H   LINE      CODE     ---       #297
      01004572H   LINE      CODE     ---       #298
      01004572H   LINE      CODE     ---       #299
      01004579H   LINE      CODE     ---       #301
      01004589H   LINE      CODE     ---       #302
      01004599H   LINE      CODE     ---       #303
      010045A4H   LINE      CODE     ---       #305
      010045B4H   LINE      CODE     ---       #306
      010045BFH   LINE      CODE     ---       #307
      010045CBH   LINE      CODE     ---       #309
      010045D7H   LINE      CODE     ---       #310
      010045E3H   LINE      CODE     ---       #311
      010045EFH   LINE      CODE     ---       #313
      010045FBH   LINE      CODE     ---       #314
      01004607H   LINE      CODE     ---       #315
      01004613H   LINE      CODE     ---       #317
      0100461FH   LINE      CODE     ---       #318
      0100462BH   LINE      CODE     ---       #319
      01004637H   LINE      CODE     ---       #321
      01004648H   LINE      CODE     ---       #322
      01004658H   LINE      CODE     ---       #323
      01004668H   LINE      CODE     ---       #324
      ---         BLOCKEND  ---      ---       LVL=0

      010050B2H   BLOCK     CODE     ---       LVL=0
      010050B2H   LINE      CODE     ---       #325
      010050B2H   LINE      CODE     ---       #326
LX51 LINKER/LOCATER V4.66.97.0                                                        06/06/2023  14:37:28  PAGE 21


      010050B2H   LINE      CODE     ---       #327
      010050B5H   LINE      CODE     ---       #328
      010050B7H   LINE      CODE     ---       #329
      010050B9H   LINE      CODE     ---       #330
      010050BBH   LINE      CODE     ---       #331
      ---         BLOCKEND  ---      ---       LVL=0

      01002C0AH   BLOCK     CODE     ---       LVL=0
      01002C0AH   LINE      CODE     ---       #333
      01002C27H   LINE      CODE     ---       #335
      01002C2AH   LINE      CODE     ---       #336
      01002C31H   LINE      CODE     ---       #337
      01002C34H   LINE      CODE     ---       #338
      01002C69H   LINE      CODE     ---       #339
      01002C69H   LINE      CODE     ---       #340
      01002C69H   LINE      CODE     ---       #341
      01002C92H   LINE      CODE     ---       #342
      01002CC4H   LINE      CODE     ---       #343
      01002CC7H   LINE      CODE     ---       #344
      01002CC7H   LINE      CODE     ---       #345
      01002CD9H   LINE      CODE     ---       #346
      01002CEFH   LINE      CODE     ---       #347
      01002CF2H   LINE      CODE     ---       #348
      01002CF2H   LINE      CODE     ---       #349
      01002D08H   LINE      CODE     ---       #350
      01002D08H   LINE      CODE     ---       #351
      01002D08H   LINE      CODE     ---       #352
      01002D1AH   LINE      CODE     ---       #353
      01002D30H   LINE      CODE     ---       #354
      01002D33H   LINE      CODE     ---       #355
      01002D33H   LINE      CODE     ---       #356
      01002D45H   LINE      CODE     ---       #357
      01002D5BH   LINE      CODE     ---       #358
      01002D5EH   LINE      CODE     ---       #359
      01002D5EH   LINE      CODE     ---       #360
      01002D70H   LINE      CODE     ---       #361
      01002D86H   LINE      CODE     ---       #362
      01002D89H   LINE      CODE     ---       #363
      01002D89H   LINE      CODE     ---       #364
      01002D9BH   LINE      CODE     ---       #365
      01002DB0H   LINE      CODE     ---       #366
      01002DB3H   LINE      CODE     ---       #367
      01002DB3H   LINE      CODE     ---       #368
      01002DB3H   LINE      CODE     ---       #369
      01002DB3H   LINE      CODE     ---       #370
      01002DC3H   LINE      CODE     ---       #371
      01002DC3H   LINE      CODE     ---       #372
      01002DC3H   LINE      CODE     ---       #373
      01002DD2H   LINE      CODE     ---       #374
      01002DDDH   LINE      CODE     ---       #375
      01002DE2H   LINE      CODE     ---       #376
      01002DE5H   LINE      CODE     ---       #377
      01002DE5H   LINE      CODE     ---       #378
      01002DF4H   LINE      CODE     ---       #379
      01002DFFH   LINE      CODE     ---       #380
      01002E04H   LINE      CODE     ---       #381
      01002E07H   LINE      CODE     ---       #382
      01002E07H   LINE      CODE     ---       #383
      01002E16H   LINE      CODE     ---       #384
      01002E21H   LINE      CODE     ---       #385
      01002E26H   LINE      CODE     ---       #386
      01002E29H   LINE      CODE     ---       #387
      01002E29H   LINE      CODE     ---       #388
      01002E29H   LINE      CODE     ---       #389
      01002E29H   LINE      CODE     ---       #390
LX51 LINKER/LOCATER V4.66.97.0                                                        06/06/2023  14:37:28  PAGE 22


      01002E39H   LINE      CODE     ---       #391
      01002E39H   LINE      CODE     ---       #392
      01002E39H   LINE      CODE     ---       #393
      01002E48H   LINE      CODE     ---       #394
      01002E5EH   LINE      CODE     ---       #395
      01002E61H   LINE      CODE     ---       #396
      01002E61H   LINE      CODE     ---       #397
      01002E70H   LINE      CODE     ---       #398
      01002E86H   LINE      CODE     ---       #399
      01002E89H   LINE      CODE     ---       #400
      01002E89H   LINE      CODE     ---       #401
      01002E97H   LINE      CODE     ---       #402
      01002EADH   LINE      CODE     ---       #403
      01002EB0H   LINE      CODE     ---       #404
      01002EB0H   LINE      CODE     ---       #405
      01002EB0H   LINE      CODE     ---       #406
      01002EB0H   LINE      CODE     ---       #407
      01002EC3H   LINE      CODE     ---       #408
      01002EC3H   LINE      CODE     ---       #409
      01002EC3H   LINE      CODE     ---       #410
      01002ED0H   LINE      CODE     ---       #411
      01002EE6H   LINE      CODE     ---       #412
      01002EE9H   LINE      CODE     ---       #413
      01002EE9H   LINE      CODE     ---       #414
      01002EF7H   LINE      CODE     ---       #415
      01002F0CH   LINE      CODE     ---       #416
      01002F0FH   LINE      CODE     ---       #417
      01002F0FH   LINE      CODE     ---       #418
      01002F1CH   LINE      CODE     ---       #419
      01002F2DH   LINE      CODE     ---       #420
      01002F30H   LINE      CODE     ---       #421
      01002F30H   LINE      CODE     ---       #422
      01002F3FH   LINE      CODE     ---       #423
      01002F3FH   LINE      CODE     ---       #424
      01002F4AH   LINE      CODE     ---       #425
      01002F4DH   LINE      CODE     ---       #426
      01002F4DH   LINE      CODE     ---       #427
      01002F50H   LINE      CODE     ---       #428
      01002F50H   LINE      CODE     ---       #429
      01002F50H   LINE      CODE     ---       #430
      01002F50H   LINE      CODE     ---       #431
      01002F63H   LINE      CODE     ---       #432
      01002F63H   LINE      CODE     ---       #433
      01002F63H   LINE      CODE     ---       #434
      01002F72H   LINE      CODE     ---       #435
      01002F88H   LINE      CODE     ---       #436
      01002F8BH   LINE      CODE     ---       #437
      01002F8BH   LINE      CODE     ---       #438
      01002F99H   LINE      CODE     ---       #439
      01002FAEH   LINE      CODE     ---       #440
      01002FB1H   LINE      CODE     ---       #441
      01002FB1H   LINE      CODE     ---       #442
      01002FBEH   LINE      CODE     ---       #443
      01002FCFH   LINE      CODE     ---       #444
      01002FD2H   LINE      CODE     ---       #445
      01002FD2H   LINE      CODE     ---       #446
      01002FE1H   LINE      CODE     ---       #447
      01002FE1H   LINE      CODE     ---       #448
      01002FECH   LINE      CODE     ---       #449
      01002FEFH   LINE      CODE     ---       #450
      01002FEFH   LINE      CODE     ---       #451
      01002FF2H   LINE      CODE     ---       #452
      01002FF2H   LINE      CODE     ---       #453
      01002FF2H   LINE      CODE     ---       #455
      01002FF2H   LINE      CODE     ---       #456
LX51 LINKER/LOCATER V4.66.97.0                                                        06/06/2023  14:37:28  PAGE 23


      01003005H   LINE      CODE     ---       #457
      01003005H   LINE      CODE     ---       #458
      01003005H   LINE      CODE     ---       #459
      01003014H   LINE      CODE     ---       #460
      0100302AH   LINE      CODE     ---       #461
      0100302DH   LINE      CODE     ---       #462
      0100302DH   LINE      CODE     ---       #463
      0100303BH   LINE      CODE     ---       #464
      01003050H   LINE      CODE     ---       #465
      01003053H   LINE      CODE     ---       #466
      01003053H   LINE      CODE     ---       #467
      01003060H   LINE      CODE     ---       #468
      01003071H   LINE      CODE     ---       #469
      01003074H   LINE      CODE     ---       #470
      01003074H   LINE      CODE     ---       #471
      01003083H   LINE      CODE     ---       #472
      01003083H   LINE      CODE     ---       #473
      0100308EH   LINE      CODE     ---       #474
      01003091H   LINE      CODE     ---       #475
      01003091H   LINE      CODE     ---       #476
      01003094H   LINE      CODE     ---       #477
      01003094H   LINE      CODE     ---       #478
      01003094H   LINE      CODE     ---       #479
      01003094H   LINE      CODE     ---       #480
      010030A7H   LINE      CODE     ---       #481
      010030A7H   LINE      CODE     ---       #482
      010030A7H   LINE      CODE     ---       #483
      010030B6H   LINE      CODE     ---       #484
      010030CCH   LINE      CODE     ---       #485
      010030CFH   LINE      CODE     ---       #486
      010030CFH   LINE      CODE     ---       #487
      010030DDH   LINE      CODE     ---       #488
      010030F2H   LINE      CODE     ---       #489
      010030F5H   LINE      CODE     ---       #490
      010030F5H   LINE      CODE     ---       #491
      01003102H   LINE      CODE     ---       #492
      01003113H   LINE      CODE     ---       #493
      01003116H   LINE      CODE     ---       #494
      01003116H   LINE      CODE     ---       #495
      01003125H   LINE      CODE     ---       #496
      01003125H   LINE      CODE     ---       #497
      01003130H   LINE      CODE     ---       #498
      01003133H   LINE      CODE     ---       #499
      01003133H   LINE      CODE     ---       #500
      01003136H   LINE      CODE     ---       #501
      01003136H   LINE      CODE     ---       #502
      01003136H   LINE      CODE     ---       #503
      01003136H   LINE      CODE     ---       #504
      01003149H   LINE      CODE     ---       #505
      01003149H   LINE      CODE     ---       #506
      01003149H   LINE      CODE     ---       #507
      01003158H   LINE      CODE     ---       #508
      0100316EH   LINE      CODE     ---       #509
      01003171H   LINE      CODE     ---       #510
      01003171H   LINE      CODE     ---       #511
      0100317FH   LINE      CODE     ---       #512
      01003194H   LINE      CODE     ---       #513
      01003197H   LINE      CODE     ---       #514
      01003197H   LINE      CODE     ---       #515
      010031A4H   LINE      CODE     ---       #516
      010031B5H   LINE      CODE     ---       #517
      010031B8H   LINE      CODE     ---       #518
      010031B8H   LINE      CODE     ---       #519
      010031C7H   LINE      CODE     ---       #520
      010031C7H   LINE      CODE     ---       #521
LX51 LINKER/LOCATER V4.66.97.0                                                        06/06/2023  14:37:28  PAGE 24


      010031D2H   LINE      CODE     ---       #522
      010031D5H   LINE      CODE     ---       #523
      010031D5H   LINE      CODE     ---       #524
      010031D8H   LINE      CODE     ---       #525
      010031D8H   LINE      CODE     ---       #526
      010031D8H   LINE      CODE     ---       #527
      010031D8H   LINE      CODE     ---       #528
      010031F9H   LINE      CODE     ---       #529
      010031F9H   LINE      CODE     ---       #530
      010031F9H   LINE      CODE     ---       #531
      01003220H   LINE      CODE     ---       #532
      01003220H   LINE      CODE     ---       #533
      01003220H   LINE      CODE     ---       #534
      0100322FH   LINE      CODE     ---       #535
      0100323CH   LINE      CODE     ---       #536
      0100323FH   LINE      CODE     ---       #537
      01003242H   LINE      CODE     ---       #538
      01003242H   LINE      CODE     ---       #539
      01003251H   LINE      CODE     ---       #540
      0100325DH   LINE      CODE     ---       #541
      01003260H   LINE      CODE     ---       #542
      01003263H   LINE      CODE     ---       #543
      01003263H   LINE      CODE     ---       #544
      01003272H   LINE      CODE     ---       #545
      0100327EH   LINE      CODE     ---       #546
      01003281H   LINE      CODE     ---       #547
      01003284H   LINE      CODE     ---       #548
      01003284H   LINE      CODE     ---       #549
      01003293H   LINE      CODE     ---       #550
      010032A1H   LINE      CODE     ---       #551
      010032A4H   LINE      CODE     ---       #552
      010032A7H   LINE      CODE     ---       #553
      010032A7H   LINE      CODE     ---       #554
      010032B6H   LINE      CODE     ---       #555
      010032C2H   LINE      CODE     ---       #556
      010032C5H   LINE      CODE     ---       #557
      010032C8H   LINE      CODE     ---       #558
      010032C8H   LINE      CODE     ---       #559
      010032D7H   LINE      CODE     ---       #560
      010032E3H   LINE      CODE     ---       #561
      010032E6H   LINE      CODE     ---       #562
      010032E9H   LINE      CODE     ---       #563
      010032E9H   LINE      CODE     ---       #564
      010032F8H   LINE      CODE     ---       #565
      01003304H   LINE      CODE     ---       #566
      01003307H   LINE      CODE     ---       #567
      0100330AH   LINE      CODE     ---       #568
      0100330AH   LINE      CODE     ---       #570
      0100330AH   LINE      CODE     ---       #571
      01003331H   LINE      CODE     ---       #572
      01003331H   LINE      CODE     ---       #573
      01003331H   LINE      CODE     ---       #574
      01003340H   LINE      CODE     ---       #575
      0100334DH   LINE      CODE     ---       #576
      01003350H   LINE      CODE     ---       #577
      01003353H   LINE      CODE     ---       #578
      01003353H   LINE      CODE     ---       #579
      01003362H   LINE      CODE     ---       #580
      0100336EH   LINE      CODE     ---       #581
      01003371H   LINE      CODE     ---       #582
      01003374H   LINE      CODE     ---       #583
      01003374H   LINE      CODE     ---       #584
      01003383H   LINE      CODE     ---       #585
      0100338FH   LINE      CODE     ---       #586
      01003392H   LINE      CODE     ---       #587
LX51 LINKER/LOCATER V4.66.97.0                                                        06/06/2023  14:37:28  PAGE 25


      01003395H   LINE      CODE     ---       #588
      01003395H   LINE      CODE     ---       #589
      010033A4H   LINE      CODE     ---       #590
      010033B2H   LINE      CODE     ---       #591
      010033B5H   LINE      CODE     ---       #592
      010033B8H   LINE      CODE     ---       #593
      010033B8H   LINE      CODE     ---       #594
      010033C7H   LINE      CODE     ---       #595
      010033D3H   LINE      CODE     ---       #596
      010033D6H   LINE      CODE     ---       #597
      010033D9H   LINE      CODE     ---       #598
      010033D9H   LINE      CODE     ---       #599
      010033E8H   LINE      CODE     ---       #600
      010033F4H   LINE      CODE     ---       #601
      010033F7H   LINE      CODE     ---       #602
      010033FAH   LINE      CODE     ---       #603
      010033FAH   LINE      CODE     ---       #604
      01003409H   LINE      CODE     ---       #605
      01003417H   LINE      CODE     ---       #606
      0100341AH   LINE      CODE     ---       #607
      0100341DH   LINE      CODE     ---       #608
      0100341DH   LINE      CODE     ---       #610
      0100341DH   LINE      CODE     ---       #611
      01003444H   LINE      CODE     ---       #612
      01003444H   LINE      CODE     ---       #613
      01003444H   LINE      CODE     ---       #614
      01003453H   LINE      CODE     ---       #615
      01003460H   LINE      CODE     ---       #616
      01003463H   LINE      CODE     ---       #617
      01003466H   LINE      CODE     ---       #618
      01003466H   LINE      CODE     ---       #619
      01003475H   LINE      CODE     ---       #620
      01003481H   LINE      CODE     ---       #621
      01003484H   LINE      CODE     ---       #622
      01003487H   LINE      CODE     ---       #623
      01003487H   LINE      CODE     ---       #624
      01003496H   LINE      CODE     ---       #625
      010034A2H   LINE      CODE     ---       #626
      010034A5H   LINE      CODE     ---       #627
      010034A8H   LINE      CODE     ---       #628
      010034A8H   LINE      CODE     ---       #629
      010034B7H   LINE      CODE     ---       #630
      010034C5H   LINE      CODE     ---       #631
      010034C8H   LINE      CODE     ---       #632
      010034CBH   LINE      CODE     ---       #633
      010034CBH   LINE      CODE     ---       #634
      010034DAH   LINE      CODE     ---       #635
      010034E6H   LINE      CODE     ---       #636
      010034E9H   LINE      CODE     ---       #637
      010034ECH   LINE      CODE     ---       #638
      010034ECH   LINE      CODE     ---       #639
      010034FBH   LINE      CODE     ---       #640
      01003507H   LINE      CODE     ---       #641
      0100350AH   LINE      CODE     ---       #642
      0100350DH   LINE      CODE     ---       #643
      0100350DH   LINE      CODE     ---       #644
      0100351CH   LINE      CODE     ---       #645
      0100352AH   LINE      CODE     ---       #646
      0100352DH   LINE      CODE     ---       #647
      01003530H   LINE      CODE     ---       #648
      01003530H   LINE      CODE     ---       #650
      01003530H   LINE      CODE     ---       #651
      01003557H   LINE      CODE     ---       #652
      01003557H   LINE      CODE     ---       #653
      01003557H   LINE      CODE     ---       #654
LX51 LINKER/LOCATER V4.66.97.0                                                        06/06/2023  14:37:28  PAGE 26


      01003566H   LINE      CODE     ---       #655
      01003573H   LINE      CODE     ---       #656
      01003576H   LINE      CODE     ---       #657
      01003579H   LINE      CODE     ---       #658
      01003579H   LINE      CODE     ---       #659
      01003588H   LINE      CODE     ---       #660
      01003594H   LINE      CODE     ---       #661
      01003597H   LINE      CODE     ---       #662
      0100359AH   LINE      CODE     ---       #663
      0100359AH   LINE      CODE     ---       #664
      010035A9H   LINE      CODE     ---       #665
      010035B5H   LINE      CODE     ---       #666
      010035B8H   LINE      CODE     ---       #667
      010035BBH   LINE      CODE     ---       #668
      010035BBH   LINE      CODE     ---       #669
      010035CAH   LINE      CODE     ---       #670
      010035D8H   LINE      CODE     ---       #671
      010035DBH   LINE      CODE     ---       #672
      010035DEH   LINE      CODE     ---       #673
      010035DEH   LINE      CODE     ---       #674
      010035EDH   LINE      CODE     ---       #675
      010035F9H   LINE      CODE     ---       #676
      010035FCH   LINE      CODE     ---       #677
      010035FFH   LINE      CODE     ---       #678
      010035FFH   LINE      CODE     ---       #679
      0100360EH   LINE      CODE     ---       #680
      0100361AH   LINE      CODE     ---       #681
      0100361DH   LINE      CODE     ---       #682
      01003620H   LINE      CODE     ---       #683
      01003620H   LINE      CODE     ---       #684
      0100362FH   LINE      CODE     ---       #685
      0100363DH   LINE      CODE     ---       #686
      01003640H   LINE      CODE     ---       #687
      01003643H   LINE      CODE     ---       #688
      01003643H   LINE      CODE     ---       #690
      01003643H   LINE      CODE     ---       #691
      0100366AH   LINE      CODE     ---       #692
      0100366AH   LINE      CODE     ---       #693
      0100366AH   LINE      CODE     ---       #694
      01003679H   LINE      CODE     ---       #695
      01003686H   LINE      CODE     ---       #696
      01003689H   LINE      CODE     ---       #697
      0100368CH   LINE      CODE     ---       #698
      0100368CH   LINE      CODE     ---       #699
      0100369BH   LINE      CODE     ---       #700
      010036A7H   LINE      CODE     ---       #701
      010036AAH   LINE      CODE     ---       #702
      010036ADH   LINE      CODE     ---       #703
      010036ADH   LINE      CODE     ---       #704
      010036BCH   LINE      CODE     ---       #705
      010036C7H   LINE      CODE     ---       #706
      010036CAH   LINE      CODE     ---       #707
      010036CCH   LINE      CODE     ---       #708
      010036CCH   LINE      CODE     ---       #709
      010036D8H   LINE      CODE     ---       #710
      010036E5H   LINE      CODE     ---       #711
      010036E8H   LINE      CODE     ---       #712
      010036EAH   LINE      CODE     ---       #713
      010036EAH   LINE      CODE     ---       #714
      010036F6H   LINE      CODE     ---       #715
      01003704H   LINE      CODE     ---       #716
      01003707H   LINE      CODE     ---       #717
      01003709H   LINE      CODE     ---       #718
      01003709H   LINE      CODE     ---       #719
      01003715H   LINE      CODE     ---       #720
LX51 LINKER/LOCATER V4.66.97.0                                                        06/06/2023  14:37:28  PAGE 27


      01003723H   LINE      CODE     ---       #721
      01003726H   LINE      CODE     ---       #722
      01003728H   LINE      CODE     ---       #723
      01003728H   LINE      CODE     ---       #724
      01003733H   LINE      CODE     ---       #725
      01003740H   LINE      CODE     ---       #726
      01003743H   LINE      CODE     ---       #727
      01003743H   LINE      CODE     ---       #728
      01003743H   LINE      CODE     ---       #730
      01003743H   LINE      CODE     ---       #731
      01003743H   LINE      CODE     ---       #732
      01003758H   LINE      CODE     ---       #733
      0100376BH   LINE      CODE     ---       #734
      0100377CH   LINE      CODE     ---       #735
      0100377CH   LINE      CODE     ---       #736
      0100377CH   LINE      CODE     ---       #737
      0100377FH   LINE      CODE     ---       #738
      01003782H   LINE      CODE     ---       #739
      ---         BLOCKEND  ---      ---       LVL=0

      01004EDFH   BLOCK     CODE     ---       LVL=0
      00000033H   SYMBOL    DATA     BYTE      Z
      01004EDFH   LINE      CODE     ---       #741
      01004EE1H   LINE      CODE     ---       #742
      01004EE1H   LINE      CODE     ---       #743
      01004EE3H   LINE      CODE     ---       #744
      01004EE6H   LINE      CODE     ---       #745
      01004EE9H   LINE      CODE     ---       #746
      01004EEBH   LINE      CODE     ---       #747
      01004EF3H   LINE      CODE     ---       #748
      01004EF3H   LINE      CODE     ---       #749
      01004EF5H   LINE      CODE     ---       #750
      01004EF8H   LINE      CODE     ---       #751
      01004EFAH   LINE      CODE     ---       #752
      01004EFDH   LINE      CODE     ---       #753
      01004EFFH   LINE      CODE     ---       #754
      01004F01H   LINE      CODE     ---       #755
      ---         BLOCKEND  ---      ---       LVL=0

      01000026H   BLOCK     CODE     ---       LVL=0
      01000026H   BLOCK     CODE     NEAR LAB  LVL=1
      0200000DH   SYMBOL    XDATA    BYTE      A25_ON
      0200000EH   SYMBOL    XDATA    BYTE      A26_ON
      00000022H   SYMBOL    DATA     ---       CT_data
      0000002AH   SYMBOL    DATA     FLOAT     t1
      0000002EH   SYMBOL    DATA     FLOAT     c1
      00000032H   SYMBOL    DATA     CHAR      temp
      0200000FH   SYMBOL    XDATA    BYTE      Light
      ---         BLOCKEND  ---      ---       LVL=1
      01000026H   LINE      CODE     ---       #757
      01000026H   LINE      CODE     ---       #758
      01000026H   LINE      CODE     ---       #759
      0100002BH   LINE      CODE     ---       #760
      0100002DH   LINE      CODE     ---       #763
      0100002FH   LINE      CODE     ---       #764
      01000031H   LINE      CODE     ---       #766
      01000033H   LINE      CODE     ---       #767
      01000035H   LINE      CODE     ---       #768
      01000038H   LINE      CODE     ---       #769
      0100003BH   LINE      CODE     ---       #770
      0100003EH   LINE      CODE     ---       #771
      01000041H   LINE      CODE     ---       #772
      01000044H   LINE      CODE     ---       #773
      01000047H   LINE      CODE     ---       #774
      01000058H   LINE      CODE     ---       #775
LX51 LINKER/LOCATER V4.66.97.0                                                        06/06/2023  14:37:28  PAGE 28


      01000058H   LINE      CODE     ---       #776
      0100005FH   LINE      CODE     ---       #777
      01000062H   LINE      CODE     ---       #778
      01000065H   LINE      CODE     ---       #779
      01000068H   LINE      CODE     ---       #780
      01000095H   LINE      CODE     ---       #781
      01000095H   LINE      CODE     ---       #782
      010000A5H   LINE      CODE     ---       #783
      010000B5H   LINE      CODE     ---       #784
      010000C4H   LINE      CODE     ---       #785
      010000D3H   LINE      CODE     ---       #786
      010000E2H   LINE      CODE     ---       #787
      010000F1H   LINE      CODE     ---       #788
      01000100H   LINE      CODE     ---       #789
      01000109H   LINE      CODE     ---       #790
      01000118H   LINE      CODE     ---       #791
      01000127H   LINE      CODE     ---       #792
      01000138H   LINE      CODE     ---       #793
      01000138H   LINE      CODE     ---       #794
      01000143H   LINE      CODE     ---       #795
      0100014EH   LINE      CODE     ---       #796
      01000159H   LINE      CODE     ---       #797
      0100016BH   LINE      CODE     ---       #798
      0100016BH   LINE      CODE     ---       #799
      0100016BH   LINE      CODE     ---       #800
      01000174H   LINE      CODE     ---       #801
      0100017AH   LINE      CODE     ---       #802
      01000181H   LINE      CODE     ---       #804
      0100018BH   LINE      CODE     ---       #805
      0100018BH   LINE      CODE     ---       #806
      0100018EH   LINE      CODE     ---       #807
      01000191H   LINE      CODE     ---       #808
      01000191H   LINE      CODE     ---       #810
      01000193H   LINE      CODE     ---       #811
      01000195H   LINE      CODE     ---       #812
      01000197H   LINE      CODE     ---       #813
      0100019AH   LINE      CODE     ---       #817
      0100019DH   LINE      CODE     ---       #818
      010001A0H   LINE      CODE     ---       #819
      010001A2H   LINE      CODE     ---       #820
      010001A7H   LINE      CODE     ---       #821
      010001ABH   LINE      CODE     ---       #823
      010001ADH   LINE      CODE     ---       #824
      010001ADH   LINE      CODE     ---       #825
      010001ADH   LINE      CODE     ---       #826
      010001BCH   LINE      CODE     ---       #827
      010001BCH   LINE      CODE     ---       #828
      010001C5H   LINE      CODE     ---       #829
      010001CEH   LINE      CODE     ---       #830
      010001D3H   LINE      CODE     ---       #831
      010001D9H   LINE      CODE     ---       #832
      010001D9H   LINE      CODE     ---       #833
      010001E2H   LINE      CODE     ---       #834
      010001E6H   LINE      CODE     ---       #835
      010001E6H   LINE      CODE     ---       #836
      010001E6H   LINE      CODE     ---       #837
      010001EDH   LINE      CODE     ---       #838
      010001EDH   LINE      CODE     ---       #839
      010001F3H   LINE      CODE     ---       #840
      010001FCH   LINE      CODE     ---       #841
      01000201H   LINE      CODE     ---       #842
      01000206H   LINE      CODE     ---       #843
      0100020FH   LINE      CODE     ---       #844
      01000211H   LINE      CODE     ---       #845
      01000216H   LINE      CODE     ---       #846
LX51 LINKER/LOCATER V4.66.97.0                                                        06/06/2023  14:37:28  PAGE 29


      0100021BH   LINE      CODE     ---       #847
      01000220H   LINE      CODE     ---       #848
      01000226H   LINE      CODE     ---       #849
      01000226H   LINE      CODE     ---       #850
      01000226H   LINE      CODE     ---       #851
      01000226H   LINE      CODE     ---       #852
      01000226H   LINE      CODE     ---       #853
      01000226H   LINE      CODE     ---       #854
      01000226H   LINE      CODE     ---       #855
      01000226H   LINE      CODE     ---       #856
      0100022BH   LINE      CODE     ---       #858
      0100022BH   LINE      CODE     ---       #859
      0100022BH   LINE      CODE     ---       #860
      0100022BH   LINE      CODE     ---       #861
      0100022BH   LINE      CODE     ---       #862
      0100022DH   LINE      CODE     ---       #863
      01000233H   LINE      CODE     ---       #864
      01000233H   LINE      CODE     ---       #865
      01000237H   LINE      CODE     ---       #866
      01000237H   LINE      CODE     ---       #867
      01000237H   LINE      CODE     ---       #868
      0100023EH   LINE      CODE     ---       #869
      0100023EH   LINE      CODE     ---       #870
      01000241H   LINE      CODE     ---       #872
      01000246H   LINE      CODE     ---       #873
      0100024BH   LINE      CODE     ---       #874
      0100024BH   LINE      CODE     ---       #875
      0100024BH   LINE      CODE     ---       #876
      0100024BH   LINE      CODE     ---       #877
      01000253H   LINE      CODE     ---       #878
      01000253H   LINE      CODE     ---       #879
      01000253H   LINE      CODE     ---       #880
      01000253H   LINE      CODE     ---       #881
      01000253H   LINE      CODE     ---       #882
      01000256H   LINE      CODE     ---       #883
      0100025FH   LINE      CODE     ---       #884
      0100025FH   LINE      CODE     ---       #885
      01000262H   LINE      CODE     ---       #886
      0100026EH   LINE      CODE     ---       #887
      01000275H   LINE      CODE     ---       #888
      0100027AH   LINE      CODE     ---       #889
      0100027DH   LINE      CODE     ---       #891
      01000285H   LINE      CODE     ---       #892
      01000285H   LINE      CODE     ---       #893
      01000285H   LINE      CODE     ---       #894
      0100028FH   LINE      CODE     ---       #895
      01000294H   LINE      CODE     ---       #896
      01000294H   LINE      CODE     ---       #897
      01000294H   LINE      CODE     ---       #898
      01000294H   LINE      CODE     ---       #899
      01000294H   LINE      CODE     ---       #900
      01000297H   LINE      CODE     ---       #902
      010002A9H   LINE      CODE     ---       #903
      010002A9H   LINE      CODE     ---       #904
      010002B1H   LINE      CODE     ---       #905
      010002BDH   LINE      CODE     ---       #906
      010002C0H   LINE      CODE     ---       #907
      010002CDH   LINE      CODE     ---       #908
      010002CDH   LINE      CODE     ---       #909
      010002DAH   LINE      CODE     ---       #910
      010002DDH   LINE      CODE     ---       #911
      010002ECH   LINE      CODE     ---       #912
      010002EFH   LINE      CODE     ---       #913
      010002FEH   LINE      CODE     ---       #914
      01000301H   LINE      CODE     ---       #915
LX51 LINKER/LOCATER V4.66.97.0                                                        06/06/2023  14:37:28  PAGE 30


      01000310H   LINE      CODE     ---       #916
      01000313H   LINE      CODE     ---       #917
      01000322H   LINE      CODE     ---       #918
      01000325H   LINE      CODE     ---       #919
      01000334H   LINE      CODE     ---       #920
      01000337H   LINE      CODE     ---       #921
      01000346H   LINE      CODE     ---       #922
      01000349H   LINE      CODE     ---       #923
      0100034EH   LINE      CODE     ---       #924
      01000350H   LINE      CODE     ---       #925
      01000350H   LINE      CODE     ---       #926
      01000350H   LINE      CODE     ---       #927
      01000356H   LINE      CODE     ---       #928
      01000359H   LINE      CODE     ---       #929
      01000359H   LINE      CODE     ---       #930
      01000359H   LINE      CODE     ---       #931
      0100035CH   LINE      CODE     ---       #932
      01000362H   LINE      CODE     ---       #933
      01000362H   LINE      CODE     ---       #934
      01000365H   LINE      CODE     ---       #935
      01000365H   LINE      CODE     ---       #936
      01000368H   LINE      CODE     ---       #937
      0100036BH   LINE      CODE     ---       #938
      0100036BH   LINE      CODE     ---       #939
      0100036EH   LINE      CODE     ---       #940
      01000371H   LINE      CODE     ---       #941
      0100037AH   LINE      CODE     ---       #942
      0100037AH   LINE      CODE     ---       #943
      0100037DH   LINE      CODE     ---       #944
      01000386H   LINE      CODE     ---       #945
      0100038BH   LINE      CODE     ---       #946
      01000390H   LINE      CODE     ---       #947
      01000393H   LINE      CODE     ---       #948
      0100039BH   LINE      CODE     ---       #949
      0100039BH   LINE      CODE     ---       #950
      0100039BH   LINE      CODE     ---       #951
      010003A5H   LINE      CODE     ---       #952
      010003AAH   LINE      CODE     ---       #953
      010003AAH   LINE      CODE     ---       #954
      010003AAH   LINE      CODE     ---       #955
      010003AAH   LINE      CODE     ---       #956
      010003AAH   LINE      CODE     ---       #957
      010003ADH   LINE      CODE     ---       #959
      010003BFH   LINE      CODE     ---       #960
      010003BFH   LINE      CODE     ---       #961
      010003C7H   LINE      CODE     ---       #962
      010003D3H   LINE      CODE     ---       #963
      010003D6H   LINE      CODE     ---       #964
      010003E2H   LINE      CODE     ---       #965
      010003E2H   LINE      CODE     ---       #966
      010003EFH   LINE      CODE     ---       #967
      010003F2H   LINE      CODE     ---       #968
      01000401H   LINE      CODE     ---       #969
      01000404H   LINE      CODE     ---       #970
      01000413H   LINE      CODE     ---       #971
      01000416H   LINE      CODE     ---       #972
      01000425H   LINE      CODE     ---       #973
      01000428H   LINE      CODE     ---       #974
      01000437H   LINE      CODE     ---       #975
      0100043AH   LINE      CODE     ---       #976
      01000449H   LINE      CODE     ---       #977
      0100044CH   LINE      CODE     ---       #978
      0100045BH   LINE      CODE     ---       #979
      0100045EH   LINE      CODE     ---       #980
      01000463H   LINE      CODE     ---       #981
LX51 LINKER/LOCATER V4.66.97.0                                                        06/06/2023  14:37:28  PAGE 31


      01000465H   LINE      CODE     ---       #982
      01000465H   LINE      CODE     ---       #983
      01000465H   LINE      CODE     ---       #984
      0100046BH   LINE      CODE     ---       #985
      0100046BH   LINE      CODE     ---       #986
      0100046BH   LINE      CODE     ---       #987
      0100046BH   LINE      CODE     ---       #988
      0100046BH   LINE      CODE     ---       #989
      0100046BH   LINE      CODE     ---       #990
      0100046EH   LINE      CODE     ---       #991
      0100046EH   LINE      CODE     ---       #992
      01000471H   LINE      CODE     ---       #993
      01000471H   LINE      CODE     ---       #994
      01000471H   LINE      CODE     ---       #995
      01000471H   LINE      CODE     ---       #996
      01000471H   LINE      CODE     ---       #997
      01000474H   LINE      CODE     ---       #998
      0100047DH   LINE      CODE     ---       #999
      0100047DH   LINE      CODE     ---       #1000
      01000480H   LINE      CODE     ---       #1001
      01000489H   LINE      CODE     ---       #1002
      0100048EH   LINE      CODE     ---       #1003
      01000493H   LINE      CODE     ---       #1004
      01000496H   LINE      CODE     ---       #1005
      0100049EH   LINE      CODE     ---       #1006
      0100049EH   LINE      CODE     ---       #1007
      0100049EH   LINE      CODE     ---       #1008
      010004A8H   LINE      CODE     ---       #1009
      010004ADH   LINE      CODE     ---       #1010
      010004ADH   LINE      CODE     ---       #1011
      010004ADH   LINE      CODE     ---       #1012
      010004ADH   LINE      CODE     ---       #1013
      010004ADH   LINE      CODE     ---       #1014
      010004B0H   LINE      CODE     ---       #1016
      010004C2H   LINE      CODE     ---       #1017
      010004C2H   LINE      CODE     ---       #1018
      010004CAH   LINE      CODE     ---       #1019
      010004D6H   LINE      CODE     ---       #1020
      010004D9H   LINE      CODE     ---       #1021
      010004E5H   LINE      CODE     ---       #1022
      010004E5H   LINE      CODE     ---       #1023
      010004F2H   LINE      CODE     ---       #1024
      010004F5H   LINE      CODE     ---       #1025
      01000504H   LINE      CODE     ---       #1026
      01000507H   LINE      CODE     ---       #1027
      01000516H   LINE      CODE     ---       #1028
      01000519H   LINE      CODE     ---       #1029
      01000528H   LINE      CODE     ---       #1030
      0100052BH   LINE      CODE     ---       #1031
      0100053AH   LINE      CODE     ---       #1032
      0100053DH   LINE      CODE     ---       #1033
      0100054CH   LINE      CODE     ---       #1034
      0100054FH   LINE      CODE     ---       #1035
      0100055EH   LINE      CODE     ---       #1036
      01000561H   LINE      CODE     ---       #1037
      01000566H   LINE      CODE     ---       #1038
      01000568H   LINE      CODE     ---       #1039
      01000568H   LINE      CODE     ---       #1040
      01000568H   LINE      CODE     ---       #1041
      0100056EH   LINE      CODE     ---       #1042
      0100056EH   LINE      CODE     ---       #1043
      0100056EH   LINE      CODE     ---       #1044
      0100056EH   LINE      CODE     ---       #1045
      0100056EH   LINE      CODE     ---       #1046
      0100056EH   LINE      CODE     ---       #1047
LX51 LINKER/LOCATER V4.66.97.0                                                        06/06/2023  14:37:28  PAGE 32


      01000571H   LINE      CODE     ---       #1048
      01000574H   LINE      CODE     ---       #1049
      01000577H   LINE      CODE     ---       #1050
      01000577H   LINE      CODE     ---       #1051
      01000577H   LINE      CODE     ---       #1052
      01000577H   LINE      CODE     ---       #1053
      01000577H   LINE      CODE     ---       #1054
      0100057AH   LINE      CODE     ---       #1055
      01000583H   LINE      CODE     ---       #1056
      01000583H   LINE      CODE     ---       #1057
      01000586H   LINE      CODE     ---       #1058
      01000592H   LINE      CODE     ---       #1059
      01000598H   LINE      CODE     ---       #1060
      0100059DH   LINE      CODE     ---       #1061
      010005A0H   LINE      CODE     ---       #1062
      010005A8H   LINE      CODE     ---       #1063
      010005A8H   LINE      CODE     ---       #1064
      010005A8H   LINE      CODE     ---       #1065
      010005B2H   LINE      CODE     ---       #1066
      010005B7H   LINE      CODE     ---       #1067
      010005B7H   LINE      CODE     ---       #1068
      010005B7H   LINE      CODE     ---       #1069
      010005B7H   LINE      CODE     ---       #1070
      010005B7H   LINE      CODE     ---       #1071
      010005BAH   LINE      CODE     ---       #1073
      010005CCH   LINE      CODE     ---       #1074
      010005CCH   LINE      CODE     ---       #1075
      010005D4H   LINE      CODE     ---       #1076
      010005E0H   LINE      CODE     ---       #1077
      010005E3H   LINE      CODE     ---       #1078
      010005F0H   LINE      CODE     ---       #1079
      010005F0H   LINE      CODE     ---       #1080
      010005FDH   LINE      CODE     ---       #1081
      01000600H   LINE      CODE     ---       #1082
      0100060FH   LINE      CODE     ---       #1083
      01000612H   LINE      CODE     ---       #1084
      01000621H   LINE      CODE     ---       #1085
      01000624H   LINE      CODE     ---       #1086
      01000633H   LINE      CODE     ---       #1087
      01000636H   LINE      CODE     ---       #1088
      01000645H   LINE      CODE     ---       #1089
      01000648H   LINE      CODE     ---       #1090
      01000657H   LINE      CODE     ---       #1091
      0100065AH   LINE      CODE     ---       #1092
      01000669H   LINE      CODE     ---       #1093
      0100066CH   LINE      CODE     ---       #1094
      01000671H   LINE      CODE     ---       #1095
      01000673H   LINE      CODE     ---       #1096
      01000673H   LINE      CODE     ---       #1097
      01000673H   LINE      CODE     ---       #1098
      01000679H   LINE      CODE     ---       #1099
      01000679H   LINE      CODE     ---       #1100
      01000679H   LINE      CODE     ---       #1101
      01000679H   LINE      CODE     ---       #1102
      01000679H   LINE      CODE     ---       #1103
      01000679H   LINE      CODE     ---       #1104
      0100067CH   LINE      CODE     ---       #1105
      0100067FH   LINE      CODE     ---       #1106
      0100067FH   LINE      CODE     ---       #1107
      0100067FH   LINE      CODE     ---       #1108
      0100067FH   LINE      CODE     ---       #1109
      0100067FH   LINE      CODE     ---       #1110
      01000682H   LINE      CODE     ---       #1111
      0100068BH   LINE      CODE     ---       #1112
      0100068BH   LINE      CODE     ---       #1113
LX51 LINKER/LOCATER V4.66.97.0                                                        06/06/2023  14:37:28  PAGE 33


      0100068EH   LINE      CODE     ---       #1114
      010006A0H   LINE      CODE     ---       #1115
      010006A6H   LINE      CODE     ---       #1116
      010006ABH   LINE      CODE     ---       #1117
      010006AEH   LINE      CODE     ---       #1118
      010006B6H   LINE      CODE     ---       #1119
      010006B6H   LINE      CODE     ---       #1120
      010006C5H   LINE      CODE     ---       #1121
      010006CAH   LINE      CODE     ---       #1122
      010006CFH   LINE      CODE     ---       #1123
      010006D9H   LINE      CODE     ---       #1124
      010006E3H   LINE      CODE     ---       #1125
      010006F5H   LINE      CODE     ---       #1126
      01000703H   LINE      CODE     ---       #1127
      01000711H   LINE      CODE     ---       #1129
      01000726H   LINE      CODE     ---       #1130
      01000726H   LINE      CODE     ---       #1131
      0100072EH   LINE      CODE     ---       #1132
      0100073AH   LINE      CODE     ---       #1133
      0100073DH   LINE      CODE     ---       #1134
      0100074AH   LINE      CODE     ---       #1135
      0100074AH   LINE      CODE     ---       #1136
      01000762H   LINE      CODE     ---       #1137
      01000765H   LINE      CODE     ---       #1138
      0100077FH   LINE      CODE     ---       #1139
      01000782H   LINE      CODE     ---       #1140
      0100079CH   LINE      CODE     ---       #1141
      0100079FH   LINE      CODE     ---       #1142
      010007B9H   LINE      CODE     ---       #1143
      010007BCH   LINE      CODE     ---       #1144
      010007D6H   LINE      CODE     ---       #1145
      010007D9H   LINE      CODE     ---       #1146
      010007F3H   LINE      CODE     ---       #1147
      010007F6H   LINE      CODE     ---       #1148
      01000814H   LINE      CODE     ---       #1149
      01000817H   LINE      CODE     ---       #1150
      0100081CH   LINE      CODE     ---       #1151
      0100081EH   LINE      CODE     ---       #1152
      0100081EH   LINE      CODE     ---       #1153
      0100081EH   LINE      CODE     ---       #1154
      01000824H   LINE      CODE     ---       #1155
      01000824H   LINE      CODE     ---       #1156
      01000824H   LINE      CODE     ---       #1157
      01000824H   LINE      CODE     ---       #1158
      01000824H   LINE      CODE     ---       #1159
      01000824H   LINE      CODE     ---       #1160
      01000827H   LINE      CODE     ---       #1161
      0100082AH   LINE      CODE     ---       #1162
      0100082AH   LINE      CODE     ---       #1163
      0100082AH   LINE      CODE     ---       #1164
      0100082DH   LINE      CODE     ---       #1165
      01000833H   LINE      CODE     ---       #1166
      01000836H   LINE      CODE     ---       #1167
      0100083FH   LINE      CODE     ---       #1168
      0100083FH   LINE      CODE     ---       #1169
      01000840H   LINE      CODE     ---       #1170
      01000840H   LINE      CODE     ---       #1171
      01000840H   LINE      CODE     ---       #1172
      01000840H   LINE      CODE     ---       #1173
      01000840H   LINE      CODE     ---       #1174
      01000840H   LINE      CODE     ---       #1175
      01000840H   LINE      CODE     ---       #1176
      01000843H   LINE      CODE     ---       #1177
      01000843H   LINE      CODE     ---       #1178
      01000846H   LINE      CODE     ---       #1179
LX51 LINKER/LOCATER V4.66.97.0                                                        06/06/2023  14:37:28  PAGE 34


      0100084AH   LINE      CODE     ---       #1180
      0100084AH   LINE      CODE     ---       #1181
      0100084AH   LINE      CODE     ---       #1182
      0100084AH   LINE      CODE     ---       #1183
      0100084AH   LINE      CODE     ---       #1184
      0100084DH   LINE      CODE     ---       #1185
      01000852H   LINE      CODE     ---       #1186
      01000856H   LINE      CODE     ---       #1187
      01000856H   LINE      CODE     ---       #1188
      01000856H   LINE      CODE     ---       #1189
      01000856H   LINE      CODE     ---       #1190
      01000859H   LINE      CODE     ---       #1191
      01000863H   LINE      CODE     ---       #1192
      0100086CH   LINE      CODE     ---       #1193
      01000886H   LINE      CODE     ---       #1194
      010008A7H   LINE      CODE     ---       #1195
      010008A9H   LINE      CODE     ---       #1196
      010008B1H   LINE      CODE     ---       #1197
      010008BBH   LINE      CODE     ---       #1198
      010008C0H   LINE      CODE     ---       #1199
      010008C9H   LINE      CODE     ---       #1200
      010008CEH   LINE      CODE     ---       #1201
      010008D7H   LINE      CODE     ---       #1202
      010008DCH   LINE      CODE     ---       #1203
      010008DCH   LINE      CODE     ---       #1204
      010008E5H   LINE      CODE     ---       #1205
      010008EAH   LINE      CODE     ---       #1206
      010008EFH   LINE      CODE     ---       #1207
      010008F4H   LINE      CODE     ---       #1208
      010008F9H   LINE      CODE     ---       #1209
      010008FEH   LINE      CODE     ---       #1210
      010008FEH   LINE      CODE     ---       #1211
      01000901H   LINE      CODE     ---       #1212
      01000908H   LINE      CODE     ---       #1213
      0100090BH   LINE      CODE     ---       #1214
      01000911H   LINE      CODE     ---       #1215
      01000914H   LINE      CODE     ---       #1216
      0100091AH   LINE      CODE     ---       #1217
      0100091DH   LINE      CODE     ---       #1218
      01000925H   LINE      CODE     ---       #1219
      01000928H   LINE      CODE     ---       #1220
      0100092EH   LINE      CODE     ---       #1221
      01000931H   LINE      CODE     ---       #1222
      01000937H   LINE      CODE     ---       #1223
      0100093AH   LINE      CODE     ---       #1224
      01000940H   LINE      CODE     ---       #1225
      01000943H   LINE      CODE     ---       #1226
      01000946H   LINE      CODE     ---       #1227
      01000946H   LINE      CODE     ---       #1228
      0100094BH   LINE      CODE     ---       #1229
      0100094BH   LINE      CODE     ---       #1230
      01000954H   LINE      CODE     ---       #1231
      01000959H   LINE      CODE     ---       #1232
      0100095EH   LINE      CODE     ---       #1233
      01000963H   LINE      CODE     ---       #1234
      01000968H   LINE      CODE     ---       #1235
      0100096DH   LINE      CODE     ---       #1236
      0100096DH   LINE      CODE     ---       #1238
      01000970H   LINE      CODE     ---       #1239
      01000977H   LINE      CODE     ---       #1240
      0100097AH   LINE      CODE     ---       #1241
      01000980H   LINE      CODE     ---       #1242
      01000983H   LINE      CODE     ---       #1243
      01000989H   LINE      CODE     ---       #1244
      0100098CH   LINE      CODE     ---       #1245
LX51 LINKER/LOCATER V4.66.97.0                                                        06/06/2023  14:37:28  PAGE 35


      01000994H   LINE      CODE     ---       #1246
      01000997H   LINE      CODE     ---       #1247
      0100099DH   LINE      CODE     ---       #1248
      010009A0H   LINE      CODE     ---       #1249
      010009A6H   LINE      CODE     ---       #1250
      010009A9H   LINE      CODE     ---       #1251
      010009B1H   LINE      CODE     ---       #1252
      010009B4H   LINE      CODE     ---       #1253
      010009B7H   LINE      CODE     ---       #1255
      010009B7H   LINE      CODE     ---       #1256
      010009BCH   LINE      CODE     ---       #1257
      010009BCH   LINE      CODE     ---       #1258
      010009C5H   LINE      CODE     ---       #1259
      010009CAH   LINE      CODE     ---       #1260
      010009CFH   LINE      CODE     ---       #1261
      010009D4H   LINE      CODE     ---       #1262
      010009D9H   LINE      CODE     ---       #1263
      010009DEH   LINE      CODE     ---       #1264
      010009E3H   LINE      CODE     ---       #1265
      010009ECH   LINE      CODE     ---       #1266
      010009F3H   LINE      CODE     ---       #1267
      010009F6H   LINE      CODE     ---       #1268
      010009FCH   LINE      CODE     ---       #1269
      010009FFH   LINE      CODE     ---       #1270
      01000A05H   LINE      CODE     ---       #1271
      01000A08H   LINE      CODE     ---       #1272
      01000A10H   LINE      CODE     ---       #1273
      01000A13H   LINE      CODE     ---       #1274
      01000A19H   LINE      CODE     ---       #1275
      01000A1CH   LINE      CODE     ---       #1276
      01000A22H   LINE      CODE     ---       #1277
      01000A25H   LINE      CODE     ---       #1278
      01000A2DH   LINE      CODE     ---       #1279
      01000A30H   LINE      CODE     ---       #1280
      01000A33H   LINE      CODE     ---       #1281
      01000A33H   LINE      CODE     ---       #1282
      01000A38H   LINE      CODE     ---       #1283
      01000A38H   LINE      CODE     ---       #1284
      01000A41H   LINE      CODE     ---       #1285
      01000A46H   LINE      CODE     ---       #1286
      01000A49H   LINE      CODE     ---       #1287
      01000A4CH   LINE      CODE     ---       #1288
      01000A51H   LINE      CODE     ---       #1289
      01000A56H   LINE      CODE     ---       #1290
      01000A56H   LINE      CODE     ---       #1291
      01000A59H   LINE      CODE     ---       #1292
      01000A60H   LINE      CODE     ---       #1293
      01000A63H   LINE      CODE     ---       #1294
      01000A69H   LINE      CODE     ---       #1295
      01000A6CH   LINE      CODE     ---       #1296
      01000A72H   LINE      CODE     ---       #1297
      01000A75H   LINE      CODE     ---       #1298
      01000A7DH   LINE      CODE     ---       #1299
      01000A80H   LINE      CODE     ---       #1300
      01000A86H   LINE      CODE     ---       #1301
      01000A89H   LINE      CODE     ---       #1302
      01000A8FH   LINE      CODE     ---       #1303
      01000A92H   LINE      CODE     ---       #1304
      01000A9AH   LINE      CODE     ---       #1305
      01000A9DH   LINE      CODE     ---       #1307
      01000AA0H   LINE      CODE     ---       #1308
      01000AA0H   LINE      CODE     ---       #1309
      01000AA8H   LINE      CODE     ---       #1310
      01000AA8H   LINE      CODE     ---       #1311
      01000AB1H   LINE      CODE     ---       #1312
LX51 LINKER/LOCATER V4.66.97.0                                                        06/06/2023  14:37:28  PAGE 36


      01000AB6H   LINE      CODE     ---       #1313
      01000ABBH   LINE      CODE     ---       #1314
      01000ABEH   LINE      CODE     ---       #1315
      01000AC3H   LINE      CODE     ---       #1316
      01000AC8H   LINE      CODE     ---       #1317
      01000AC8H   LINE      CODE     ---       #1318
      01000ACBH   LINE      CODE     ---       #1319
      01000AD2H   LINE      CODE     ---       #1320
      01000ADBH   LINE      CODE     ---       #1321
      01000AE1H   LINE      CODE     ---       #1322
      01000AEAH   LINE      CODE     ---       #1323
      01000AF0H   LINE      CODE     ---       #1324
      01000AF9H   LINE      CODE     ---       #1325
      01000B01H   LINE      CODE     ---       #1326
      01000B0AH   LINE      CODE     ---       #1327
      01000B10H   LINE      CODE     ---       #1328
      01000B19H   LINE      CODE     ---       #1329
      01000B1FH   LINE      CODE     ---       #1330
      01000B28H   LINE      CODE     ---       #1331
      01000B30H   LINE      CODE     ---       #1332
      01000B39H   LINE      CODE     ---       #1333
      01000B42H   LINE      CODE     ---       #1334
      01000B42H   LINE      CODE     ---       #1336
      01000B42H   LINE      CODE     ---       #1337
      01000B51H   LINE      CODE     ---       #1338
      01000B54H   LINE      CODE     ---       #1339
      01000B54H   LINE      CODE     ---       #1341
      01000B89H   LINE      CODE     ---       #1342
      01000B89H   LINE      CODE     ---       #1343
      01000B89H   LINE      CODE     ---       #1345
      01000B8AH   LINE      CODE     ---       #1346
      01000B8DH   LINE      CODE     ---       #1347
      01000B8DH   LINE      CODE     ---       #1348
      01000B90H   LINE      CODE     ---       #1349
      01000B97H   LINE      CODE     ---       #1350
      01000B9AH   LINE      CODE     ---       #1351
      01000BA1H   LINE      CODE     ---       #1352
      01000BA8H   LINE      CODE     ---       #1353
      01000BADH   LINE      CODE     ---       #1354
      01000BB4H   LINE      CODE     ---       #1355
      01000BB9H   LINE      CODE     ---       #1356
      01000BC0H   LINE      CODE     ---       #1357
      01000BC5H   LINE      CODE     ---       #1358
      01000BCCH   LINE      CODE     ---       #1359
      01000BD1H   LINE      CODE     ---       #1362
      01000BDEH   LINE      CODE     ---       #1363
      01000BEAH   LINE      CODE     ---       #1364
      01000BF2H   LINE      CODE     ---       #1365
      01000BFAH   LINE      CODE     ---       #1366
      01000C01H   LINE      CODE     ---       #1367
      01000C09H   LINE      CODE     ---       #1369
      01000C14H   LINE      CODE     ---       #1370
      01000C1FH   LINE      CODE     ---       #1371
      01000C24H   LINE      CODE     ---       #1372
      01000C29H   LINE      CODE     ---       #1373
      01000C2EH   LINE      CODE     ---       #1374
      01000C33H   LINE      CODE     ---       #1375
      01000C38H   LINE      CODE     ---       #1376
      01000C44H   LINE      CODE     ---       #1378
      01000C4CH   LINE      CODE     ---       #1379
      01000C5AH   LINE      CODE     ---       #1380
      01000C65H   LINE      CODE     ---       #1381
      01000C65H   LINE      CODE     ---       #1383
      01000C68H   LINE      CODE     ---       #1384
      01000C6BH   LINE      CODE     ---       #1385
LX51 LINKER/LOCATER V4.66.97.0                                                        06/06/2023  14:37:28  PAGE 37


      01000C76H   LINE      CODE     ---       #1386
      01000C76H   LINE      CODE     ---       #1387
      01000C78H   LINE      CODE     ---       #1388
      01000C7BH   LINE      CODE     ---       #1389
      01000C7EH   LINE      CODE     ---       #1390
      01000C7EH   LINE      CODE     ---       #1391
      01000C7EH   LINE      CODE     ---       #1392
      01000C81H   LINE      CODE     ---       #1393
      01000C81H   LINE      CODE     ---       #1394
      01000C8EH   LINE      CODE     ---       #1395
      01000CB5H   LINE      CODE     ---       #1396
      01000CB5H   LINE      CODE     ---       #1397
      01000CBAH   LINE      CODE     ---       #1398
      01000CBFH   LINE      CODE     ---       #1399
      01000CC4H   LINE      CODE     ---       #1400
      01000CC9H   LINE      CODE     ---       #1401
      01000CCEH   LINE      CODE     ---       #1402
      01000CD3H   LINE      CODE     ---       #1403
      01000CD8H   LINE      CODE     ---       #1404
      01000CDBH   LINE      CODE     ---       #1405
      01000CDBH   LINE      CODE     ---       #1407
      01000CE3H   LINE      CODE     ---       #1408
      01000CE9H   LINE      CODE     ---       #1409
      01000CF5H   LINE      CODE     ---       #1411
      01000D01H   LINE      CODE     ---       #1412
      01000D0DH   LINE      CODE     ---       #1413
      01000D19H   LINE      CODE     ---       #1414
      01000D25H   LINE      CODE     ---       #1415
      01000D31H   LINE      CODE     ---       #1417
      01000D31H   LINE      CODE     ---       #1418
      01000D34H   LINE      CODE     ---       #1419
      01000D3BH   LINE      CODE     ---       #1420
      01000D43H   LINE      CODE     ---       #1421
      01000D48H   LINE      CODE     ---       #1422
      01000D54H   LINE      CODE     ---       #1423
      01000D5BH   LINE      CODE     ---       #1424
      01000D67H   LINE      CODE     ---       #1426
      01000D6CH   LINE      CODE     ---       #1427
      01000D71H   LINE      CODE     ---       #1428
      01000D76H   LINE      CODE     ---       #1429
      01000D7BH   LINE      CODE     ---       #1430
      01000D87H   LINE      CODE     ---       #1431
      01000D91H   LINE      CODE     ---       #1432
      01000D96H   LINE      CODE     ---       #1433
      01000DA2H   LINE      CODE     ---       #1434
      01000DACH   LINE      CODE     ---       #1435
      01000DB1H   LINE      CODE     ---       #1437
      01000DB1H   LINE      CODE     ---       #1438
      01000DB1H   LINE      CODE     ---       #1439
      01000DB1H   LINE      CODE     ---       #1440
      01000DB4H   LINE      CODE     ---       #1441
      01000DB4H   LINE      CODE     ---       #1442
      01000DB4H   LINE      CODE     ---       #1443
      01000DC3H   LINE      CODE     ---       #1444
      01000DC3H   LINE      CODE     ---       #1445
      01000DC8H   LINE      CODE     ---       #1446
      01000DCDH   LINE      CODE     ---       #1447
      01000DD2H   LINE      CODE     ---       #1448
      01000DD5H   LINE      CODE     ---       #1449
      01000DD5H   LINE      CODE     ---       #1451
      01000DDAH   LINE      CODE     ---       #1452
      01000DE2H   LINE      CODE     ---       #1453
      01000DEFH   LINE      CODE     ---       #1454
      01000E03H   LINE      CODE     ---       #1455
      01000E08H   LINE      CODE     ---       #1456
LX51 LINKER/LOCATER V4.66.97.0                                                        06/06/2023  14:37:28  PAGE 38


      01000E14H   LINE      CODE     ---       #1457
      01000E28H   LINE      CODE     ---       #1458
      01000E2DH   LINE      CODE     ---       #1459
      01000E39H   LINE      CODE     ---       #1460
      01000E4DH   LINE      CODE     ---       #1462
      01000E55H   LINE      CODE     ---       #1463
      01000E5DH   LINE      CODE     ---       #1464
      01000E64H   LINE      CODE     ---       #1465
      01000E67H   LINE      CODE     ---       #1466
      01000E67H   LINE      CODE     ---       #1467
      01000E6AH   LINE      CODE     ---       #1468
      01000E77H   LINE      CODE     ---       #1469
      01000E77H   LINE      CODE     ---       #1470
      01000E7CH   LINE      CODE     ---       #1471
      01000E81H   LINE      CODE     ---       #1472
      01000E84H   LINE      CODE     ---       #1473
      01000E84H   LINE      CODE     ---       #1474
      01000E8EH   LINE      CODE     ---       #1475
      01000E9CH   LINE      CODE     ---       #1476
      01000EA6H   LINE      CODE     ---       #1477
      01000EACH   LINE      CODE     ---       #1478
      01000EB6H   LINE      CODE     ---       #1479
      01000EBDH   LINE      CODE     ---       #1480
      01000EC0H   LINE      CODE     ---       #1481
      01000EC0H   LINE      CODE     ---       #1482
      01000EC3H   LINE      CODE     ---       #1483
      01000ED0H   LINE      CODE     ---       #1484
      01000ED0H   LINE      CODE     ---       #1485
      01000ED5H   LINE      CODE     ---       #1486
      01000EDAH   LINE      CODE     ---       #1487
      01000EDDH   LINE      CODE     ---       #1488
      01000EDDH   LINE      CODE     ---       #1490
      01000EDDH   LINE      CODE     ---       #1491
      01000EE0H   LINE      CODE     ---       #1492
      01000EE8H   LINE      CODE     ---       #1493
      01000EF6H   LINE      CODE     ---       #1494
      01000F00H   LINE      CODE     ---       #1495
      01000F09H   LINE      CODE     ---       #1496
      01000F17H   LINE      CODE     ---       #1497
      01000F25H   LINE      CODE     ---       #1498
      01000F28H   LINE      CODE     ---       #1499
      01000F28H   LINE      CODE     ---       #1500
      01000F28H   LINE      CODE     ---       #1501
      01000F37H   LINE      CODE     ---       #1502
      01000F37H   LINE      CODE     ---       #1503
      01000F3CH   LINE      CODE     ---       #1504
      01000F41H   LINE      CODE     ---       #1505
      01000F46H   LINE      CODE     ---       #1506
      01000F49H   LINE      CODE     ---       #1507
      01000F49H   LINE      CODE     ---       #1508
      01000F49H   LINE      CODE     ---       #1509
      01000F49H   LINE      CODE     ---       #1510
      01000F52H   LINE      CODE     ---       #1511
      01000F57H   LINE      CODE     ---       #1512
      01000F57H   LINE      CODE     ---       #1513
      01000F57H   LINE      CODE     ---       #1514
      01000F5DH   LINE      CODE     ---       #1515
      01000F5FH   LINE      CODE     ---       #1517
      01000F5FH   LINE      CODE     ---       #1518
      01000F5FH   LINE      CODE     ---       #1519
      01000F68H   LINE      CODE     ---       #1520
      01000F68H   LINE      CODE     ---       #1521
      01000F77H   LINE      CODE     ---       #1522
      01000F77H   LINE      CODE     ---       #1523
      01000F77H   LINE      CODE     ---       #1524
LX51 LINKER/LOCATER V4.66.97.0                                                        06/06/2023  14:37:28  PAGE 39


      01000F77H   LINE      CODE     ---       #1525
      01000F7DH   LINE      CODE     ---       #1526
      01000F7DH   LINE      CODE     ---       #1527
      01000F7FH   LINE      CODE     ---       #1528
      01000F7FH   LINE      CODE     ---       #1529
      01000F7FH   LINE      CODE     ---       #1530
      01000F87H   LINE      CODE     ---       #1531
      01000F8AH   LINE      CODE     ---       #1532
      01000F8CH   LINE      CODE     ---       #1533
      01000F8CH   LINE      CODE     ---       #1534
      01000F8CH   LINE      CODE     ---       #1535
      01000F8CH   LINE      CODE     ---       #1536
      01000F92H   LINE      CODE     ---       #1537
      01000F94H   LINE      CODE     ---       #1538
      01000F94H   LINE      CODE     ---       #1539
      01000F94H   LINE      CODE     ---       #1540
      01000F94H   LINE      CODE     ---       #1541
      01000F9DH   LINE      CODE     ---       #1542
      01000F9DH   LINE      CODE     ---       #1543
      01000F9DH   LINE      CODE     ---       #1544
      01000FA5H   LINE      CODE     ---       #1545
      01000FADH   LINE      CODE     ---       #1546
      01000FB0H   LINE      CODE     ---       #1547
      01000FB8H   LINE      CODE     ---       #1548
      01000FC3H   LINE      CODE     ---       #1549
      01000FC6H   LINE      CODE     ---       #1550
      01000FC6H   LINE      CODE     ---       #1551
      01000FC6H   LINE      CODE     ---       #1552
      01000FD5H   LINE      CODE     ---       #1553
      01000FD5H   LINE      CODE     ---       #1554
      01000FDAH   LINE      CODE     ---       #1555
      01000FDFH   LINE      CODE     ---       #1556
      01000FE4H   LINE      CODE     ---       #1557
      01000FE7H   LINE      CODE     ---       #1558
      01000FE7H   LINE      CODE     ---       #1559
      01000FE7H   LINE      CODE     ---       #1560
      01000FE7H   LINE      CODE     ---       #1561
      01000FF0H   LINE      CODE     ---       #1562
      01000FF5H   LINE      CODE     ---       #1563
      01000FF5H   LINE      CODE     ---       #1564
      01000FF5H   LINE      CODE     ---       #1565
      01000FFBH   LINE      CODE     ---       #1566
      01000FFDH   LINE      CODE     ---       #1568
      01000FFDH   LINE      CODE     ---       #1569
      01000FFDH   LINE      CODE     ---       #1570
      01001006H   LINE      CODE     ---       #1571
      01001006H   LINE      CODE     ---       #1572
      01001015H   LINE      CODE     ---       #1573
      01001015H   LINE      CODE     ---       #1574
      01001015H   LINE      CODE     ---       #1575
      01001015H   LINE      CODE     ---       #1576
      0100101BH   LINE      CODE     ---       #1577
      0100101BH   LINE      CODE     ---       #1578
      0100101DH   LINE      CODE     ---       #1579
      0100101DH   LINE      CODE     ---       #1580
      0100101DH   LINE      CODE     ---       #1581
      01001023H   LINE      CODE     ---       #1582
      01001026H   LINE      CODE     ---       #1583
      01001028H   LINE      CODE     ---       #1584
      01001028H   LINE      CODE     ---       #1585
      01001028H   LINE      CODE     ---       #1586
      01001028H   LINE      CODE     ---       #1587
      0100102EH   LINE      CODE     ---       #1588
      01001030H   LINE      CODE     ---       #1589
      01001030H   LINE      CODE     ---       #1590
LX51 LINKER/LOCATER V4.66.97.0                                                        06/06/2023  14:37:28  PAGE 40


      01001030H   LINE      CODE     ---       #1591
      01001030H   LINE      CODE     ---       #1592
      01001039H   LINE      CODE     ---       #1593
      01001039H   LINE      CODE     ---       #1594
      01001039H   LINE      CODE     ---       #1595
      01001041H   LINE      CODE     ---       #1596
      01001049H   LINE      CODE     ---       #1597
      0100104CH   LINE      CODE     ---       #1598
      01001054H   LINE      CODE     ---       #1599
      0100105FH   LINE      CODE     ---       #1600
      01001062H   LINE      CODE     ---       #1601
      01001062H   LINE      CODE     ---       #1602
      01001062H   LINE      CODE     ---       #1603
      01001071H   LINE      CODE     ---       #1604
      01001071H   LINE      CODE     ---       #1605
      01001076H   LINE      CODE     ---       #1606
      0100107BH   LINE      CODE     ---       #1607
      01001080H   LINE      CODE     ---       #1608
      01001083H   LINE      CODE     ---       #1609
      01001083H   LINE      CODE     ---       #1610
      01001083H   LINE      CODE     ---       #1611
      01001083H   LINE      CODE     ---       #1612
      0100108CH   LINE      CODE     ---       #1613
      01001091H   LINE      CODE     ---       #1614
      01001091H   LINE      CODE     ---       #1615
      01001091H   LINE      CODE     ---       #1616
      01001097H   LINE      CODE     ---       #1617
      01001099H   LINE      CODE     ---       #1619
      01001099H   LINE      CODE     ---       #1620
      01001099H   LINE      CODE     ---       #1621
      010010A2H   LINE      CODE     ---       #1622
      010010A2H   LINE      CODE     ---       #1623
      010010B1H   LINE      CODE     ---       #1624
      010010B1H   LINE      CODE     ---       #1625
      010010B1H   LINE      CODE     ---       #1626
      010010B1H   LINE      CODE     ---       #1627
      010010B7H   LINE      CODE     ---       #1628
      010010B7H   LINE      CODE     ---       #1629
      010010B9H   LINE      CODE     ---       #1630
      010010B9H   LINE      CODE     ---       #1631
      010010B9H   LINE      CODE     ---       #1632
      010010BFH   LINE      CODE     ---       #1633
      010010C2H   LINE      CODE     ---       #1634
      010010C4H   LINE      CODE     ---       #1635
      010010C4H   LINE      CODE     ---       #1636
      010010C4H   LINE      CODE     ---       #1637
      010010C4H   LINE      CODE     ---       #1638
      010010CAH   LINE      CODE     ---       #1639
      010010CCH   LINE      CODE     ---       #1640
      010010CCH   LINE      CODE     ---       #1641
      010010CCH   LINE      CODE     ---       #1642
      010010CCH   LINE      CODE     ---       #1643
      010010D5H   LINE      CODE     ---       #1644
      010010D5H   LINE      CODE     ---       #1645
      010010D5H   LINE      CODE     ---       #1646
      010010DDH   LINE      CODE     ---       #1647
      010010E5H   LINE      CODE     ---       #1648
      010010E8H   LINE      CODE     ---       #1649
      010010F0H   LINE      CODE     ---       #1650
      010010FBH   LINE      CODE     ---       #1651
      010010FEH   LINE      CODE     ---       #1652
      010010FEH   LINE      CODE     ---       #1653
      010010FEH   LINE      CODE     ---       #1654
      0100110DH   LINE      CODE     ---       #1655
      0100110DH   LINE      CODE     ---       #1656
LX51 LINKER/LOCATER V4.66.97.0                                                        06/06/2023  14:37:28  PAGE 41


      01001112H   LINE      CODE     ---       #1657
      01001117H   LINE      CODE     ---       #1658
      0100111CH   LINE      CODE     ---       #1659
      0100111FH   LINE      CODE     ---       #1660
      0100111FH   LINE      CODE     ---       #1661
      0100111FH   LINE      CODE     ---       #1662
      0100111FH   LINE      CODE     ---       #1663
      01001128H   LINE      CODE     ---       #1664
      0100112DH   LINE      CODE     ---       #1665
      0100112DH   LINE      CODE     ---       #1666
      0100112DH   LINE      CODE     ---       #1667
      01001133H   LINE      CODE     ---       #1668
      01001135H   LINE      CODE     ---       #1670
      01001135H   LINE      CODE     ---       #1671
      01001135H   LINE      CODE     ---       #1672
      0100113EH   LINE      CODE     ---       #1673
      0100113EH   LINE      CODE     ---       #1674
      0100114DH   LINE      CODE     ---       #1675
      0100114DH   LINE      CODE     ---       #1676
      0100114DH   LINE      CODE     ---       #1677
      0100114DH   LINE      CODE     ---       #1678
      01001153H   LINE      CODE     ---       #1679
      01001153H   LINE      CODE     ---       #1680
      01001155H   LINE      CODE     ---       #1681
      01001155H   LINE      CODE     ---       #1682
      01001155H   LINE      CODE     ---       #1683
      0100115BH   LINE      CODE     ---       #1684
      0100115EH   LINE      CODE     ---       #1685
      01001160H   LINE      CODE     ---       #1686
      01001160H   LINE      CODE     ---       #1687
      01001160H   LINE      CODE     ---       #1688
      01001160H   LINE      CODE     ---       #1689
      01001166H   LINE      CODE     ---       #1690
      01001168H   LINE      CODE     ---       #1691
      01001168H   LINE      CODE     ---       #1692
      01001168H   LINE      CODE     ---       #1693
      01001168H   LINE      CODE     ---       #1694
      01001171H   LINE      CODE     ---       #1695
      01001171H   LINE      CODE     ---       #1696
      01001171H   LINE      CODE     ---       #1697
      01001179H   LINE      CODE     ---       #1698
      0100117FH   LINE      CODE     ---       #1699
      01001182H   LINE      CODE     ---       #1700
      0100118AH   LINE      CODE     ---       #1701
      01001195H   LINE      CODE     ---       #1702
      01001198H   LINE      CODE     ---       #1703
      01001198H   LINE      CODE     ---       #1704
      01001198H   LINE      CODE     ---       #1705
      010011A7H   LINE      CODE     ---       #1706
      010011A7H   LINE      CODE     ---       #1707
      010011ACH   LINE      CODE     ---       #1708
      010011B1H   LINE      CODE     ---       #1709
      010011B6H   LINE      CODE     ---       #1710
      010011B9H   LINE      CODE     ---       #1711
      010011B9H   LINE      CODE     ---       #1712
      010011C4H   LINE      CODE     ---       #1713
      010011D2H   LINE      CODE     ---       #1714
      010011DAH   LINE      CODE     ---       #1715
      010011DFH   LINE      CODE     ---       #1716
      010011DFH   LINE      CODE     ---       #1717
      010011E8H   LINE      CODE     ---       #1718
      010011EEH   LINE      CODE     ---       #1719
      010011F0H   LINE      CODE     ---       #1721
      010011F0H   LINE      CODE     ---       #1722
      010011F9H   LINE      CODE     ---       #1723
LX51 LINKER/LOCATER V4.66.97.0                                                        06/06/2023  14:37:28  PAGE 42


      01001208H   LINE      CODE     ---       #1724
      01001208H   LINE      CODE     ---       #1725
      01001217H   LINE      CODE     ---       #1726
      01001217H   LINE      CODE     ---       #1727
      01001217H   LINE      CODE     ---       #1728
      01001220H   LINE      CODE     ---       #1729
      01001226H   LINE      CODE     ---       #1730
      01001226H   LINE      CODE     ---       #1731
      01001228H   LINE      CODE     ---       #1732
      01001228H   LINE      CODE     ---       #1733
      01001231H   LINE      CODE     ---       #1734
      01001237H   LINE      CODE     ---       #1735
      0100123AH   LINE      CODE     ---       #1736
      0100123CH   LINE      CODE     ---       #1737
      0100123CH   LINE      CODE     ---       #1738
      01001245H   LINE      CODE     ---       #1739
      0100124EH   LINE      CODE     ---       #1740
      01001254H   LINE      CODE     ---       #1741
      01001256H   LINE      CODE     ---       #1742
      01001256H   LINE      CODE     ---       #1743
      0100125FH   LINE      CODE     ---       #1744
      01001268H   LINE      CODE     ---       #1745
      01001277H   LINE      CODE     ---       #1746
      01001277H   LINE      CODE     ---       #1747
      01001277H   LINE      CODE     ---       #1748
      01001285H   LINE      CODE     ---       #1749
      01001296H   LINE      CODE     ---       #1750
      0100129EH   LINE      CODE     ---       #1751
      010012ACH   LINE      CODE     ---       #1752
      010012BAH   LINE      CODE     ---       #1753
      010012BDH   LINE      CODE     ---       #1754
      010012BDH   LINE      CODE     ---       #1755
      010012C8H   LINE      CODE     ---       #1756
      010012ECH   LINE      CODE     ---       #1757
      010012ECH   LINE      CODE     ---       #1758
      010012F1H   LINE      CODE     ---       #1759
      010012F6H   LINE      CODE     ---       #1760
      010012FBH   LINE      CODE     ---       #1761
      01001300H   LINE      CODE     ---       #1762
      01001305H   LINE      CODE     ---       #1763
      0100130AH   LINE      CODE     ---       #1764
      0100130DH   LINE      CODE     ---       #1765
      0100130DH   LINE      CODE     ---       #1766
      01001318H   LINE      CODE     ---       #1767
      01001324H   LINE      CODE     ---       #1768
      01001345H   LINE      CODE     ---       #1769
      01001345H   LINE      CODE     ---       #1770
      01001345H   LINE      CODE     ---       #1771
      01001351H   LINE      CODE     ---       #1772
      01001357H   LINE      CODE     ---       #1773
      01001362H   LINE      CODE     ---       #1774
      01001368H   LINE      CODE     ---       #1775
      01001373H   LINE      CODE     ---       #1776
      01001379H   LINE      CODE     ---       #1777
      01001386H   LINE      CODE     ---       #1778
      0100138CH   LINE      CODE     ---       #1779
      01001397H   LINE      CODE     ---       #1780
      0100139DH   LINE      CODE     ---       #1781
      010013A8H   LINE      CODE     ---       #1782
      010013AEH   LINE      CODE     ---       #1783
      010013B9H   LINE      CODE     ---       #1784
      010013C0H   LINE      CODE     ---       #1785
      010013C3H   LINE      CODE     ---       #1786
      010013C3H   LINE      CODE     ---       #1787
      010013CFH   LINE      CODE     ---       #1788
LX51 LINKER/LOCATER V4.66.97.0                                                        06/06/2023  14:37:28  PAGE 43


      010013D5H   LINE      CODE     ---       #1789
      010013E0H   LINE      CODE     ---       #1790
      010013E6H   LINE      CODE     ---       #1791
      010013F1H   LINE      CODE     ---       #1792
      010013F7H   LINE      CODE     ---       #1793
      01001404H   LINE      CODE     ---       #1794
      0100140AH   LINE      CODE     ---       #1795
      01001415H   LINE      CODE     ---       #1796
      0100141BH   LINE      CODE     ---       #1797
      01001426H   LINE      CODE     ---       #1798
      0100142CH   LINE      CODE     ---       #1799
      01001439H   LINE      CODE     ---       #1800
      01001440H   LINE      CODE     ---       #1801
      01001443H   LINE      CODE     ---       #1802
      01001443H   LINE      CODE     ---       #1803
      0100144FH   LINE      CODE     ---       #1804
      01001455H   LINE      CODE     ---       #1805
      01001460H   LINE      CODE     ---       #1806
      01001466H   LINE      CODE     ---       #1807
      01001471H   LINE      CODE     ---       #1808
      01001477H   LINE      CODE     ---       #1809
      01001484H   LINE      CODE     ---       #1810
      0100148AH   LINE      CODE     ---       #1811
      01001495H   LINE      CODE     ---       #1812
      0100149BH   LINE      CODE     ---       #1813
      010014A6H   LINE      CODE     ---       #1814
      010014ACH   LINE      CODE     ---       #1815
      010014B9H   LINE      CODE     ---       #1816
      010014C0H   LINE      CODE     ---       #1817
      010014C3H   LINE      CODE     ---       #1818
      010014C3H   LINE      CODE     ---       #1819
      010014CFH   LINE      CODE     ---       #1820
      010014D5H   LINE      CODE     ---       #1821
      010014E0H   LINE      CODE     ---       #1822
      010014E6H   LINE      CODE     ---       #1823
      010014F1H   LINE      CODE     ---       #1824
      010014F7H   LINE      CODE     ---       #1825
      01001504H   LINE      CODE     ---       #1826
      0100150AH   LINE      CODE     ---       #1827
      01001515H   LINE      CODE     ---       #1828
      0100151BH   LINE      CODE     ---       #1829
      01001526H   LINE      CODE     ---       #1830
      0100152CH   LINE      CODE     ---       #1831
      01001539H   LINE      CODE     ---       #1832
      01001540H   LINE      CODE     ---       #1833
      01001543H   LINE      CODE     ---       #1834
      01001543H   LINE      CODE     ---       #1835
      0100154FH   LINE      CODE     ---       #1836
      0100155BH   LINE      CODE     ---       #1837
      01001566H   LINE      CODE     ---       #1838
      01001572H   LINE      CODE     ---       #1839
      0100157DH   LINE      CODE     ---       #1840
      01001589H   LINE      CODE     ---       #1841
      01001596H   LINE      CODE     ---       #1842
      010015A2H   LINE      CODE     ---       #1843
      010015ADH   LINE      CODE     ---       #1844
      010015B9H   LINE      CODE     ---       #1845
      010015C4H   LINE      CODE     ---       #1846
      010015D0H   LINE      CODE     ---       #1847
      010015DDH   LINE      CODE     ---       #1848
      010015E9H   LINE      CODE     ---       #1849
      010015ECH   LINE      CODE     ---       #1850
      010015ECH   LINE      CODE     ---       #1851
      010015ECH   LINE      CODE     ---       #1852
      010015ECH   LINE      CODE     ---       #1854
LX51 LINKER/LOCATER V4.66.97.0                                                        06/06/2023  14:37:28  PAGE 44


      010015F7H   LINE      CODE     ---       #1855
      010015F7H   LINE      CODE     ---       #1856
      010015F7H   LINE      CODE     ---       #1857
      010015FAH   LINE      CODE     ---       #1858
      010015FDH   LINE      CODE     ---       #1859
      010015FDH   LINE      CODE     ---       #1860
      01001600H   LINE      CODE     ---       #1861
      0100160BH   LINE      CODE     ---       #1862
      0100160BH   LINE      CODE     ---       #1863
      01001614H   LINE      CODE     ---       #1864
      01001614H   LINE      CODE     ---       #1865
      01001617H   LINE      CODE     ---       #1866
      01001617H   LINE      CODE     ---       #1867
      01001617H   LINE      CODE     ---       #1868
      01001617H   LINE      CODE     ---       #1869
      01001617H   LINE      CODE     ---       #1870
      0100161AH   LINE      CODE     ---       #1871
      01001630H   LINE      CODE     ---       #1872
      01001630H   LINE      CODE     ---       #1874
      01001633H   LINE      CODE     ---       #1875
      0100163CH   LINE      CODE     ---       #1876
      01001647H   LINE      CODE     ---       #1877
      0100164FH   LINE      CODE     ---       #1878
      01001661H   LINE      CODE     ---       #1879
      0100166CH   LINE      CODE     ---       #1880
      01001677H   LINE      CODE     ---       #1881
      01001682H   LINE      CODE     ---       #1882
      0100168EH   LINE      CODE     ---       #1883
      01001699H   LINE      CODE     ---       #1884
      0100169EH   LINE      CODE     ---       #1885
      010016A3H   LINE      CODE     ---       #1886
      010016A8H   LINE      CODE     ---       #1887
      010016AEH   LINE      CODE     ---       #1889
      010016B6H   LINE      CODE     ---       #1890
      010016BDH   LINE      CODE     ---       #1891
      010016C9H   LINE      CODE     ---       #1892
      010016C9H   LINE      CODE     ---       #1893
      010016D4H   LINE      CODE     ---       #1894
      010016D9H   LINE      CODE     ---       #1895
      010016E6H   LINE      CODE     ---       #1896
      010016EBH   LINE      CODE     ---       #1897
      010016EBH   LINE      CODE     ---       #1898
      010016EBH   LINE      CODE     ---       #1899
      010016EEH   LINE      CODE     ---       #1900
      010016F0H   LINE      CODE     ---       #1902
      010016F5H   LINE      CODE     ---       #1903
      010016F5H   LINE      CODE     ---       #1904
      010016FAH   LINE      CODE     ---       #1905
      010016FDH   LINE      CODE     ---       #1906
      01001703H   LINE      CODE     ---       #1907
      01001703H   LINE      CODE     ---       #1908
      0100170BH   LINE      CODE     ---       #1909
      0100170BH   LINE      CODE     ---       #1910
      0100170DH   LINE      CODE     ---       #1911
      01001715H   LINE      CODE     ---       #1912
      0100171CH   LINE      CODE     ---       #1913
      01001728H   LINE      CODE     ---       #1914
      01001728H   LINE      CODE     ---       #1915
      01001733H   LINE      CODE     ---       #1916
      01001738H   LINE      CODE     ---       #1917
      01001745H   LINE      CODE     ---       #1918
      0100174AH   LINE      CODE     ---       #1919
      0100174AH   LINE      CODE     ---       #1920
      0100174AH   LINE      CODE     ---       #1921
      0100174DH   LINE      CODE     ---       #1922
LX51 LINKER/LOCATER V4.66.97.0                                                        06/06/2023  14:37:28  PAGE 45


      0100174FH   LINE      CODE     ---       #1923
      01001751H   LINE      CODE     ---       #1924
      01001759H   LINE      CODE     ---       #1925
      01001760H   LINE      CODE     ---       #1926
      0100176CH   LINE      CODE     ---       #1927
      0100176CH   LINE      CODE     ---       #1928
      01001777H   LINE      CODE     ---       #1929
      0100177CH   LINE      CODE     ---       #1930
      01001789H   LINE      CODE     ---       #1931
      0100178EH   LINE      CODE     ---       #1932
      0100178EH   LINE      CODE     ---       #1933
      0100178EH   LINE      CODE     ---       #1934
      01001791H   LINE      CODE     ---       #1935
      01001793H   LINE      CODE     ---       #1936
      01001796H   LINE      CODE     ---       #1937
      01001796H   LINE      CODE     ---       #1938
      01001799H   LINE      CODE     ---       #1940
      01001799H   LINE      CODE     ---       #1941
      0100179BH   LINE      CODE     ---       #1942
      0100179BH   LINE      CODE     ---       #1943
      0100179EH   LINE      CODE     ---       #1944
      010017A7H   LINE      CODE     ---       #1945
      010017B0H   LINE      CODE     ---       #1946
      010017BBH   LINE      CODE     ---       #1947
      010017C6H   LINE      CODE     ---       #1949
      010017CBH   LINE      CODE     ---       #1950
      010017D0H   LINE      CODE     ---       #1951
      010017D9H   LINE      CODE     ---       #1952
      010017DEH   LINE      CODE     ---       #1953
      010017E4H   LINE      CODE     ---       #1955
      010017F0H   LINE      CODE     ---       #1956
      01001800H   LINE      CODE     ---       #1957
      0100180CH   LINE      CODE     ---       #1958
      0100181BH   LINE      CODE     ---       #1959
      01001828H   LINE      CODE     ---       #1960
      0100182BH   LINE      CODE     ---       #1961
      0100182BH   LINE      CODE     ---       #1962
      0100182DH   LINE      CODE     ---       #1964
      0100182DH   LINE      CODE     ---       #1966
      01001830H   LINE      CODE     ---       #1967
      01001830H   LINE      CODE     ---       #1968
      01001833H   LINE      CODE     ---       #1969
      01001838H   LINE      CODE     ---       #1970
      01001838H   LINE      CODE     ---       #1971
      0100183BH   LINE      CODE     ---       #1972
      0100183EH   LINE      CODE     ---       #1973
      0100183EH   LINE      CODE     ---       #1974
      0100183EH   LINE      CODE     ---       #1975
      0100183EH   LINE      CODE     ---       #1976
      01001841H   LINE      CODE     ---       #1977
      01001849H   LINE      CODE     ---       #1978
      01001854H   LINE      CODE     ---       #1979
      01001854H   LINE      CODE     ---       #1980
      01001856H   LINE      CODE     ---       #1981
      01001859H   LINE      CODE     ---       #1982
      0100185CH   LINE      CODE     ---       #1983
      0100185FH   LINE      CODE     ---       #1984
      01001862H   LINE      CODE     ---       #1985
      01001865H   LINE      CODE     ---       #1987
      01001868H   LINE      CODE     ---       #1988
      0100186BH   LINE      CODE     ---       #1989
      0100186EH   LINE      CODE     ---       #1991
      01001873H   LINE      CODE     ---       #1992
      01001876H   LINE      CODE     ---       #1993
      01001879H   LINE      CODE     ---       #1994
LX51 LINKER/LOCATER V4.66.97.0                                                        06/06/2023  14:37:28  PAGE 46


      0100187CH   LINE      CODE     ---       #1995
      0100187FH   LINE      CODE     ---       #1996
      01001882H   LINE      CODE     ---       #1997
      01001884H   LINE      CODE     ---       #1998
      01001887H   LINE      CODE     ---       #1999
      0100188AH   LINE      CODE     ---       #2000
      0100188DH   LINE      CODE     ---       #2001
      01001890H   LINE      CODE     ---       #2002
      01001893H   LINE      CODE     ---       #2003
      01001896H   LINE      CODE     ---       #2004
      01001899H   LINE      CODE     ---       #2005
      0100189CH   LINE      CODE     ---       #2006
      010018A1H   LINE      CODE     ---       #2007
      010018A4H   LINE      CODE     ---       #2008
      010018ABH   LINE      CODE     ---       #2009
      010018AEH   LINE      CODE     ---       #2010
      010018B1H   LINE      CODE     ---       #2011
      010018B6H   LINE      CODE     ---       #2012
      010018B6H   LINE      CODE     ---       #2014
      010018B9H   LINE      CODE     ---       #2015
      010018C1H   LINE      CODE     ---       #2016
      010018CCH   LINE      CODE     ---       #2017
      010018CCH   LINE      CODE     ---       #2018
      010018CEH   LINE      CODE     ---       #2019
      010018D1H   LINE      CODE     ---       #2020
      010018D4H   LINE      CODE     ---       #2021
      010018D6H   LINE      CODE     ---       #2022
      010018D9H   LINE      CODE     ---       #2023
      010018DCH   LINE      CODE     ---       #2024
      010018DEH   LINE      CODE     ---       #2025
      010018E1H   LINE      CODE     ---       #2026
      010018E4H   LINE      CODE     ---       #2027
      010018E6H   LINE      CODE     ---       #2028
      010018E9H   LINE      CODE     ---       #2029
      010018ECH   LINE      CODE     ---       #2030
      010018EEH   LINE      CODE     ---       #2031
      010018F1H   LINE      CODE     ---       #2032
      010018F4H   LINE      CODE     ---       #2033
      010018F6H   LINE      CODE     ---       #2034
      010018F9H   LINE      CODE     ---       #2035
      010018FCH   LINE      CODE     ---       #2036
      01001901H   LINE      CODE     ---       #2037
      01001906H   LINE      CODE     ---       #2038
      01001906H   LINE      CODE     ---       #2039
      0100190CH   LINE      CODE     ---       #2040
      0100190CH   LINE      CODE     ---       #2041
      01001911H   LINE      CODE     ---       #2042
      01001913H   LINE      CODE     ---       #2043
      0100191AH   LINE      CODE     ---       #2044
      0100191CH   LINE      CODE     ---       #2045
      01001922H   LINE      CODE     ---       #2046
      01001922H   LINE      CODE     ---       #2047
      01001957H   LINE      CODE     ---       #2048
      01001957H   LINE      CODE     ---       #2049
      01001957H   LINE      CODE     ---       #2050
      0100195AH   LINE      CODE     ---       #2051
      0100195FH   LINE      CODE     ---       #2052
      0100195FH   LINE      CODE     ---       #2053
      01001965H   LINE      CODE     ---       #2054
      01001968H   LINE      CODE     ---       #2056
      01001968H   LINE      CODE     ---       #2057
      01001970H   LINE      CODE     ---       #2058
      0100197DH   LINE      CODE     ---       #2059
      0100197DH   LINE      CODE     ---       #2060
      01001980H   LINE      CODE     ---       #2061
LX51 LINKER/LOCATER V4.66.97.0                                                        06/06/2023  14:37:28  PAGE 47


      01001980H   LINE      CODE     ---       #2062
      01001980H   LINE      CODE     ---       #2063
      01001983H   LINE      CODE     ---       #2064
      01001987H   LINE      CODE     ---       #2065
      01001987H   LINE      CODE     ---       #2066
      01001987H   LINE      CODE     ---       #2067
      01001987H   LINE      CODE     ---       #2068
      010019B4H   LINE      CODE     ---       #2069
      010019B4H   LINE      CODE     ---       #2070
      010019BDH   LINE      CODE     ---       #2071
      010019C2H   LINE      CODE     ---       #2072
      010019CBH   LINE      CODE     ---       #2073
      010019D0H   LINE      CODE     ---       #2074
      010019D5H   LINE      CODE     ---       #2075
      010019DAH   LINE      CODE     ---       #2076
      010019DFH   LINE      CODE     ---       #2077
      010019E7H   LINE      CODE     ---       #2078
      010019F3H   LINE      CODE     ---       #2079
      010019F3H   LINE      CODE     ---       #2080
      010019F3H   LINE      CODE     ---       #2081
      01001A00H   LINE      CODE     ---       #2083
      01001A00H   LINE      CODE     ---       #2084
      01001A00H   LINE      CODE     ---       #2085
      01001A00H   LINE      CODE     ---       #2086
      01001A00H   LINE      CODE     ---       #2087
      01001A00H   LINE      CODE     ---       #2088
      01001A00H   LINE      CODE     ---       #2089
      01001A00H   LINE      CODE     ---       #2090
      01001A00H   LINE      CODE     ---       #2091
      01001A05H   LINE      CODE     ---       #2092
      01001A05H   LINE      CODE     ---       #2093
      01001A05H   LINE      CODE     ---       #2094
      01001A05H   LINE      CODE     ---       #2095
      01001A05H   LINE      CODE     ---       #2096
      01001A05H   LINE      CODE     ---       #2097
      01001A07H   LINE      CODE     ---       #2098
      01001A07H   LINE      CODE     ---       #2099
      01001A14H   LINE      CODE     ---       #2101
      01001A14H   LINE      CODE     ---       #2102
      01001A17H   LINE      CODE     ---       #2103
      01001A1AH   LINE      CODE     ---       #2104
      01001A1DH   LINE      CODE     ---       #2105
      01001A22H   LINE      CODE     ---       #2106
      01001A27H   LINE      CODE     ---       #2108
      01001A29H   LINE      CODE     ---       #2110
      01001A29H   LINE      CODE     ---       #2111
      01001A29H   LINE      CODE     ---       #2112
      01001A29H   LINE      CODE     ---       #2113
      01001A2CH   LINE      CODE     ---       #2114
      01001A2CH   LINE      CODE     ---       #2115
      01001A39H   LINE      CODE     ---       #2117
      01001A39H   LINE      CODE     ---       #2118
      01001A39H   LINE      CODE     ---       #2119
      01001A39H   LINE      CODE     ---       #2120
      01001A39H   LINE      CODE     ---       #2121
      01001A41H   LINE      CODE     ---       #2122
      01001A48H   LINE      CODE     ---       #2123
      01001A4FH   LINE      CODE     ---       #2124
      01001A52H   LINE      CODE     ---       #2125
      01001A55H   LINE      CODE     ---       #2126
      01001A55H   LINE      CODE     ---       #2127
      01001A55H   LINE      CODE     ---       #2128
      01001A55H   LINE      CODE     ---       #2129
      01001A58H   LINE      CODE     ---       #2130
      01001A58H   LINE      CODE     ---       #2131
LX51 LINKER/LOCATER V4.66.97.0                                                        06/06/2023  14:37:28  PAGE 48


      01001A69H   LINE      CODE     ---       #2132
      01001A69H   LINE      CODE     ---       #2133
      01001A69H   LINE      CODE     ---       #2134
      01001A76H   LINE      CODE     ---       #2144
      01001A76H   LINE      CODE     ---       #2145
      01001A7FH   LINE      CODE     ---       #2146
      01001A91H   LINE      CODE     ---       #2147
      01001A91H   LINE      CODE     ---       #2148
      01001A99H   LINE      CODE     ---       #2149
      01001AA4H   LINE      CODE     ---       #2150
      01001AA7H   LINE      CODE     ---       #2151
      01001AAFH   LINE      CODE     ---       #2152
      01001AB8H   LINE      CODE     ---       #2153
      01001AB8H   LINE      CODE     ---       #2154
      01001AB8H   LINE      CODE     ---       #2155
      01001ABDH   LINE      CODE     ---       #2156
      01001ABDH   LINE      CODE     ---       #2157
      01001ABDH   LINE      CODE     ---       #2158
      01001ABDH   LINE      CODE     ---       #2159
      01001ABDH   LINE      CODE     ---       #2160
      01001ABDH   LINE      CODE     ---       #2161
      01001ABDH   LINE      CODE     ---       #2162
      01001AC0H   LINE      CODE     ---       #2163
      01001AC0H   LINE      CODE     ---       #2164
      01001AC0H   LINE      CODE     ---       #2165
      01001AC0H   LINE      CODE     ---       #2166
      01001AD1H   LINE      CODE     ---       #2167
      01001AD1H   LINE      CODE     ---       #2168
      01001AD1H   LINE      CODE     ---       #2169
      01001ADBH   LINE      CODE     ---       #2171
      01001ADBH   LINE      CODE     ---       #2172
      01001ADBH   LINE      CODE     ---       #2173
      01001ADBH   LINE      CODE     ---       #2174
      01001ADBH   LINE      CODE     ---       #2175
      01001ADBH   LINE      CODE     ---       #2176
      01001ADBH   LINE      CODE     ---       #2177
      01001ADBH   LINE      CODE     ---       #2178
      01001ADEH   LINE      CODE     ---       #2179
      01001ADEH   LINE      CODE     ---       #2180
      01001AE7H   LINE      CODE     ---       #2181
      01001AF9H   LINE      CODE     ---       #2182
      01001AF9H   LINE      CODE     ---       #2183
      01001B01H   LINE      CODE     ---       #2184
      01001B0CH   LINE      CODE     ---       #2185
      01001B0FH   LINE      CODE     ---       #2186
      01001B17H   LINE      CODE     ---       #2187
      01001B20H   LINE      CODE     ---       #2188
      01001B20H   LINE      CODE     ---       #2189
      01001B20H   LINE      CODE     ---       #2190
      01001B25H   LINE      CODE     ---       #2191
      01001B25H   LINE      CODE     ---       #2192
      01001B25H   LINE      CODE     ---       #2193
      01001B28H   LINE      CODE     ---       #2194
      01001B2BH   LINE      CODE     ---       #2195
      01001B2BH   LINE      CODE     ---       #2196
      01001B2BH   LINE      CODE     ---       #2197
      01001B2EH   LINE      CODE     ---       #2198
      01001B2EH   LINE      CODE     ---       #2199
      01001B2EH   LINE      CODE     ---       #2200
      01001B2EH   LINE      CODE     ---       #2201
      01001B3FH   LINE      CODE     ---       #2202
      01001B3FH   LINE      CODE     ---       #2203
      01001B3FH   LINE      CODE     ---       #2204
      01001B49H   LINE      CODE     ---       #2206
      01001B49H   LINE      CODE     ---       #2207
LX51 LINKER/LOCATER V4.66.97.0                                                        06/06/2023  14:37:28  PAGE 49


      01001B49H   LINE      CODE     ---       #2208
      01001B49H   LINE      CODE     ---       #2209
      01001B49H   LINE      CODE     ---       #2210
      01001B49H   LINE      CODE     ---       #2211
      01001B49H   LINE      CODE     ---       #2212
      01001B49H   LINE      CODE     ---       #2213
      01001B4CH   LINE      CODE     ---       #2214
      01001B4CH   LINE      CODE     ---       #2215
      01001B55H   LINE      CODE     ---       #2216
      01001B67H   LINE      CODE     ---       #2217
      01001B67H   LINE      CODE     ---       #2218
      01001B6FH   LINE      CODE     ---       #2219
      01001B7AH   LINE      CODE     ---       #2220
      01001B7DH   LINE      CODE     ---       #2221
      01001B85H   LINE      CODE     ---       #2222
      01001B8EH   LINE      CODE     ---       #2223
      01001B8EH   LINE      CODE     ---       #2224
      01001B8EH   LINE      CODE     ---       #2225
      01001B93H   LINE      CODE     ---       #2226
      01001B93H   LINE      CODE     ---       #2227
      01001B93H   LINE      CODE     ---       #2228
      01001B93H   LINE      CODE     ---       #2229
      01001B93H   LINE      CODE     ---       #2230
      01001B93H   LINE      CODE     ---       #2231
      01001B93H   LINE      CODE     ---       #2232
      01001B96H   LINE      CODE     ---       #2233
      01001B96H   LINE      CODE     ---       #2234
      01001B96H   LINE      CODE     ---       #2235
      01001B96H   LINE      CODE     ---       #2236
      01001BA7H   LINE      CODE     ---       #2237
      01001BA7H   LINE      CODE     ---       #2238
      01001BA7H   LINE      CODE     ---       #2239
      01001BB1H   LINE      CODE     ---       #2241
      01001BB1H   LINE      CODE     ---       #2242
      01001BB1H   LINE      CODE     ---       #2243
      01001BB1H   LINE      CODE     ---       #2244
      01001BB1H   LINE      CODE     ---       #2245
      01001BB1H   LINE      CODE     ---       #2246
      01001BB1H   LINE      CODE     ---       #2247
      01001BB1H   LINE      CODE     ---       #2248
      01001BB4H   LINE      CODE     ---       #2249
      01001BB4H   LINE      CODE     ---       #2250
      01001BBDH   LINE      CODE     ---       #2251
      01001BCFH   LINE      CODE     ---       #2252
      01001BCFH   LINE      CODE     ---       #2253
      01001BD7H   LINE      CODE     ---       #2254
      01001BE2H   LINE      CODE     ---       #2255
      01001BE5H   LINE      CODE     ---       #2256
      01001BEDH   LINE      CODE     ---       #2257
      01001BF6H   LINE      CODE     ---       #2258
      01001BF6H   LINE      CODE     ---       #2259
      01001BF6H   LINE      CODE     ---       #2260
      01001BFBH   LINE      CODE     ---       #2261
      01001BFBH   LINE      CODE     ---       #2262
      01001BFBH   LINE      CODE     ---       #2263
      01001BFEH   LINE      CODE     ---       #2264
      01001C01H   LINE      CODE     ---       #2265
      01001C02H   LINE      CODE     ---       #2266
      01001C05H   LINE      CODE     ---       #2267
      01001C08H   LINE      CODE     ---       #2268
      01001C08H   LINE      CODE     ---       #2269
      01001C08H   LINE      CODE     ---       #2270
      01001C08H   LINE      CODE     ---       #2271
      01001C19H   LINE      CODE     ---       #2272
      01001C19H   LINE      CODE     ---       #2273
LX51 LINKER/LOCATER V4.66.97.0                                                        06/06/2023  14:37:28  PAGE 50


      01001C19H   LINE      CODE     ---       #2274
      01001C23H   LINE      CODE     ---       #2276
      01001C23H   LINE      CODE     ---       #2277
      01001C23H   LINE      CODE     ---       #2278
      01001C23H   LINE      CODE     ---       #2279
      01001C23H   LINE      CODE     ---       #2280
      01001C23H   LINE      CODE     ---       #2281
      01001C23H   LINE      CODE     ---       #2282
      01001C23H   LINE      CODE     ---       #2283
      01001C25H   LINE      CODE     ---       #2284
      01001C25H   LINE      CODE     ---       #2285
      01001C2EH   LINE      CODE     ---       #2286
      01001C40H   LINE      CODE     ---       #2287
      01001C40H   LINE      CODE     ---       #2288
      01001C48H   LINE      CODE     ---       #2289
      01001C53H   LINE      CODE     ---       #2290
      01001C56H   LINE      CODE     ---       #2291
      01001C5EH   LINE      CODE     ---       #2292
      01001C67H   LINE      CODE     ---       #2293
      01001C67H   LINE      CODE     ---       #2294
      01001C67H   LINE      CODE     ---       #2295
      01001C6CH   LINE      CODE     ---       #2296
      01001C6EH   LINE      CODE     ---       #2297
      01001C71H   LINE      CODE     ---       #2298
      01001C71H   LINE      CODE     ---       #2299
      01001C71H   LINE      CODE     ---       #2300
      01001C71H   LINE      CODE     ---       #2301
      01001C71H   LINE      CODE     ---       #2302
      01001C73H   LINE      CODE     ---       #2303
      01001C73H   LINE      CODE     ---       #2304
      01001C73H   LINE      CODE     ---       #2305
      01001C73H   LINE      CODE     ---       #2307
      01001C80H   LINE      CODE     ---       #2309
      01001C80H   LINE      CODE     ---       #2311
      01001C83H   LINE      CODE     ---       #2312
      01001C95H   LINE      CODE     ---       #2313
      01001C95H   LINE      CODE     ---       #2314
      01001C95H   LINE      CODE     ---       #2315
      01001C9AH   LINE      CODE     ---       #2316
      01001C9DH   LINE      CODE     ---       #2317
      01001C9DH   LINE      CODE     ---       #2318
      01001C9FH   LINE      CODE     ---       #2319
      01001C9FH   LINE      CODE     ---       #2320
      01001CA4H   LINE      CODE     ---       #2321
      01001CA7H   LINE      CODE     ---       #2322
      01001CA7H   LINE      CODE     ---       #2323
      01001CA9H   LINE      CODE     ---       #2324
      01001CA9H   LINE      CODE     ---       #2325
      01001CAEH   LINE      CODE     ---       #2326
      01001CB1H   LINE      CODE     ---       #2327
      01001CB1H   LINE      CODE     ---       #2328
      01001CB3H   LINE      CODE     ---       #2329
      01001CB3H   LINE      CODE     ---       #2330
      01001CB8H   LINE      CODE     ---       #2331
      01001CBBH   LINE      CODE     ---       #2332
      01001CBBH   LINE      CODE     ---       #2333
      01001CBDH   LINE      CODE     ---       #2334
      01001CBDH   LINE      CODE     ---       #2335
      01001CC2H   LINE      CODE     ---       #2336
      01001CC5H   LINE      CODE     ---       #2337
      01001CC8H   LINE      CODE     ---       #2338
      01001CCAH   LINE      CODE     ---       #2339
      01001CCAH   LINE      CODE     ---       #2340
      01001CCAH   LINE      CODE     ---       #2341
      01001CCAH   LINE      CODE     ---       #2342
LX51 LINKER/LOCATER V4.66.97.0                                                        06/06/2023  14:37:28  PAGE 51


      01001CCAH   LINE      CODE     ---       #2343
      01001CCFH   LINE      CODE     ---       #2344
      01001CCFH   LINE      CODE     ---       #2345
      01001CD5H   LINE      CODE     ---       #2346
      01001CD8H   LINE      CODE     ---       #2347
      01001CDBH   LINE      CODE     ---       #2348
      01001CDEH   LINE      CODE     ---       #2349
      01001CE1H   LINE      CODE     ---       #2350
      01001CE3H   LINE      CODE     ---       #2352
      01001CE3H   LINE      CODE     ---       #2353
      01001CE9H   LINE      CODE     ---       #2354
      01001CEBH   LINE      CODE     ---       #2355
      01001CEEH   LINE      CODE     ---       #2356
      01001CF5H   LINE      CODE     ---       #2357
      01001CFFH   LINE      CODE     ---       #2358
      01001CFFH   LINE      CODE     ---       #2359
      01001D02H   LINE      CODE     ---       #2360
      01001D05H   LINE      CODE     ---       #2361
      01001D09H   LINE      CODE     ---       #2362
      01001D09H   LINE      CODE     ---       #2363
      01001D09H   LINE      CODE     ---       #2364
      01001D09H   LINE      CODE     ---       #2365
      01001D0CH   LINE      CODE     ---       #2366
      01001D13H   LINE      CODE     ---       #2367
      01001D13H   LINE      CODE     ---       #2368
      01001D13H   LINE      CODE     ---       #2370
      01001D20H   LINE      CODE     ---       #2371
      01001D20H   LINE      CODE     ---       #2372
      01001D22H   LINE      CODE     ---       #2373
      01001D22H   LINE      CODE     ---       #2374
      01001D22H   LINE      CODE     ---       #2375
      01001D22H   LINE      CODE     ---       #2376
      01001D22H   LINE      CODE     ---       #2377
      01001D22H   LINE      CODE     ---       #2378
      01001D22H   LINE      CODE     ---       #2379
      01001D25H   LINE      CODE     ---       #2380
      01001D25H   LINE      CODE     ---       #2381
      01001D28H   LINE      CODE     ---       #2382
      01001D2DH   LINE      CODE     ---       #2383
      01001D2DH   LINE      CODE     ---       #2384
      01001D31H   LINE      CODE     ---       #2385
      01001D31H   LINE      CODE     ---       #2386
      01001D31H   LINE      CODE     ---       #2387
      01001D31H   LINE      CODE     ---       #2388
      01001D31H   LINE      CODE     ---       #2389
      01001D34H   LINE      CODE     ---       #2390
      01001D39H   LINE      CODE     ---       #2391
      01001D3DH   LINE      CODE     ---       #2392
      01001D3DH   LINE      CODE     ---       #2393
      01001D3DH   LINE      CODE     ---       #2394
      01001D3DH   LINE      CODE     ---       #2395
      01001D4EH   LINE      CODE     ---       #2396
      01001D57H   LINE      CODE     ---       #2397
      01001D57H   LINE      CODE     ---       #2398
      01001D57H   LINE      CODE     ---       #2399
      01001D68H   LINE      CODE     ---       #2400
      01001D68H   LINE      CODE     ---       #2401
      01001D6EH   LINE      CODE     ---       #2402
      01001D71H   LINE      CODE     ---       #2403
      01001D75H   LINE      CODE     ---       #2405
      01001D80H   LINE      CODE     ---       #2406
      01001D80H   LINE      CODE     ---       #2407
      01001D88H   LINE      CODE     ---       #2408
      01001D8BH   LINE      CODE     ---       #2409
      01001D8EH   LINE      CODE     ---       #2410
LX51 LINKER/LOCATER V4.66.97.0                                                        06/06/2023  14:37:28  PAGE 52


      01001D91H   LINE      CODE     ---       #2411
      01001D95H   LINE      CODE     ---       #2412
      01001D95H   LINE      CODE     ---       #2413
      01001D95H   LINE      CODE     ---       #2414
      ---         BLOCKEND  ---      ---       LVL=0

      ---         MODULE    ---      ---       SYS
      0000001AH   PUBLIC    DATA     BYTE      i
      00000009H   PUBLIC    DATA     ---       ReciveData
      00000008H   PUBLIC    DATA     BYTE      flag_uart
      01004D73H   PUBLIC    CODE     ---       UARTRead
      01004F9FH   PUBLIC    CODE     ---       _UART_PutString
      010050E3H   PUBLIC    CODE     ---       _UARTSend
      01004F88H   PUBLIC    CODE     ---       UART_init
      0100509AH   PUBLIC    CODE     ---       Delay100ms
      010050A7H   PUBLIC    CODE     ---       Delay10ms
      010050BCH   PUBLIC    CODE     ---       Delay1ms
      010050DAH   PUBLIC    CODE     ---       Delay100us
      01000003H   PUBLIC    CODE     ---       Delay10us
      010050F3H   PUBLIC    CODE     ---       Delay1us
      01004F3DH   PUBLIC    CODE     ---       _delay_ms
      00000092H   SFRSYM    DATA     BYTE      P1M0
      00000093H   SFRSYM    DATA     BYTE      P0M1
      00000096H   SFRSYM    DATA     BYTE      P2M0
      00000091H   SFRSYM    DATA     BYTE      P1M1
      00000080H   SFRSYM    DATA     BYTE      P0
      000000B2H   SFRSYM    DATA     BYTE      P3M0
      00000095H   SFRSYM    DATA     BYTE      P2M1
      00000090H   SFRSYM    DATA     BYTE      P1
      000000B4H   SFRSYM    DATA     BYTE      P4M0
      000000B1H   SFRSYM    DATA     BYTE      P3M1
      000000A0H   SFRSYM    DATA     BYTE      P2
      000000CAH   SFRSYM    DATA     BYTE      P5M0
      000000B3H   SFRSYM    DATA     BYTE      P4M1
      000000B0H   SFRSYM    DATA     BYTE      P3
      000000C9H   SFRSYM    DATA     BYTE      P5M1
      000000C0H   SFRSYM    DATA     BYTE      P4
      000000D0H.6 SFRSYM    DATA     BIT       AC
      000000C8H   SFRSYM    DATA     BYTE      P5
      000000A8H.7 SFRSYM    DATA     BIT       EA
      000000CEH   SFRSYM    DATA     BYTE      SPCTL
      000000D8H.7 SFRSYM    DATA     BIT       CF
      000000F9H   SFRSYM    DATA     BYTE      CH
      000000A8H.5 SFRSYM    DATA     BIT       EADC
      000000A8H   SFRSYM    DATA     BYTE      IE
      000000E9H   SFRSYM    DATA     BYTE      CL
      000000C5H   SFRSYM    DATA     BYTE      IAP_CMD
      000000FAH   SFRSYM    DATA     BYTE      CCAP0H
      000000FBH   SFRSYM    DATA     BYTE      CCAP1H
      000000BDH   SFRSYM    DATA     BYTE      ADC_RES
      000000B6H   SFRSYM    DATA     BYTE      IPH2
      000000EAH   SFRSYM    DATA     BYTE      CCAP0L
      000000D8H.6 SFRSYM    DATA     BIT       CR
      000000EBH   SFRSYM    DATA     BYTE      CCAP1L
      000000DAH   SFRSYM    DATA     BYTE      CCAPM0
      000000DBH   SFRSYM    DATA     BYTE      CCAPM1
      000000A8H.4 SFRSYM    DATA     BIT       ES
      000000B8H.5 SFRSYM    DATA     BIT       PADC
      000000B8H   SFRSYM    DATA     BYTE      IP
      00000098H.0 SFRSYM    DATA     BIT       RI
      000000D0H.7 SFRSYM    DATA     BIT       CY
      00000098H.1 SFRSYM    DATA     BIT       TI
      00000097H   SFRSYM    DATA     BYTE      CLK_DIV
      000000C3H   SFRSYM    DATA     BYTE      IAP_ADDRH
      000000B8H.4 SFRSYM    DATA     BIT       PS
LX51 LINKER/LOCATER V4.66.97.0                                                        06/06/2023  14:37:28  PAGE 53


      00000081H   SFRSYM    DATA     BYTE      SP
      000000C4H   SFRSYM    DATA     BYTE      IAP_ADDRL
      000000D9H   SFRSYM    DATA     BYTE      CMOD
      000000D8H   SFRSYM    DATA     BYTE      CCON
      000000B8H.7 SFRSYM    DATA     BIT       PPCA
      000000D0H.2 SFRSYM    DATA     BIT       OV
      000000A8H.6 SFRSYM    DATA     BIT       ELVD
      000000BBH   SFRSYM    DATA     BYTE      P4SW
      00000080H.0 SFRSYM    DATA     BIT       P00
      000000BCH   SFRSYM    DATA     BYTE      ADC_CONTR
      00000099H   SFRSYM    DATA     BYTE      SBUF
      00000090H.0 SFRSYM    DATA     BIT       P10
      00000080H.1 SFRSYM    DATA     BIT       P01
      00000087H   SFRSYM    DATA     BYTE      PCON
      000000A0H.0 SFRSYM    DATA     BIT       P20
      00000090H.1 SFRSYM    DATA     BIT       P11
      00000080H.2 SFRSYM    DATA     BIT       P02
      000000B0H.0 SFRSYM    DATA     BIT       P30
      000000A0H.1 SFRSYM    DATA     BIT       P21
      00000090H.2 SFRSYM    DATA     BIT       P12
      00000080H.3 SFRSYM    DATA     BIT       P03
      00000098H   SFRSYM    DATA     BYTE      SCON
      000000C0H.0 SFRSYM    DATA     BIT       P40
      000000B0H.1 SFRSYM    DATA     BIT       P31
      000000A0H.2 SFRSYM    DATA     BIT       P22
      00000090H.3 SFRSYM    DATA     BIT       P13
      00000080H.4 SFRSYM    DATA     BIT       P04
      0000008FH   SFRSYM    DATA     BYTE      WAKE_CLKO
      00000089H   SFRSYM    DATA     BYTE      TMOD
      00000088H   SFRSYM    DATA     BYTE      TCON
      000000C8H.0 SFRSYM    DATA     BIT       P50
      000000C0H.1 SFRSYM    DATA     BIT       P41
      000000B0H.2 SFRSYM    DATA     BIT       P32
      000000A0H.3 SFRSYM    DATA     BIT       P23
      00000090H.4 SFRSYM    DATA     BIT       P14
      00000080H.5 SFRSYM    DATA     BIT       P05
      000000C8H.1 SFRSYM    DATA     BIT       P51
      000000C0H.2 SFRSYM    DATA     BIT       P42
      000000B0H.3 SFRSYM    DATA     BIT       P33
      000000A0H.4 SFRSYM    DATA     BIT       P24
      00000090H.5 SFRSYM    DATA     BIT       P15
      00000080H.6 SFRSYM    DATA     BIT       P06
      000000C8H.2 SFRSYM    DATA     BIT       P52
      000000C0H.3 SFRSYM    DATA     BIT       P43
      000000B0H.4 SFRSYM    DATA     BIT       P34
      000000A0H.5 SFRSYM    DATA     BIT       P25
      00000090H.6 SFRSYM    DATA     BIT       P16
      00000080H.7 SFRSYM    DATA     BIT       P07
      000000B8H.6 SFRSYM    DATA     BIT       PLVD
      000000C8H.3 SFRSYM    DATA     BIT       P53
      000000C0H.4 SFRSYM    DATA     BIT       P44
      000000B0H.5 SFRSYM    DATA     BIT       P35
      000000A0H.6 SFRSYM    DATA     BIT       P26
      00000090H.7 SFRSYM    DATA     BIT       P17
      000000C0H.5 SFRSYM    DATA     BIT       P45
      000000B0H.6 SFRSYM    DATA     BIT       P36
      000000A0H.7 SFRSYM    DATA     BIT       P27
      000000C0H.6 SFRSYM    DATA     BIT       P46
      000000B0H.7 SFRSYM    DATA     BIT       P37
      000000C0H.7 SFRSYM    DATA     BIT       P47
      00000088H.1 SFRSYM    DATA     BIT       IE0
      000000A1H   SFRSYM    DATA     BYTE      BUS_SPEED
      00000088H.3 SFRSYM    DATA     BIT       IE1
      000000AFH   SFRSYM    DATA     BYTE      IE2
      0000008EH   SFRSYM    DATA     BYTE      AUXR
LX51 LINKER/LOCATER V4.66.97.0                                                        06/06/2023  14:37:28  PAGE 54


      000000F0H   SFRSYM    DATA     BYTE      B
      000000C7H   SFRSYM    DATA     BYTE      IAP_CONTR
      000000E0H   SFRSYM    DATA     BYTE      ACC
      000000A8H.1 SFRSYM    DATA     BIT       ET0
      00000088H.5 SFRSYM    DATA     BIT       TF0
      000000A8H.3 SFRSYM    DATA     BIT       ET1
      00000088H.7 SFRSYM    DATA     BIT       TF1
      000000B5H   SFRSYM    DATA     BYTE      IP2
      00000098H.2 SFRSYM    DATA     BIT       RB8
      0000008CH   SFRSYM    DATA     BYTE      TH0
      0000008DH   SFRSYM    DATA     BYTE      TH1
      00000088H.0 SFRSYM    DATA     BIT       IT0
      000000A8H.0 SFRSYM    DATA     BIT       EX0
      00000098H.3 SFRSYM    DATA     BIT       TB8
      00000088H.2 SFRSYM    DATA     BIT       IT1
      000000A8H.2 SFRSYM    DATA     BIT       EX1
      000000D0H.0 SFRSYM    DATA     BIT       P
      00000098H.7 SFRSYM    DATA     BIT       SM0
      0000008AH   SFRSYM    DATA     BYTE      TL0
      00000098H.6 SFRSYM    DATA     BIT       SM1
      0000008BH   SFRSYM    DATA     BYTE      TL1
      00000098H.5 SFRSYM    DATA     BIT       SM2
      000000B8H.1 SFRSYM    DATA     BIT       PT0
      000000B8H.3 SFRSYM    DATA     BIT       PT1
      000000D0H.3 SFRSYM    DATA     BIT       RS0
      000000C2H   SFRSYM    DATA     BYTE      IAP_DATA
      00000088H.4 SFRSYM    DATA     BIT       TR0
      000000D0H.4 SFRSYM    DATA     BIT       RS1
      00000088H.6 SFRSYM    DATA     BIT       TR1
      000000C1H   SFRSYM    DATA     BYTE      WDT_CONTR
      000000B8H.0 SFRSYM    DATA     BIT       PX0
      000000B8H.2 SFRSYM    DATA     BIT       PX1
      000000F2H   SFRSYM    DATA     BYTE      PCA_PWM0
      000000F3H   SFRSYM    DATA     BYTE      PCA_PWM1
      0000009DH   SFRSYM    DATA     BYTE      P1ASF
      00000083H   SFRSYM    DATA     BYTE      DPH
      000000BEH   SFRSYM    DATA     BYTE      ADC_RESL
      00000082H   SFRSYM    DATA     BYTE      DPL
      000000CDH   SFRSYM    DATA     BYTE      SPSTAT
      000000B7H   SFRSYM    DATA     BYTE      IPH
      0000009BH   SFRSYM    DATA     BYTE      S2BUF
      00000098H.4 SFRSYM    DATA     BIT       REN
      0000009AH   SFRSYM    DATA     BYTE      S2CON
      0000009CH   SFRSYM    DATA     BYTE      BRT
      000000B9H   SFRSYM    DATA     BYTE      SADEN
      000000A9H   SFRSYM    DATA     BYTE      SADDR
      000000C6H   SFRSYM    DATA     BYTE      IAP_TRIG
      000000A2H   SFRSYM    DATA     BYTE      AUXR1
      000000D0H.5 SFRSYM    DATA     BIT       F0
      000000D0H.1 SFRSYM    DATA     BIT       F1
      000000D0H   SFRSYM    DATA     BYTE      PSW
      000000D8H.0 SFRSYM    DATA     BIT       CCF0
      000000CFH   SFRSYM    DATA     BYTE      SPDAT
      000000D8H.1 SFRSYM    DATA     BIT       CCF1
      00000094H   SFRSYM    DATA     BYTE      P0M0

      01004F3DH   BLOCK     CODE     ---       LVL=0
      00000006H   SYMBOL    DATA     WORD      ms
      01004F3DH   BLOCK     CODE     NEAR LAB  LVL=1
      00000004H   SYMBOL    DATA     WORD      a
      ---         BLOCKEND  ---      ---       LVL=1
      01004F3DH   LINE      CODE     ---       #14
      01004F3DH   LINE      CODE     ---       #15
      01004F3DH   LINE      CODE     ---       #17
      01004F41H   LINE      CODE     ---       #18
LX51 LINKER/LOCATER V4.66.97.0                                                        06/06/2023  14:37:28  PAGE 55


      01004F41H   LINE      CODE     ---       #19
      01004F45H   LINE      CODE     ---       #20
      01004F4FH   LINE      CODE     ---       #21
      01004F54H   LINE      CODE     ---       #22
      01004F56H   LINE      CODE     ---       #24
      ---         BLOCKEND  ---      ---       LVL=0

      010050F3H   BLOCK     CODE     ---       LVL=0
      010050F3H   LINE      CODE     ---       #26
      010050F3H   LINE      CODE     ---       #27
      010050F3H   LINE      CODE     ---       #28
      010050F4H   LINE      CODE     ---       #29
      ---         BLOCKEND  ---      ---       LVL=0

      01000003H   BLOCK     CODE     ---       LVL=0
      01000003H   BLOCK     CODE     NEAR LAB  LVL=1
      00000007H   SYMBOL    DATA     BYTE      i
      ---         BLOCKEND  ---      ---       LVL=1
      01000003H   LINE      CODE     ---       #30
      01000003H   LINE      CODE     ---       #31
      01000003H   LINE      CODE     ---       #34
      01000004H   LINE      CODE     ---       #35
      01000005H   LINE      CODE     ---       #36
      01000006H   LINE      CODE     ---       #37
      01000008H   LINE      CODE     ---       #38
      0100000AH   LINE      CODE     ---       #39
      ---         BLOCKEND  ---      ---       LVL=0

      010050DAH   BLOCK     CODE     ---       LVL=0
      010050DAH   BLOCK     CODE     NEAR LAB  LVL=1
      00000007H   SYMBOL    DATA     BYTE      i
      00000006H   SYMBOL    DATA     BYTE      j
      ---         BLOCKEND  ---      ---       LVL=1
      010050DAH   LINE      CODE     ---       #40
      010050DAH   LINE      CODE     ---       #41
      010050DAH   LINE      CODE     ---       #44
      010050DCH   LINE      CODE     ---       #45
      010050DEH   LINE      CODE     ---       #47
      010050DEH   LINE      CODE     ---       #48
      010050E0H   LINE      CODE     ---       #49
      010050E2H   LINE      CODE     ---       #50
      ---         BLOCKEND  ---      ---       LVL=0

      010050BCH   BLOCK     CODE     ---       LVL=0
      010050BCH   BLOCK     CODE     NEAR LAB  LVL=1
      00000007H   SYMBOL    DATA     BYTE      i
      00000006H   SYMBOL    DATA     BYTE      j
      ---         BLOCKEND  ---      ---       LVL=1
      010050BCH   LINE      CODE     ---       #51
      010050BCH   LINE      CODE     ---       #52
      010050BCH   LINE      CODE     ---       #55
      010050BDH   LINE      CODE     ---       #56
      010050BFH   LINE      CODE     ---       #57
      010050C1H   LINE      CODE     ---       #59
      010050C1H   LINE      CODE     ---       #60
      010050C3H   LINE      CODE     ---       #61
      010050C5H   LINE      CODE     ---       #62
      ---         BLOCKEND  ---      ---       LVL=0

      010050A7H   BLOCK     CODE     ---       LVL=0
      010050A7H   BLOCK     CODE     NEAR LAB  LVL=1
      00000007H   SYMBOL    DATA     BYTE      i
      00000006H   SYMBOL    DATA     BYTE      j
      ---         BLOCKEND  ---      ---       LVL=1
      010050A7H   LINE      CODE     ---       #63
LX51 LINKER/LOCATER V4.66.97.0                                                        06/06/2023  14:37:28  PAGE 56


      010050A7H   LINE      CODE     ---       #64
      010050A7H   LINE      CODE     ---       #67
      010050A8H   LINE      CODE     ---       #68
      010050A9H   LINE      CODE     ---       #69
      010050ABH   LINE      CODE     ---       #70
      010050ADH   LINE      CODE     ---       #72
      010050ADH   LINE      CODE     ---       #73
      010050AFH   LINE      CODE     ---       #74
      010050B1H   LINE      CODE     ---       #75
      ---         BLOCKEND  ---      ---       LVL=0

      0100509AH   BLOCK     CODE     ---       LVL=0
      0100509AH   BLOCK     CODE     NEAR LAB  LVL=1
      00000007H   SYMBOL    DATA     BYTE      i
      00000006H   SYMBOL    DATA     BYTE      j
      00000005H   SYMBOL    DATA     BYTE      k
      ---         BLOCKEND  ---      ---       LVL=1
      0100509AH   LINE      CODE     ---       #76
      0100509AH   LINE      CODE     ---       #77
      0100509AH   LINE      CODE     ---       #80
      0100509CH   LINE      CODE     ---       #81
      0100509EH   LINE      CODE     ---       #82
      010050A0H   LINE      CODE     ---       #84
      010050A0H   LINE      CODE     ---       #86
      010050A0H   LINE      CODE     ---       #87
      010050A2H   LINE      CODE     ---       #88
      010050A4H   LINE      CODE     ---       #89
      010050A6H   LINE      CODE     ---       #90
      ---         BLOCKEND  ---      ---       LVL=0

      01004F88H   BLOCK     CODE     ---       LVL=0
      01004F88H   LINE      CODE     ---       #94
      01004F88H   LINE      CODE     ---       #95
      01004F88H   LINE      CODE     ---       #96
      01004F8BH   LINE      CODE     ---       #97
      01004F8EH   LINE      CODE     ---       #98
      01004F91H   LINE      CODE     ---       #99
      01004F94H   LINE      CODE     ---       #100
      01004F97H   LINE      CODE     ---       #101
      01004F9AH   LINE      CODE     ---       #102
      01004F9CH   LINE      CODE     ---       #104
      01004F9EH   LINE      CODE     ---       #105
      ---         BLOCKEND  ---      ---       LVL=0

      010050E3H   BLOCK     CODE     ---       LVL=0
      00000007H   SYMBOL    DATA     CHAR      UCHAR
      010050E3H   LINE      CODE     ---       #111
      010050E3H   LINE      CODE     ---       #112
      010050E3H   LINE      CODE     ---       #113
      010050E5H   LINE      CODE     ---       #114
      010050E8H   LINE      CODE     ---       #115
      010050EAH   LINE      CODE     ---       #116
      ---         BLOCKEND  ---      ---       LVL=0

      01004F9FH   BLOCK     CODE     ---       LVL=0
      00000001H   SYMBOL    DATA     ---       buf
      01004F9FH   LINE      CODE     ---       #120
      01004F9FH   LINE      CODE     ---       #121
      01004F9FH   LINE      CODE     ---       #122
      01004FA4H   LINE      CODE     ---       #123
      01004FA4H   LINE      CODE     ---       #124
      01004FA6H   LINE      CODE     ---       #125
      01004FA9H   LINE      CODE     ---       #126
      01004FB0H   LINE      CODE     ---       #127
      01004FB2H   LINE      CODE     ---       #128
LX51 LINKER/LOCATER V4.66.97.0                                                        06/06/2023  14:37:28  PAGE 57


      01004FB4H   LINE      CODE     ---       #130
      ---         BLOCKEND  ---      ---       LVL=0

      01004D73H   BLOCK     CODE     ---       LVL=0
      01004D7FH   BLOCK     CODE     NEAR LAB  LVL=1
      00000021H   SYMBOL    DATA     BYTE      receive
      ---         BLOCKEND  ---      ---       LVL=1
      01004D73H   LINE      CODE     ---       #132
      01004D7CH   LINE      CODE     ---       #135
      01004D7FH   LINE      CODE     ---       #136
      01004D7FH   LINE      CODE     ---       #139
      01004D81H   LINE      CODE     ---       #140
      01004D84H   LINE      CODE     ---       #141
      01004D8BH   LINE      CODE     ---       #142
      01004D91H   LINE      CODE     ---       #143
      01004D91H   LINE      CODE     ---       #144
      01004D9CH   LINE      CODE     ---       #145
      01004D9EH   LINE      CODE     ---       #146
      01004DA7H   LINE      CODE     ---       #147
      01004DA7H   LINE      CODE     ---       #148
      01004DAEH   LINE      CODE     ---       #149
      01004DAEH   LINE      CODE     ---       #150
      01004DAEH   LINE      CODE     ---       #151
      01004DB0H   LINE      CODE     ---       #153
      01004DB0H   LINE      CODE     ---       #154
      01004DB3H   LINE      CODE     ---       #155
      01004DB6H   LINE      CODE     ---       #156
      01004DB6H   LINE      CODE     ---       #157
      01004DB6H   LINE      CODE     ---       #158
      ---         BLOCKEND  ---      ---       LVL=0

      ---         MODULE    ---      ---       IIC
      00000020H.4 PUBLIC    BIT      BIT       ack
      01004DF3H   PUBLIC    CODE     ---       Read_IIC_Byte_time
      01004DBDH   PUBLIC    CODE     ---       Read_IIC_Byte
      01004CDDH   PUBLIC    CODE     ---       _Write_IIC_Byte_time
      01004C92H   PUBLIC    CODE     ---       _Write_IIC_Byte
      0100504EH   PUBLIC    CODE     ---       Send_NOT_ACK_time
      0100503DH   PUBLIC    CODE     ---       Send_NOT_ACK
      0100502CH   PUBLIC    CODE     ---       Send_ACK
      010050D0H   PUBLIC    CODE     ---       I2C_Stop_time
      010050C6H   PUBLIC    CODE     ---       I2C_Stop
      0100506EH   PUBLIC    CODE     ---       I2C_Start_time
      0100505FH   PUBLIC    CODE     ---       I2C_Start
      00000092H   SFRSYM    DATA     BYTE      P1M0
      00000093H   SFRSYM    DATA     BYTE      P0M1
      00000096H   SFRSYM    DATA     BYTE      P2M0
      00000091H   SFRSYM    DATA     BYTE      P1M1
      00000080H   SFRSYM    DATA     BYTE      P0
      000000B2H   SFRSYM    DATA     BYTE      P3M0
      00000095H   SFRSYM    DATA     BYTE      P2M1
      00000090H   SFRSYM    DATA     BYTE      P1
      000000B4H   SFRSYM    DATA     BYTE      P4M0
      000000B1H   SFRSYM    DATA     BYTE      P3M1
      000000A0H   SFRSYM    DATA     BYTE      P2
      000000CAH   SFRSYM    DATA     BYTE      P5M0
      000000B3H   SFRSYM    DATA     BYTE      P4M1
      000000B0H   SFRSYM    DATA     BYTE      P3
      000000C9H   SFRSYM    DATA     BYTE      P5M1
      000000C0H   SFRSYM    DATA     BYTE      P4
      000000D0H.6 SFRSYM    DATA     BIT       AC
      000000C8H   SFRSYM    DATA     BYTE      P5
      000000A8H.7 SFRSYM    DATA     BIT       EA
      000000CEH   SFRSYM    DATA     BYTE      SPCTL
      000000D8H.7 SFRSYM    DATA     BIT       CF
LX51 LINKER/LOCATER V4.66.97.0                                                        06/06/2023  14:37:28  PAGE 58


      000000F9H   SFRSYM    DATA     BYTE      CH
      000000A8H.5 SFRSYM    DATA     BIT       EADC
      000000A8H   SFRSYM    DATA     BYTE      IE
      000000E9H   SFRSYM    DATA     BYTE      CL
      000000C5H   SFRSYM    DATA     BYTE      IAP_CMD
      000000FAH   SFRSYM    DATA     BYTE      CCAP0H
      000000FBH   SFRSYM    DATA     BYTE      CCAP1H
      000000BDH   SFRSYM    DATA     BYTE      ADC_RES
      000000B6H   SFRSYM    DATA     BYTE      IPH2
      000000EAH   SFRSYM    DATA     BYTE      CCAP0L
      000000D8H.6 SFRSYM    DATA     BIT       CR
      000000EBH   SFRSYM    DATA     BYTE      CCAP1L
      000000DAH   SFRSYM    DATA     BYTE      CCAPM0
      000000DBH   SFRSYM    DATA     BYTE      CCAPM1
      000000A8H.4 SFRSYM    DATA     BIT       ES
      000000B8H.5 SFRSYM    DATA     BIT       PADC
      000000B8H   SFRSYM    DATA     BYTE      IP
      00000098H.0 SFRSYM    DATA     BIT       RI
      000000D0H.7 SFRSYM    DATA     BIT       CY
      00000098H.1 SFRSYM    DATA     BIT       TI
      00000097H   SFRSYM    DATA     BYTE      CLK_DIV
      000000C3H   SFRSYM    DATA     BYTE      IAP_ADDRH
      000000B8H.4 SFRSYM    DATA     BIT       PS
      00000081H   SFRSYM    DATA     BYTE      SP
      000000C4H   SFRSYM    DATA     BYTE      IAP_ADDRL
      000000D9H   SFRSYM    DATA     BYTE      CMOD
      000000D8H   SFRSYM    DATA     BYTE      CCON
      000000B8H.7 SFRSYM    DATA     BIT       PPCA
      000000D0H.2 SFRSYM    DATA     BIT       OV
      000000A8H.6 SFRSYM    DATA     BIT       ELVD
      000000BBH   SFRSYM    DATA     BYTE      P4SW
      00000080H.0 SFRSYM    DATA     BIT       P00
      000000BCH   SFRSYM    DATA     BYTE      ADC_CONTR
      00000099H   SFRSYM    DATA     BYTE      SBUF
      00000090H.0 SFRSYM    DATA     BIT       P10
      00000080H.1 SFRSYM    DATA     BIT       P01
      00000087H   SFRSYM    DATA     BYTE      PCON
      000000A0H.0 SFRSYM    DATA     BIT       P20
      00000090H.1 SFRSYM    DATA     BIT       P11
      00000080H.2 SFRSYM    DATA     BIT       P02
      000000B0H.0 SFRSYM    DATA     BIT       P30
      000000A0H.1 SFRSYM    DATA     BIT       P21
      00000090H.2 SFRSYM    DATA     BIT       P12
      00000080H.3 SFRSYM    DATA     BIT       P03
      00000098H   SFRSYM    DATA     BYTE      SCON
      000000C0H.0 SFRSYM    DATA     BIT       P40
      000000B0H.1 SFRSYM    DATA     BIT       P31
      000000A0H.2 SFRSYM    DATA     BIT       P22
      00000090H.3 SFRSYM    DATA     BIT       P13
      00000080H.4 SFRSYM    DATA     BIT       P04
      0000008FH   SFRSYM    DATA     BYTE      WAKE_CLKO
      00000089H   SFRSYM    DATA     BYTE      TMOD
      00000088H   SFRSYM    DATA     BYTE      TCON
      000000C8H.0 SFRSYM    DATA     BIT       P50
      000000C0H.1 SFRSYM    DATA     BIT       P41
      000000B0H.2 SFRSYM    DATA     BIT       P32
      000000A0H.3 SFRSYM    DATA     BIT       P23
      00000090H.4 SFRSYM    DATA     BIT       P14
      00000080H.5 SFRSYM    DATA     BIT       P05
      000000C8H.1 SFRSYM    DATA     BIT       P51
      000000C0H.2 SFRSYM    DATA     BIT       P42
      000000B0H.3 SFRSYM    DATA     BIT       P33
      000000A0H.4 SFRSYM    DATA     BIT       P24
      00000090H.5 SFRSYM    DATA     BIT       P15
      00000080H.6 SFRSYM    DATA     BIT       P06
LX51 LINKER/LOCATER V4.66.97.0                                                        06/06/2023  14:37:28  PAGE 59


      000000C8H.2 SFRSYM    DATA     BIT       P52
      000000C0H.3 SFRSYM    DATA     BIT       P43
      000000B0H.4 SFRSYM    DATA     BIT       P34
      000000A0H.5 SFRSYM    DATA     BIT       P25
      00000090H.6 SFRSYM    DATA     BIT       P16
      00000080H.7 SFRSYM    DATA     BIT       P07
      000000B8H.6 SFRSYM    DATA     BIT       PLVD
      000000C8H.3 SFRSYM    DATA     BIT       P53
      000000C0H.4 SFRSYM    DATA     BIT       P44
      000000B0H.5 SFRSYM    DATA     BIT       P35
      000000A0H.6 SFRSYM    DATA     BIT       P26
      00000090H.7 SFRSYM    DATA     BIT       P17
      000000C0H.5 SFRSYM    DATA     BIT       P45
      000000B0H.6 SFRSYM    DATA     BIT       P36
      000000A0H.7 SFRSYM    DATA     BIT       P27
      000000C0H.6 SFRSYM    DATA     BIT       P46
      000000B0H.7 SFRSYM    DATA     BIT       P37
      000000C0H.7 SFRSYM    DATA     BIT       P47
      00000088H.1 SFRSYM    DATA     BIT       IE0
      000000A1H   SFRSYM    DATA     BYTE      BUS_SPEED
      00000088H.3 SFRSYM    DATA     BIT       IE1
      000000AFH   SFRSYM    DATA     BYTE      IE2
      0000008EH   SFRSYM    DATA     BYTE      AUXR
      000000F0H   SFRSYM    DATA     BYTE      B
      000000C7H   SFRSYM    DATA     BYTE      IAP_CONTR
      000000E0H   SFRSYM    DATA     BYTE      ACC
      000000A8H.1 SFRSYM    DATA     BIT       ET0
      00000088H.5 SFRSYM    DATA     BIT       TF0
      000000A8H.3 SFRSYM    DATA     BIT       ET1
      00000088H.7 SFRSYM    DATA     BIT       TF1
      000000B5H   SFRSYM    DATA     BYTE      IP2
      00000098H.2 SFRSYM    DATA     BIT       RB8
      0000008CH   SFRSYM    DATA     BYTE      TH0
      0000008DH   SFRSYM    DATA     BYTE      TH1
      00000088H.0 SFRSYM    DATA     BIT       IT0
      000000A8H.0 SFRSYM    DATA     BIT       EX0
      00000098H.3 SFRSYM    DATA     BIT       TB8
      00000088H.2 SFRSYM    DATA     BIT       IT1
      000000A8H.2 SFRSYM    DATA     BIT       EX1
      000000D0H.0 SFRSYM    DATA     BIT       P
      00000098H.7 SFRSYM    DATA     BIT       SM0
      0000008AH   SFRSYM    DATA     BYTE      TL0
      00000098H.6 SFRSYM    DATA     BIT       SM1
      0000008BH   SFRSYM    DATA     BYTE      TL1
      00000098H.5 SFRSYM    DATA     BIT       SM2
      000000B8H.1 SFRSYM    DATA     BIT       PT0
      000000B8H.3 SFRSYM    DATA     BIT       PT1
      000000D0H.3 SFRSYM    DATA     BIT       RS0
      000000C2H   SFRSYM    DATA     BYTE      IAP_DATA
      00000088H.4 SFRSYM    DATA     BIT       TR0
      000000D0H.4 SFRSYM    DATA     BIT       RS1
      00000088H.6 SFRSYM    DATA     BIT       TR1
      000000A0H.6 SFRSYM    DATA     BIT       SDA
      000000C1H   SFRSYM    DATA     BYTE      WDT_CONTR
      000000B8H.0 SFRSYM    DATA     BIT       PX0
      000000B8H.2 SFRSYM    DATA     BIT       PX1
      000000F2H   SFRSYM    DATA     BYTE      PCA_PWM0
      000000F3H   SFRSYM    DATA     BYTE      PCA_PWM1
      0000009DH   SFRSYM    DATA     BYTE      P1ASF
