:100000000248810000007F18DFFE22022C0A124FF6
:10001000CB124FD275C78175C503124FD912508CC0
:10002000D2AF22024D73E490000DF0A3F0F532A39D
:10003000F0F5B4F5B375BBFF1243C6124C4412265B
:10004000C2124F88124F02E4F569C3E56994F8744F
:100050008094804003020174AD69AF69124F7F1232
:1000600050A71250A71250A7E569123C4F00950007
:1000700000A51400B52800C43C00D35000E2640081
:10008000F17801008C0109A00118B40127C80138DA
:10009000DC0000016B7536FF7537557538ACE4FB35
:1000A0007D080201347536FF7537557538CCE4FB91
:1000B0007D180201347536FF7537557538ECE4FB51
:1000C0007D2880707536FF75375675380CE4FB7DDA
:1000D0003880617536FF75375675382CE4FB7D48DE
:1000E00080527536FF75375675384CE4FB7D588065
:1000F000437536FF7537567538CCE4FB7D68803420
:10010000123DCCE4FB7D78802B7536FF7537577533
:10011000380CE4FB7D88801C7536FF7537577538C1
:100120002CE4FB7D98800D7536FF75375775384C7C
:10013000E4FB7DA87F0280307536FF75375975382E
:10014000CC7F0512272A7537597538EC7F051224A4
:100150001075375A75380C7F051225C875375A75D2
:10016000382CE4FB7D707F05124A6274042569F522
:100170006902004A7569FC7568FCAD69AF69124F88
:100180007F124FF4EF54186418600612507D122B42
:10019000B5D280D281C2A31250B21226C212421925
:1001A000D2A3123EC17004C2A08002D2A0E50970A1
:1001B00003020B54123EC16003020B547BFF7A50C2
:1001C00079F5124F9F7B007A007909124F9F7F0AC1
:1001D0001250E3E50A644170547BFF7A51790812AA
:1001E0004F9F7A51791C122AA17A51791F122BF54F
:1001F0001250E37BFF7A517922124F9FAF0F1250BA
:10020000E3AF101250E37BFF7A517925124F9FAF75
:1002100011122AB3F549123E7FF550123D4DF54EAD
:10022000E51124D0F5481226567F038023E50A64A1
:100230004270237A51792D122AA17A517941122BD9
:10024000F5122AB3F54F123E7FF54D1228D77F01E4
:10025000124F2102082AE50A644360030203711267
:10026000270D7536FF753751753844122AEEAF0BDE
:10027000123CEE6005435B808003535B7FE55B20AF
:10028000E70302035012255DE50E24D02FF5591225
:100290003D4DF55A121D95122A3E601514601E142C
:1002A000602B24036003020356435B7F123DE28010
:1002B00015E5592464F559123D7F02034C435B7FD9
:1002C000535BFC123DEEE4FB7D0802034C123CEC58
:1002D0006008435B4012241B8003535BBFAF1212C4
:1002E0003CEE6008435B2012248E8003535BDFAF3B
:1002F00013123CEE6008435B101224B78003535B7B
:10030000EFAF14123CEE6008435B081224EA80034E
:10031000535BF7AF15123CEE6008435B041225797E
:100320008003535BFBAF16123CEE6008435B021286
:1003300023C78003535BFDAF17123CEE6008435B9D
:10034000011225B58003535BFE123DBF7F0580037C
:10035000123D34124BF5124572124F717F64FE123A
:100360004F3D12295C12295C12270D122A34020B10
:1003700042E50A644460030204741227757536FF6F
:100380007537517538961229016005435E808003E8
:10039000535E7FE55E20E70302046512255DE50EEE
:1003A00024D02FF55C123D4DF55D121D95122A3EAD
:1003B000601514601E14602A2403600302046B435A
:1003C0005E7F123DE28015E55C2464F55C123D7FA2
:1003D000020461435E7F535EFC123DEEE4FB7D0848
:1003E000807F123CEC6008435E4012241B80035364
:1003F0005EBFAF12123CEE6008435E2012248E8076
:1004000003535EDFAF13123CEE6008435E1012240C
:10041000B78003535EEFAF14123CEE6008435E08F2
:100420001224EA8003535EF7AF15123CEE600843D6
:100430005E041225798003535EFBAF16123CEE601A
:1004400008435E021223C78003535EFDAF17123CC0
:10045000EE6008435E011225B58003535EFE123D37
:10046000BF7F058003123D34124BF512234D122A33
:100470003402082AE50A6445600302057A122775EA
:100480007536FF7537517538A6122901600543612D
:1004900080800353617FE56120E70302056812262F
:1004A0008AE50E24D02FF55F123D4DF560121E8DAA
:1004B000122852601514601E14602A24036003027F
:1004C000056E43617F123DE28015E55F2464F55FB0
:1004D000123D7F02056443617F5361FC123DEEE4EF
:1004E000FB7D08807F123CEC600843614012263699
:1004F00080035361BFAF12123CEE600843612012CB
:1005000026EF80035361DFAF13123CEE60084361B6
:100510001012271780035361EFAF14123CEE6008EE
:1005200043610812274880035361F7AF15123CEE70
:1005300060084361041227C380035361FBAF1612A6
:100540003CEE60084361021225D380035361FDAF86
:1005500017123CEE60084361011227FC80035361CF
:10056000FE123DBF7F058003123D34124BF512236E
:100570004D123F6012421902082AE50A64466003E0
:1005800002068212280F7536FF7537517538B8127A
:100590002AEEE50B64306005436480800353647F7A
:1005A000E56420E70302067312268AE50E24D02FA5
:1005B000F562123D4DF563121E8D1228526015141E
:1005C000601E14602B2403600302067943647F12CB
:1005D0003DE28015E5622464F562123D7F02066FFC
:1005E00043647F5364FC123DEEE4FB7D0802066F1A
:1005F000123CEC600843644012263680035364BF0B
:10060000AF12123CEE60084364201226EF800353C1
:1006100064DFAF13123CEE600843641012271780AA
:10062000035364EFAF14123CEE60084364081227D2
:100630004880035364F7AF15123CEE60084364042E
:100640001227C380035364FBAF16123CEE600843CD
:1006500064021225D380035364FDAF17123CEE6091
:10066000084364011227FC80035364FE123DBF7FE0
:10067000058003123D34124BF5122538124219023F
:10068000082AE50A6447600302083612280F753607
:10069000FF7537517538C9E4FB7D187F01124BF5A2
:1006A000E50B64306005436780800353677FE5672F
:1006B00020E70302081E7536FF753751753854124E
:1006C0003D3D124BF5123E7FF565123D4DF566AF8F
:1006D0000D123CF87D4C122AF8AF0E123CF87D54F6
:1006E000122AF87536FF753751753857E4FB7D5C73
:1006F0007F07124BF5AF0F123CF8E4FB7D647F07D8
:100700001249F7AF10123CF8E4FB7D6C7F071249E9
:10071000F7E50C24D024FE601514601E14602B2411
:1007200003600302082443677F123DE28015E565FC
:100730002464F565123D7F02081A43677F5367FC06
:10074000123DEEE4FB7D0802081A123CEC601343F4
:1007500067407536FF75375175387E7D2812296BD5
:1007600080035367BFAF12123CEE601343672075DE
:1007700036FF7537517538807D3012296B800353F1
:1007800067DFAF13123CEE60134367107536FF75D9
:1007900037517538827D38122A9980035367EFAF3D
:1007A00014123CEE60134367087536FF75375175B8
:1007B00038847D40122A9980035367F7AF15123CA5
:1007C000EE60134367047536FF7537517538867DC3
:1007D00048122BBD80035367FBAF16123CEE60132B
:1007E0004367027536FF7537517538887D50122B77
:1007F000BD80035367FDAF17123CEE6017436701DE
:100800007536FF75375175388AE4FB7D587F0512C0
:100810004BF580035367FE123DBF7F058003123DF9
:1008200034124BF5122538124219124F717F0AFE0D
:10083000124F3D020B42E50A64486003020B42FB83
:10084000121F4712277F7A5179DA1223887F0A1202
:1008500050E37A5179E712242E12293A7A5179F429
:10086000124F9F7BFF7A5179F8124F9FE4FBFA7980
:10087000C87842123EC812399EE4FBFA79407842A9
:100880001237A4123A79122919123A797C007D6440
:10089000123BA77E007F0ACFCDCFCECCCE123BA796
:1008A000EF2430FF1250E37F2E122919123A797C7F
:1008B0000012293A7A527905124F9F123EE27009CE
:1008C0007BFF7A527908124F9F123F7970097BFFA4
:1008D0007A527914124F9FE55B30E76A7BFF7A52B8
:1008E0007920124F9FE559122702E5591225F37F0F
:1008F0003A1250E3E55A122702E55A1225F3122A5A
:1009000025E55B25E030E70312297312400030E74C
:100910000312297D123F8730E703122987E55BC464
:1009200054F030E70312299112400730E7031229EF
:100930009B123F8F30E7031229A5123D9F30E7033A
:100940001229AF1229B9E55E30E76C7BFF7A527944
:1009500050124F9FE55C1227D6E55C1226497F3A7C
:100960001250E3E55D1227D6E55D122649122A25CD
:10097000E55E25E030E70312297312400E30E703ED
:1009800012297D123F9730E703122987E55EC45490
:10099000F030E70312299112401530E70312299B2A
:1009A000123F9F30E7031229A5E55E123DA130E713
:1009B000031229AF1229B9E56130E7777BFF7A523C
:1009C000795E124F9FE55F122874E55F12275B7F07
:1009D0003A1250E3E560122874E56012275B7F0A43
:1009E0001250E37BFF7A52792E124F9FE56125E08A
:1009F00030E703122B0012401C30E703122B0A12BF
:100A00003FA730E703122B14E561C454F030E7032D
:100A1000122B1E12402330E703122B28123FAF3057
:100A2000E703122B32E561123DA130E703122B3CA4
:100A3000122B46E56430E7687BFF7A52796C124FDF
:100A40009FE56212292F123D44122BC5E56312293E
:100A50002FE563123D4612283DE56425E030E703AB
:100A6000122B0012402A30E703122B0A123FB73034
:100A7000E703122B14E564C454F030E703122B1E75
:100A800012403130E703122B28123FBF30E7031228
:100A90002B32E564123DA130E703122B3C122B46AA
:100AA000E56720E703020B427BFF7A52797A124F07
:100AB0009FE565122AE3E565123D46122BC5E56602
:100AC000122AE3E566123D4612283DE56725E0302F
:100AD000E7097BFF7A527935124F9F12403830E791
:100AE000097BFF7A527938124F9F123FC730E709CE
:100AF0007BFF7A52793B124F9FE567C454F030E791
:100B0000097BFF7A52793E124F9F12403F30E7092E
:100B10007BFF7A527941124F9F123FCF30E7097B1A
:100B2000FF7A527944124F9FE567123DA130E709E1
:100B30007BFF7A527947124F9F7BFF7A52794A1294
:100B40004F9F7E007F117D007B007A007909123C67
:100B500075E4F51AE54BB40C00400302183E900B07
:100B600065F8282873020B89020C81020DB4020E6D
:100B700067020EC0020F28020FC60210620210FEAA
:100B80000211980212BD0215ECE4122BD1122BA80F
:100B90007F0212501A8F4F534F3FAF4F124FE08FCB
:100BA0004F7F0312501A8F48124FE08F487F041274
:100BB000501A8F4E124FE08F4E7F0512501A8F50F1
:100BC000124FE08F507F0612501A8F49124FE08F5C
:100BD00049E54F123CCBE4FBFD7F03124ACDE54FC4
:100BE000123D46123CCFE4FB7D10122BDD123CCBB4
:100BF000E4FB1220E27F03122A63E54A123CCBE4B5
:100C0000FB1221047F031228F9123F19E4FBFD7F38
:100C1000011249F77540FF7541527542ACE4FB1271
:100C200022CEE4FB1222157D181223DAE4FB1222F5
:100C3000887D301224CAE4FB12232BE4FB7D487F1D
:100C4000011249F7123EAC7D781227E1900009E0CD
:100C500004F07006900008E004F0900007E0654D95
:100C6000700302183EE54DF012405E900005E0640E
:100C700001600302183EC2AF754B0B12286A0218BE
:100C80003E123F23F554F555F556F557F558E56AEC
:100C900014B408005045900C9D123D7473020CB5BD
:100CA000020CBA020CBF020CC4020CC9020CCE0228
:100CB0000CD3020CD87551018021755201801C752E
:100CC000530180177554018012755501800D7556BA
:100CD0000180087557018003755801123ED8AB5248
:100CE000122B50123EE9122AC5123EF3AB527DB0D0
:100CF0007F01124A62123D5CAB547D707F07124A3D
:100D000062123D5CAB557D807F07124A62123D5CEA
:100D1000AB567D907F07124A62123D5CAB577DA0B7
:100D20007F07124A62123D5CAB587DB07F07124AC2
:100D300062121E511227E9AB537D20122BDD123CAB
:100D4000CBAB531220E2AB531228AEAB537D507F96
:100D500003124ACDE54A123CCBAB53122104AB53EC
:100D60007D707F03124ACD123F19AB5112294BAB54
:100D7000511222CEAB511222157D18122889AB5187
:100D80007D207F011249F7E550123D8F123D12ABD5
:100D9000511222887D30122889AB517D387F011293
:100DA00049F7E54E123D8F123D12AB5112232BAB8A
:100DB00051020E46123D66600F1460111460132438
:100DC000037012755101800D755201800875530131
:100DD0008003755401123F19AB5412294B7D081240
:100DE0002BE5E549123D8F123D127D10122BE5E5F2
:100DF00049123D46123D93123D12AB547D187F01BE
:100E00001249F7123EA27D201223DAAB537D287FD0
:100E1000011249F7E550123D46123D93123D12ABC7
:100E2000537D307F011249F7123EA27D381224CA49
:100E3000AB527D407F011249F7E54E123D46123D0F
:100E400093123D12AB527D487F011249F7123EFDCD
:100E50007D58122862123F077D68122862123EAC4C
:100E6000AB517D780215E4123F23E56A24FE600C45
:100E700014600E2402700D755101800875520180B6
:100E800003755301123EC17005123ED880097540AA
:100E9000FF7541537542ACAB53122B50123EE270BA
:100EA00005123EE98003123CE2122AC5123F797016
:100EB00005123EF38003123FEFAB517DB00215E403
:100EC000123F23E56A24FE600C14600E2402700DAC
:100ED00075510180087552018003755301121E512E
:100EE0001227E97F031229E1E54D123CCBAB527D7D
:100EF000307F03124ACDE54D123D46123CCFAB5236
:100F00001228AE123D3D124ACDE54A123CCBAB5100
:100F10007D607F03124ACDE54A123D46123CCFABBD
:100F2000517D707F030212B7123D66600F1460118D
:100F300014601324037012755101800D75520180E5
:100F400008755301800375540112219E123DCF1282
:100F500028EFE55B30E7081222EE123F2B800612E5
:100F60002315123F321229C3123E35601214601C41
:100F7000146021240370261221EE123E3C800612DA
:100F80002237123F39AB53122204800E122126124F
:100F90003E3C800612214E123F4012287FE5591236
:100FA0003CC51229CDE559123D46123CCF12258C85
:100FB000E55A123CCB1229D7E55A123D46123CCFD6
:100FC000123F470212B7123D66600F1460111460A1
:100FD0001324037012755101800D7552018008753C
:100FE0005301800375540112219E123E461228EFD0
:100FF000E55E30E7081222EE123F2B800612231521
:10100000123F321229C3123E35601214601A146066
:101010001F240370241221EE123E3C800612223758
:10102000123F3912224D800E122126123E3C8006BC
:1010300012214E123F4012287FE55C123CC5122956
:10104000CDE55C123D46123CCF12258CE55D123C8D
:10105000CB1229D7E55D123D46123CCF123F470225
:1010600012B7123D66600F146011146013240370F0
:1010700012755101800D755201800875530180036E
:10108000755401122260123E50122A4CE56130E77D
:10109000081224A1123F2B80061224FD123F3212A7
:1010A0002B58123E35601214601A14601F2403700E
:1010B00024122372123E3C80061223FA123F391288
:1010C000224D800E122176123E3C80061221C6125D
:1010D0003F40122925E55F123CC5122B62E55F12E5
:1010E0003D46123CCF1226A6E560123CCB122B6C7B
:1010F000E560123D46123CCF123F470212B7123D47
:1011000066600F146011146013240370127551018E
:10111000800D7552018008755301800375540112CA
:101120002260123E5A122A4CE56430E7081224A1CC
:10113000123F2B80061224FD123F32122B58123E12
:1011400035601214601A14601F2403702412237275
:10115000123E3C80061223FA123F391222BB800E47
:10116000122176123E3C80061221C6123F401229FF
:1011700025E562123CC5122B62123D44123CCF128F
:1011800026A6E563123CCB122B6CE563123D46129A
:101190003CCF123F470212B7123D66600F14601138
:1011A00014601324037012755101800D7552018073
:1011B0000875530180037554017536FF75375775EF
:1011C00038EC7D481226CC75375875380C7D58128E
:1011D0002BED123E227D68122BEDE56730E711758D
:1011E00036FF75375975384C1228BF123F2B800FC8
:1011F0007536FF75375975388C1228BF123F32ABE0
:10120000547D2E7F03124A62123E35601B14602CFF
:10121000146043240370607536FF75375875388C39
:10122000122629123E3C800F7536FF7537587538E7
:10123000AC122629123F391222BB80327536FF7557
:10124000375875382C12276875375875384C122A5C
:1012500056123E3C80187536FF7537587538EC12BB
:10126000276875375975380C122A56123F40AB5310
:101270007D707F03124A62E565123CC5AB52E4FD06
:101280007F05124ACDE565123D46123CCFAB527D3B
:10129000107F05124ACD123E987F051229E1E566BE
:1012A000123CCBAB517D307F05124ACDE566123D35
:1012B00046123CCF123F47124ACD02183E123F233E
:1012C000F554F555F556F557E56A14B40700503D49
:1012D0009012D7123D74730212EC0212F10212F650
:1012E0000212FB02130002130502130A755101805A
:1012F0001C75520180177553018012755401800DC1
:1013000075550180087556018003755701123EFD21
:10131000E4FBFD7F01124A62123F07E4FB7D107F70
:1013200001124A62123FF970030213C314700302E0
:1013300014431470030214C31470030215432404ED
:10134000600302183EE55B25E030E705123DCC80E6
:1013500003123CE21229E912400030E705123E4335
:101360008003123CE212289A123F8730E705123EB2
:101370004D8003123CE21229F3E55BC454F030E7E0
:1013800005123E578003123CE21229FD124007303D
:10139000E705123E228003123CE2122A07123F8F19
:1013A00030E705123E618003123CE2122A11123D21
:1013B0009F30E705123E6B8003123CE2AB577D90F5
:1013C0000215E4E55E25E030E705123DCC8003120E
:1013D0003CE21229E912400E30E705123E43800339
:1013E000123CE212289A123F9730E705123E4D80D8
:1013F00003123CE21229F3E55EC454F030E7051213
:101400003E578003123CE21229FD12401530E705D9
:10141000123E228003123CE2122A07123F9F30E75D
:1014200005123E618003123CE2122A11E55E123D74
:10143000A130E705123E6B8003123CE2AB577D9072
:101440000215E4E56125E030E705123DCC8003128A
:101450003CE2122B7612401C30E705123E4380031B
:10146000123CE2122A1B123FA730E705123E4D80C4
:1014700003123CE2122B80E561C454F030E7051200
:101480003E578003123CE2122B8A12402330E705BC
:10149000123E228003123CE2122B94123FAF30E73F
:1014A00005123E618003123CE2122B9EE561123D63
:1014B000A130E705123E6B8003123CE2AB577D90F2
:1014C0000215E4E56425E030E705123DCC80031207
:1014D0003CE2122B7612402A30E705123E4380038D
:1014E000123CE2122A1B123FB730E705123E4D8034
:1014F00003123CE2122B80E564C454F030E705127D
:101500003E578003123CE2122B8A12403130E7052D
:10151000123E228003123CE2122B94123FBF30E7AE
:1015200005123E618003123CE2122B9EE564123DDF
:10153000A130E705123E6B8003123CE2AB577D9071
:101540000215E4E56725E030E705123DCC80031283
:101550003CE2AB517D307F01124A6212403830E7E5
:1015600005123E438003123CE2AB527D407F0112E4
:101570004A62123FC730E705123E4D8003123CE23B
:10158000AB537D507F01124A62E567C454F030E7E7
:1015900005123E578003123CE2AB547D607F01127E
:1015A0004A6212403F30E705123E228003123CE2BD
:1015B000AB557D707F01124A62123FCF30E70512B2
:1015C0003E618003123CE2AB567D807F01124A628D
:1015D000E567123DA130E705123E6B8003123CE245
:1015E000AB577D907F01124A6202183E900005E0E1
:1015F0006401600302183E122BD11250A7122BA8CF
:1016000090000AE0654F600302182D900004E0127C
:101610003F4E500612286A021833900004E0FFD3B0
:10162000954D4003021799EF123F4E500302179950
:10163000123CE21225E67537577538EC1225A8756D
:10164000375875380C7D601223047D701227E175C0
:1016500036FF75375A75384CE4FB7D307F03124AEC
:10166000627536FF75375A75386C7F0312272A75F5
:10167000375A75388C7F0312241075375A7538AC79
:101680007F031225C875375A7538CC122ACF7536A4
:10169000FF75375E75382C7D4012282A7D50122A3E
:1016A0008A7D6012282A7D70122A8A122AD9E5685A
:1016B000F47003123FD7E5687003124046AF68EF3D
:1016C000F4602DEF602A30C627123FDF500B9000E8
:1016D0000FE070050568124F7BD3E568123D21408D
:1016E0000A12404D70051568124F7B1228A480CD58
:1016F000123F79700E7F20124EDF1250A720A403F4
:1017000020C6FA123EE2600302183EC2A3E568F466
:101710007003123FD7E5687003124046AF68EFF4DC
:10172000602DEF602A30C627123FDF500B90000F6C
:10173000E070050568124F7BD3E568123D21400A31
:1017400012404D70051568124F7B1228A480CDD22F
:10175000A3E568F47003123FD7E5687003124046B2
:10176000AF68EFF4602DEF602A30C627123FDF50DC
:101770000B90000FE070050568124F7BD3E56812EF
:101780003D21400A12404D70051568124F7B122A08
:101790007680CD1250A702183ED2A3124F7875362C
:1017A000FF75375A7538EC1225E675375B75380CBE
:1017B0001225A875375B75382C7D601226CC7537DD
:1017C0005B75384C7D701223047D301222AA7D4057
:1017D0001222AA123D3D124A62123CE2E4FB12229E
:1017E00004122ACF123DFAEF123CCF7F05122A6372
:1017F000123DFAED123CCFE4FB7D507F05124ACD3D
:10180000123E98E4FB7D607F05124ACD12405412CF
:101810003E0BEF123CCF7F051228F9124054123EC6
:101820000BED123CCF122AD912509A801112290FB7
:10183000124F78E4900005F0123F5E124219308199
:101840000890000E7401F0806D20816A90000EE017
:10185000640170627F171228CC30A4FD123F701211
:1018600026D730A4FD123F7012251330A4FD7F0D42
:10187000124EDF30A4FD122BB5123F7012260F302E
:10188000A4FD7F181228CC30A4FD123EC81226D722
:1018900030A4FD123EC812251330A4FD7F0D124E58
:1018A000DF30A4FD7F0A7E00124F3D123EC8122693
:1018B0000FE490000EF030800890000D7401F0806D
:1018C0004520804290000DE06401703A7F16122A94
:1018D0006B30A4FDE54F12281930A4FDE54F122707
:1018E0003530A4FD7F0D122A6B30A4FDE54D122882
:1018F0001930A4FDE54D12273530A4FD7F0E124EA0
:10190000DFE490000DF030C603021D13123EE270BA
:1019100002C2A37F057E00124F3DD2A330C6030250
:101920001D13E54BB40C004003021D09901933F858
:101930002828730219570219870219F3021A07029D
:101940001A2C021A58021AC0021B2E021B96021CE5
:1019500008021C73021CCA123FE7123F807009750F
:101960004B01756A01021D09D2AF9000037401F0AA
:10197000E4F568E568C395694003021D09124F7BD1
:10198000122A76056880ECE56A14B4090040030267
:101990001D09901999123D74730219B40219BD0200
:1019A00019C20219CB0219D00219D50219DA02198B
:1019B000DF0219E7754B02756A04021D09754B03B6
:1019C0008003754B04756A03021D09754B0580126F
:1019D000754B06800D754B078008754B08800375A5
:1019E0004B09756A048006754B0A756A0712290F40
:1019F000021D09D3E56A123D2D4005156A021D0935
:101A00001226567F038045D3E56A123D2D40051509
:101A10006A021D09124572122A80124219123EC131
:101A20007005C2A0021C01D2A0021C01D3E56A12FB
:101A30003D2D4005156A021D091228D77F01124F5E
:101A400021AF4A1250078F32AD32E4FF124F2112FC
:101A50002A80124219021C01E56A14606014605861
:101A6000146013146003021D09E55B20E703021CE8
:101A70006E156A021D09E55975F0648485F05912E6
:101A80003E35601514601D14602524036003021D9B
:101A900009435B7F156A021D09E5592464F5591550
:101AA0006A021D09435B7F535BFC156A021D091224
:101AB0003E757401F0021D09156A021D09021C6CB5
:101AC000E56A146060146058146013146003021D0A
:101AD00009E55E30E705156A021D09021C6EE55C2A
:101AE00075F0648485F05C123E35601514601D1439
:101AF000602524036003021D09435E7F156A021DF1
:101B000009E55C2464F55C156A021D09435E7F5398
:101B10005EFC156A021D09123E757402F0021D0971
:101B2000156A021D09122600124219021C01E56AFB
:101B3000146060146058146013146003021D09E5FA
:101B40006130E705156A021D09021C6EE55F75F03C
:101B5000648485F05F123E35601514601D146025A5
:101B600024036003021D0943617F156A021D09E514
:101B70005F2464F55F156A021D0943617F5361FCB0
:101B8000156A021D09123E757403F0021D09156ADB
:101B9000021D09021C6CE56A146060146058146030
:101BA00013146003021D09E56430E705156A021D80
:101BB00009021C6EE56275F0648485F062123E35A0
:101BC000601514601D14602524036003021D094381
:101BD000647F156A021D09E5622464F562156A02D4
:101BE0001D0943647F5364FC156A021D09123E758A
:101BF0007404F0021D09156A021D09122600124222
:101C000019E4123F5E021D09E56A14605F14605713
:101C1000146012146003021D09E56730E705156AB8
:101C2000021D098049E56575F0648485F065123E02
:101C300035601514601D14602524036003021D091E
:101C400043677F156A021D09E5652464F565156A19
:101C5000021D0943677F5367FC156A021D09123E86
:101C6000757405F0021D09156A021D09156A1245F1
:101C7000728062D3E56A123D2D4005156A021D0986
:101C8000122C00123FF9601714601E1460251460B6
:101C90002C24047074E4900006F0754B058026E453
:101CA000900006F0754B06801CE4900006F0754B22
:101CB000078012E4900006F0754B088008E490005D
:101CC00006F0754B09756A02803F123F80701490D0
:101CD00000057402F0122C00124219123F60E4F564
:101CE0004B80269000037401F0D2AF123FE79000C2
:101CF00004E02405F0E4F568E568C39569500A122C
:101D00004F7B1250BC056880EF30C6FD7F017E001E
:101D1000124F3D900001E0D39414748094804037BA
:101D20007B00121F4712277F123EC1702A7A527918
:101D3000881223887F0A1250E37A52799612242E51
:101D40007D0A123BA7AF05ED2430FF1250E37BFF65
:101D50007A5179F4124F9F900008E064017004A357
:101D6000E0642C60030201AD900001E004F0123F3A
:101D7000E7900003F0D3E568123D2150030201AD66
:101D8000E56814FDFF124F7F1250BC1250BC125078
:101D9000BC156880E0AF0DEF3395E0FEEFC4F8545A
:101DA0000FC868FFEEC454F048FE74AC2FF9744FAE
:101DB0003E7540FFF5418942E4FB7D4C7F071249A7
:101DC000F7AF0EEF3395E0FEEFC4F8540FC868FF8D
:101DD000EEC454F048FE74AC2FF9744F3E7540FFCA
:101DE000F5418942E4FB7D547F071249F77536FFC0
:101DF000753751753857E4FB7D5C7F07124BF5AFA3
:101E00000FEF3395E0FEEFC4F8540FC868FFEEC43F
:101E100054F048FE74AC2FF9744F3E7540FFF54105
:101E20008942E4FB7D647F071249F7AF10EF3395D9
:101E3000E0FEEFC4F8540FC868FFEEC454F048FE4B
:101E400074AC2FF9744F3E7540FFF5418942E4FBB5
:101E500022E54F75F00A8475F040A4246CF9745B98
:101E600035F07536FFF5378938AB53E4FD7F031243
:101E70004ACDE54F75F00A84E5F075F040A4246C76
:101E8000F9745B35F07536FFF537893822AF0DEF01
:101E90003395E0FEEFC4F8540FC868FFEEC454F069
:101EA00048FE74AC2FF9744F3E7540FFF5418942EE
:101EB000E4FB7D4C7F071249F7AF0EEF3395E0FE50
:101EC000EFC4F8540FC868FFEEC454F048FE74AC79
:101ED0002FF9744F3E7540FFF5418942E4FB7D5474
:101EE0007F071249F77536FF753751753857E4FB90
:101EF0007D5C7F07124BF5AF0FEF3395E0FEEFC42B
:101F0000F8540FC868FFEEC454F048FE74AC2FF9C3
:101F1000744F3E7540FFF5418942E4FB7D647F07C5
:101F20001249F7AF10EF3395E0FEEFC4F8540FC835
:101F300068FFEEC454F048FE74AC2FF9744F3E7540
:101F400040FFF5418942227A007922124698AF2952
:101F5000AE28AD27AC26E4123A3BE4FBFA79FA78D6
:101F600044123895E4FBFA7980784412399EE4FBF8
:101F7000FA7980784412399EE4FBFAF978C4123772
:101F8000A48F2D8E2C8D2B8C2AAF25AE24AD23ACA7
:101F900022E4123A3BE4FBFA7980784412399EE459
:101FA000FBFA7980784412399EE4FBFA797A784416
:101FB0001238958F318E308D2F8C2EAF31AE30ADE3
:101FC0002FAC2E123A797C007D64123BA7EFC4F847
:101FD000540FC868FFEEC454F048FE74AC2FF97477
:101FE000523E7540FFF5418942E4FB7D907F03122C
:101FF00049F7AF31AE30AD2FAC2E123A797C007D6F
:1020000064123BA77E007F0ACFCDCFCECCCE123B51
:10201000A7EFC4F8540FC868FFEEC454F048FE742C
:10202000AC2FF974523E7540FFF5418942E4FB7DC7
:10203000987F031249F7AF31AE30AD2FAC2E123A74
:10204000797C007D0A123BA7EDC4F8540FC868FFE5
:10205000ECC454F048FE74AC2FF974523E7540FF46
:10206000F5418942E4FB7DA47F031249F7AF2DAE11
:102070002CAD2BAC2A123A797C007D64123BA7EF81
:10208000C4F8540FC868FFEEC454F048FE74AC2F77
:10209000F974523E7540FFF5418942E4FB7D907F23
:1020A000051249F7AF2DAE2CAD2BAC2A123A797C34
:1020B000007D64123BA77E007F0ACFCDCFCECCCE71
:1020C000123BA7EFC4F8540FC868FFEEC454F048A1
:1020D000FE74AC2FF974523E7540FFF5418942E41D
:1020E000FB227D307F03124ACDE54D75F00A84E571
:1020F000F075F040A4246CF9745B35F07536FFF58B
:10210000378938227D607F03124ACDE54A75F00A8F
:1021100084E5F075F040A4246CF9745B35F07536F5
:10212000FFF5378938227536FF75375875382CAB6F
:10213000537D507F03124A627536FF7537587538E4
:102140004CAB537D607F03124A627536FF227536B1
:10215000FF7537587538ECAB537D507F03124A62D8
:102160007536FF75375975380CAB537D607F031298
:102170004A627536FF227536FF75375875382CABB5
:10218000537D507F03124A627536FF753758753894
:102190004CAB537D607F03124A627536FF22753661
:1021A000FF7537577538ECE4FB7D487F01124A62B2
:1021B0007536FF75375875380CE4FB7D587F011272
:1021C0004A627536FF227536FF7537587538ECABA5
:1021D000537D507F03124A627536FF753759753843
:1021E0000CAB537D607F03124A627536FF22753651
:1021F000FF75375875388CAB537D507F03124A6298
:102200007536FF227D607F03124A627536FF75378F
:102210005475384C227D107F011249F7E54975F05D
:102220000A84E5F075F010A424ACF9745235F07509
:1022300040FFF5418942227536FF7537587538AC35
:10224000AB537D507F03124A627536FF22AB537D3C
:10225000607F03124A627536FF75375475384C2219
:102260007536FF7537577538ECE4FB7D487F0112F2
:102270004A627536FF75375875380CE4FB7D587F18
:1022800001124A627536FF227D287F011249F7E567
:102290005075F00A84E5F075F010A424ACF974527E
:1022A00035F07540FFF541894222E4FB7F03124A75
:1022B000627536FF75375475384C22AB537D607F9D
:1022C00003124A627536FF75375475384C227D0803
:1022D0007F011249F7E54975F00A8475F010A424CE
:1022E000ACF9745235F07540FFF5418942227536DC
:1022F000FF75375975384CAB547D1E7F03124A6207
:102300007536FF22E4FB7F01124A627536FF75378E
:102310005475384C227536FF75375975388CAB5467
:102320007D1E7F03124A627536FF227D407F0112B7
:1023300049F7E54E75F00A84E5F075F010A424AC79
:10234000F9745235F07540FFF54189422212457209
:10235000E4900008F0A3F0856968AD68AF68124F9B
:102360007F7FE87E03124F3D7BFF7A5279A41249AA
:102370000D227536FF75375875388CAB537D507FFD
:1023800003124A627536FF227BFF124F9FE54F759D
:10239000F00A842430FF1250E3E54F75F00A84E51B
:1023A000F02430FF1250E37F3A1250E3E54D75F010
:1023B0000A842430FF1250E3E54D75F00A84E5F0FD
:1023C0002430FF1250E3227536FF75375175388877
:1023D000E4FB7D507F05124BF522E4FB7F0112499F
:1023E000F7E55075F00A8475F010A424ACF9745226
:1023F00035F07540FFF5418942227536FF75375833
:102400007538ACAB537D507F03124A627536FF229C
:10241000E4FB7D50124A627536FF227536FF753730
:102420005175387EE4FB7D287F05124BF5227BFF3A
:10243000124F9FE4FBFA79C87842AF2DAE2CAD2B3A
:10244000AC2A12399EE4FBFA794078421237A41282
:102450003A791250E3AF2DAE2CAD2BAC2A123A795B
:102460007C007D64123BA77E007F0ACFCDCFCECC0F
:10247000CE123BA7EF2430FF1250E37F2E1250E321
:10248000AF2DAE2CAD2BAC2A123A797C00227536DA
:10249000FF753751753880E4FB7D307F05124BF5B1
:1024A000227536FF75375975384CAB547D1E7F0346
:1024B000124A627536FF227536FF753751753882BC
:1024C000E4FB7D387F05124BF522E4FB7F011249C6
:1024D000F7E54E75F00A8475F010A424ACF9745237
:1024E00035F07540FFF5418942227536FF75375149
:1024F000753884E4FB7D407F05124BF5227536FF6D
:1025000075375975388CAB547D1E7F03124A62753E
:1025100036FF22123A797C007D64123BA77E007F51
:102520000ACFCDCFCECCCE123BA7EF04FF124EDFA9
:102530007F0A7E00124F3D22124572E4900008F09F
:10254000A3F0856968AD68AF68124F7F7FE87E03AE
:10255000124F3D7BFF7A5279A412490D227536FF46
:10256000753751753854E4FB7D507F03124BF5E508
:102570000D24D075F00AA4FF227536FF753751750A
:102580003886E4FB7D487F05124BF522AB527D1067
:102590007F05124ACD7536FF75375D7538ECE4FB63
:1025A0007D207F05124ACD22E4FB7D507F01124A37
:1025B000627536FF227536FF75375175388AE4FB30
:1025C0007D587F05124BF522E4FB7D60124A62754F
:1025D00036FF227536FF753751753888E4FB7D501C
:1025E0007F05124BF522E4FB7D407F01124A6275A4
:1025F00036FF2275F00A84E5F02430FF1250E32202
:10260000156A1245727BFF7A5279A412490D221283
:102610003A797C007D0A123BA7AF05ED04FF124E0C
:10262000DF7F0A7E00124F3D22AB537D507F0312A5
:102630004A627536FF227536FF75375175387EE46C
:10264000FB7D287F05124BF52275F00A84E5F02406
:1026500030FF1250E322AF491250078F32AD327F64
:1026600006124F21AF501250078F32AD327F051244
:102670004F21AF4E1250078F32AD327F04124F21DF
:10268000AF481250078F32AD32227536FF75375181
:10269000753854E4FB7D507F03124BF5E50D24D0D3
:1026A00075F00AA4FF22AB527D107F05124ACD754A
:1026B00036FF75375D7538ECE4FB7D207F05124AE7
:1026C000CD227BFF7A5279A412490D22E4FB7F01CF
:1026D000124A627536FF22123A797C007D64123B01
:1026E000A7EF04FF124EDF7F0A7E00124F3D2275D6
:1026F00036FF753751753880E4FB7D307F05124B0E
:10270000F52275F00A842430FF1250E3227BFF7A11
:102710005279A412490D227536FF753751753882EA
:10272000E4FB7D387F05124BF522E4FB7D40124A25
:10273000627536FF2275F00A84E5F004FF124EDF61
:102740007F0A7E00124F3D227536FF75375175386E
:1027500084E4FB7D407F05124BF52275F00A84E589
:10276000F02430FF1250E322AB537D507F03124A16
:10277000627536FF227BFF7A5279A412490D227DC1
:10278000987F051249F7AF2DAE2CAD2BAC2A123A2B
:10279000797C007D0A123BA7EDC4F8540FC868FF8E
:1027A000ECC454F048FE74AC2FF974523E7540FFEF
:1027B000F5418942E4FB7DA47F051249F7E49000CE
:1027C00001F0227536FF753751753886E4FB7D4878
:1027D0007F05124BF52275F00A842430FF1250E376
:1027E00022E4FB7F01124A6222AB537D107F031269
:1027F0004ACD7536FF75375D7538EC227536FF7535
:10280000375175388AE4FB7D587F05124BF5227BE2
:10281000FF7A5279A412490D2275F00A8404FF123E
:102820004EDF7F0A7E00124F3D22E4FB7F05124AF5
:10283000CD7536FF75375E75382CE4FB222430FFEA
:102840001250E37F0A1250E37BFF7A52792E124F27
:102850009F22E4FB7D6C7F071249F7E50C24D0240E
:10286000FE22AB517F01124A62227BFF7A5279A489
:1028700012490D2275F00A842430FF1250E322AB76
:10288000537D707F03124A6222AB517F011249F7D8
:102890007540FF75415375424C22AB527D407F011C
:1028A000124A62221250BC1250BC1250BC227D400F
:1028B0007F03124ACD7536FF75375D7538EC22AB54
:1028C000547D1E7F03124A627536FF22124EDF7F4F
:1028D0000A7E00124F3D22AF4F1250078F32AD32A9
:1028E0007F02124F21AF4D1250078F32AD3222E4DA
:1028F000FB7D687F01124A6222E4FB7D70124ACDA3
:1029000022E4FB7D187F01124BF5E50B6430227B3E
:10291000FF7A5279A412490D221250E3AF31AE3042
:10292000AD2FAC2E22AB537D707F03124A6222750D
:10293000F00A842430FF1250E3227D0A123BA7AF35
:1029400005ED2430FF1250E37BFF22E4FD7F0112EE
:1029500049F77540FF7541527542AC227F647E0095
:10296000124F3D7F647E00124F3D22E4FB7F051233
:102970004BF5227BFF7A527935124F9F227BFF7AEB
:10298000527938124F9F227BFF7A52793B124F9F28
:10299000227BFF7A52793E124F9F227BFF7A527937
:1029A00041124F9F227BFF7A527944124F9F227B24
:1029B000FF7A527947124F9F227BFF7A52794A124F
:1029C0004F9F22AB547D2E7F03124A6222AB52E40A
:1029D000FD7F05124ACD22AB517D307F05124ACDD5
:1029E00022E4FB7D20124ACD22AB517D307F0112C3
:1029F0004A6222AB537D507F01124A6222AB547D62
:102A0000607F01124A6222AB557D707F01124A62DB
:102A100022AB567D807F01124A6222AB527D407FFD
:102A200001124A62227F0A1250E37BFF7A52792E0A
:102A3000124F9F22124219900001741EF0227D6CE9
:102A40007F071249F7E50C24D024FE22E4FB7D68C1
:102A50007F01124A6222AB537D607F03124A627586
:102A600036FF22E4FB7D40124ACD22124EDF7F0A60
:102A70007E00124F3D221250BC1250BC1250BC229C
:102A80007BFF7A5279A412490D227F05124ACD7537
:102A900036FF75375E75382C22E4FB7F05124BF547
:102AA000227BFF124F9FAF0B1250E3AF0C1250E38B
:102AB0007BFF221250E3E50B24D075F00AA4FFE55A
:102AC0000C24D02F22AB527DA07F01124A6222E457
:102AD000FB7D707F03124A6222E4FB7D807F05123A
:102AE0004ACD2275F00A842430FF1250E322E4FB21
:102AF0007D187F01124BF522E4FB7F071249F72274
:102B00007BFF7A527935124F9F227BFF7A527938B8
:102B1000124F9F227BFF7A52793B124F9F227BFFFD
:102B20007A52793E124F9F227BFF7A527941124F9F
:102B30009F227BFF7A527944124F9F227BFF7A5269
:102B40007947124F9F227BFF7A52794A124F9F2278
:102B50007D967F011249F722AB547D2E7F03124AE6
:102B60006222AB52E4FD7F05124ACD22AB517D308B
:102B70007F05124ACD22AB517D307F01124A62227D
:102B8000AB537D507F01124A6222AB547D607F01BE
:102B9000124A6222AB557D707F01124A6222AB5607
:102BA0007D807F01124A62227F0112501A8F4D12DE
:102BB0004FE08F4D227F0A7E00124F3D22E4FB7FC3
:102BC00005124BF5222430FF1250E37F3A1250E3F6
:102BD00022FF12501A8F4A124FE08F4A227F0312AF
:102BE0004ACDE54D22AB547F011249F722E4FB7F29
:102BF00001124A6222124F9FAF0D1250E3AF0E2214
:102C00007BFF7A5279A412490D22C0E0C0F0C08344
:102C1000C082C0D075D000C000C001C002C003C0D7
:102C200004C005C006C00730C6071247AE8F4C80EF
:102C300003754C00E54BB40C00400302377C902C2C
:102C400045F8282873022C69022CC7022CF2022DA9
:102C5000B3022E29022EB0022F50022FF20230941E
:102C60000231360231D8023743E54C644C7023C33D
:102C7000E56994FC748094805018123F807013743E
:102C80003F2569F569F568124F7B900008E4F0A3D1
:102C900004F0E54C6452600302377CD3E569943F4D
:102CA00074809480500302377C123F8060030237A7
:102CB0007C74C12569F569F568124F7B900008E4C2
:102CC000F0A304F002377CE54CB44C0DC3E56A94E4
:102CD00008748094805002056AE54C6452600302D7
:102CE000377CD3E56A123D2D500302377C156A020A
:102CF000377CE56A24FE603B146063147003022D88
:102D0000892403600302377CE54CB44C0DC3E548CD
:102D100094077480948050020548E54C6452600327
:102D200002377CD3E548123D2D500302377C15480D
:102D300002377CE54CB44C0DC3E54E941F7480946F
:102D4000805002054EE54C6452600302377CD3E5A7
:102D50004E123D2D500302377C154E02377CE54C58
:102D6000B44C0DC3E550940C74809480500205500F
:102D7000E54C6452600302377CD3E550123D2D5080
:102D80000302377C155002377CE54CB44C0DC3E58B
:102D90004994637480948050020549E54C64526004
:102DA0000302377CE549123D20500302377C154968
:102DB00002377CE56A24FE602C14604B2402600319
:102DC00002377CE54C644C6009E54C6452600302B8
:102DD000377C90000CE0700504F002377C90000C0A
:102DE000E4F002377CE54C644C6009E54C645260C9
:102DF0000302377C90000BE0700504F002377C90F2
:102E0000000BE4F002377CE54C644C6009E54C644F
:102E100052600302377C900000E0700504F0023736
:102E20007C900000E4F002377CE56A24FE603214F6
:102E300060572402600302377CE54CB44C0AC3E5BA
:102E40004A123DB85002054AE54C6452600302370D
:102E50007CD3E54A123D21500302377C154A0237E4
:102E60007CE54CB44C0AC3E54D123DB85002054D0B
:102E7000E54C6452600302377CD3E54D123D21508E
:102E80000302377C154D02377CE54CB44C09E54F05
:102E9000123DAE5002054FE54C6452600302377C90
:102EA000D3E54F123D21500302377C154F02377C8A
:102EB000E56A24FE603314605614607424036003D2
:102EC00002377CE54CB44C08C3123DB65002055A9B
:102ED000E54C6452600302377CD3E55A123D215021
:102EE0000302377C155A02377CE54CB44C09E5598E
:102EF000123DA850020559E54C6452600302377C2C
:102F0000E559123D1A500302377C155902377CE50A
:102F10004CB44C08123DD65003E004F0E54C64522A
:102F2000600302377C123D28500302377C0237666B
:102F3000E54C644C6009E54C6452600302377CE563
:102F40005B30E706535B7F02377C435B8002377C54
:102F5000E56A24FE6035146058146076240360032B
:102F600002377CE54CB44C0AC3E55D123DB8500213
:102F7000055DE54C6452600302377CD3E55D123D8C
:102F800021500302377C155D02377CE54CB44C09B7
:102F9000E55C123DA85002055CE54C6452600302FA
:102FA000377CE55C123D1A500302377C155C023712
:102FB0007CE54CB44C08123DD65003E004F0E54CDF
:102FC0006452600302377C123D28500302377C02B2
:102FD0003766E54C644C6009E54C64526003023787
:102FE0007CE55E30E706535E7F02377C435E8002FD
:102FF000377CE56A24FE603514605814607624033B
:10300000600302377CE54CB44C0AC3E560123DB85E
:1030100050020560E54C6452600302377CD3E560E2
:10302000123D21500302377C156002377CE54CB419
:103030004C09E55F123DA85002055FE54C64526003
:103040000302377CE55F123D1A500302377C155F9F
:1030500002377CE54CB44C08123DD65003E004F036
:10306000E54C6452600302377C123D28500302375E
:103070007C023766E54C644C6009E54C64526003A1
:1030800002377CE56130E70653617F02377C43619C
:103090008002377CE56A24FE60351460581460763F
:1030A0002403600302377CE54CB44C0AC3E5631289
:1030B0003DB850020563E54C6452600302377CD38F
:1030C000E563123D21500302377C156302377CE52E
:1030D0004CB44C09E562123DA850020562E54C640F
:1030E00052600302377CE562123D1A500302377CBE
:1030F000156202377CE54CB44C08123DD65003E013
:1031000004F0E54C6452600302377C123D28500302
:1031100002377C023766E54C644C6009E54C64522A
:10312000600302377CE56430E70653647F02377C36
:1031300043648002377CE56A24FE603514605814CD
:1031400060762403600302377CE54CB44C0AC3E587
:1031500066123DB850020566E54C645260030237C2
:103160007CD3E566123D21500302377C1566023799
:103170007CE54CB44C09E565123DA850020565E5B7
:103180004C6452600302377CE565123D1A5003021D
:10319000377C156502377CE54CB44C08123DD6509F
:1031A00003E004F0E54C6452600302377C123D28D2
:1031B000500302377C023766E54C644C6009E54CED
:1031C0006452600302377CE56730E70653677F028D
:1031D000377C43678002377C123FF9700302330A61
:1031E00014700302341D147003023530147003028E
:1031F000364324046003023743E56A14B4070040F1
:103200000302374390320B123D74730232200232B4
:10321000420232630232840232A70232C80232E929
:10322000E54C644C6009E54C64526003023743E5A9
:103230005B25E030E706535BBF023743435B400248
:103240003743E54C644C6009E54C64526003023737
:103250004312400030E706535BDF023743435B20F5
:10326000023743E54C644C6009E54C64526003024C
:103270003743123F8730E706535BEF023743435B28
:1032800010023743E54C644C6009E54C645260031E
:10329000023743E55BC454F030E706535BF702376F
:1032A00043435B08023743E54C644C6009E54C64DA
:1032B00052600302374312400730E706535BFB02BC
:1032C0003743435B04023743E54C644C6009E54CEB
:1032D00064526003023743123F8F30E706535BFDB1
:1032E000023743435B02023743E54C644C6009E517
:1032F0004C64526003023743123D9F30E706535B34
:10330000FE023743435B01023743E56A14B407000A
:10331000400302374390331C123D74730233310271
:1033200033530233740233950233B80233D9023374
:10333000FAE54C644C6009E54C6452600302374383
:10334000E55E25E030E706535EBF023743435E404B
:10335000023743E54C644C6009E54C64526003025B
:10336000374312400E30E706535EDF023743435EB9
:1033700020023743E54C644C6009E54C645260031D
:10338000023743123F9730E706535EEF023743435D
:103390005E10023743E54C644C6009E54C645260B2
:1033A00003023743E55EC454F030E706535EF7028C
:1033B0003743435E08023743E54C644C6009E54CF3
:1033C0006452600302374312401530E706535EFB38
:1033D000023743435E04023743E54C644C6009E521
:1033E0004C64526003023743123F9F30E706535E3E
:1033F000FD023743435E02023743E54C644C6009EB
:10340000E54C64526003023743E55E123DA130E7AC
:1034100006535EFE023743435E01023743E56A14FA
:10342000B40700400302374390342F123D747302F7
:1034300034440234660234870234A80234CB0234A6
:10344000EC02350DE54C644C6009E54C64526003B8
:10345000023743E56125E030E7065361BF02374399
:10346000436140023743E54C644C6009E54C6452CB
:10347000600302374312401C30E7065361DF023716
:1034800043436120023743E54C644C6009E54C64DA
:10349000526003023743123FA730E7065361EF0241
:1034A0003743436110023743E54C644C6009E54CF7
:1034B00064526003023743E561C454F030E70653B9
:1034C00061F7023743436108023743E54C644C60BF
:1034D00009E54C6452600302374312402330E7068B
:1034E0005361FB023743436104023743E54C644CAC
:1034F0006009E54C64526003023743123FAF30E786
:10350000065361FD023743436102023743E54C64D1
:103510004C6009E54C64526003023743E561123D9B
:10352000A130E7065361FE0237434361010237438E
:10353000E56A14B407004003023743903542123D58
:10354000747302355702357902359A0235BB02355C
:10355000DE0235FF023620E54C644C6009E54C6420
:10356000526003023743E56425E030E7065364BF49
:10357000023743436440023743E54C644C6009E53D
:103580004C6452600302374312402A30E70653640A
:10359000DF023743436420023743E54C644C600943
:1035A000E54C64526003023743123FB730E70653DD
:1035B00064EF023743436410023743E54C644C60C8
:1035C00009E54C64526003023743E564C454F030AB
:1035D000E7065364F7023743436408023743E54C78
:1035E000644C6009E54C6452600302374312403179
:1035F00030E7065364FB023743436404023743E574
:103600004C644C6009E54C64526003023743123F3E
:10361000BF30E7065364FD02374343640202374379
:10362000E54C644C6009E54C64526003023743E5A5
:1036300064123DA130E7065364FE02374343640140
:10364000023743E56A14B40700400302374390365B
:1036500055123D747302366A02368C0236AD02365C
:10366000CC0236EA023709023728E54C644C60097F
:10367000E54C64526003023743E56725E030E70616
:103680005367BF023743436740023743E54C644CFE
:103690006009E54C6452600302374312403830E75A
:1036A000065367DF023743436720023743E54C6424
:1036B0004C6009E54C64526003023743123FC73047
:1036C000E7055367EF807C4367108077E54C644CD7
:1036D0006006E54C6452706BE567C454F030E70552
:1036E0005367F7805E4367088059E54C644C600679
:1036F000E54C6452704D12403F30E708E55B54FBE7
:10370000F567803F436704803AE54C644C6006E50A
:103710004C6452702E123FCF30E708E55B54FDF544
:10372000678020436702801BE54C644C6005E54CD4
:10373000B45210E567123DA130E7055367FE8003E0
:10374000436701E54CB44C10900004E0C3943A7414
:103750008094805003E004F0E54CB4520E900004D5
:10376000E0D3954D4005E014F08011E54CB44C0CCD
:10377000900004E0D3954D5003E54DF0758CFC7539
:103780008A18D007D006D005D004D003D002D001CB
:10379000D000D0D0D082D083D0F0D0E032023AE551
:1037A000E86480F8E933E83360110460F0ED33EC4D
:1037B000337009E8FCE9FDEAFEEBFF220460DED38A
:1037C000EB9FEA9EE99DE8C2E78CF0C2F795F040D6
:1037D0000CE8CCF8E9CDF9EACEFAEBCFFB123AB01F
:1037E00085D0F05804700320D5B3E8047007500268
:1037F000B2D5023AEF92D5EC0460F7E4CCC0E0C356
:1038000098F8603B94186008400DD0E0FB023AC77E
:10381000E4FBFAC9FC8028E830E406E4C9FBE4CA0A
:10382000FCE830E305E4C9CACBFCE854076010F8B3
:10383000C3E913F9EA13FAEB13FBEC13FCD8F130EC
:10384000F52FC3E49CFCEF9BFFEE9AFEED99FDD0B3
:10385000E0FBEF4E4D4C701222DB03023AECEC2CF5
:10386000FCEF33FFEE33FEED33FDED30E7EB023AD4
:10387000C7EF2BFFEE3AFEED39FDD0E0FB50130B06
:10388000BB0003023AEFED13FDEE13FEEF13FFEC66
:1038900013FC023AC7EC4D6011E8497017ED33ECA8
:1038A0003304600DE4FCFFFEFD22E933E8330470CD
:1038B000F8023AE5123AB058046009E4CC24815089
:1038C00006285009023AEF284003023AECC0E0EB28
:1038D0004A7044B98006D0E0FB023ADBEF4E701C20
:1038E000BD8008EBFFEAFEE9FD80EBE98DF0A4FE68
:1038F000E5F002397EE9CDF9EAFEEBFFEF89F0A4AD
:10390000FCE5F0CE89F0A42EFFE435F0CD89F0A4DB
:103910002DFEE435F08067EF4E7005BD80D780C383
:10392000EF8BF0A4ACF0EE8BF0A42CFCE435F0F8B7
:10393000EF8AF0A42CE5F038FCE433CB8DF0A42C16
:10394000FCE5F03BF8EE8AF0A42CFCE5F038F8E456
:1039500033CF89F0A42CFCE5F038CF3400CE89F0C9
:10396000A42FFFE5F03EFEE433C98DF0A42EFEE562
:10397000F039CD8AF0A42FFFE5F03EFEE43DFD33A3
:10398000D0E0FB50070BBB000F023AEFEC2CFCEF32
:1039900033FFEE33FEED33FD023AC7023AEFEC5D42
:1039A000046005E859047003023AE5123AB058047D
:1039B00060F6EC4860F2EC7004FDFEFF22C860DBAC
:1039C0002481C85009C39860025006023AEC98500E
:1039D000CAF582E9294B4A7005AB82023ADB75F0E1
:1039E000007C1A7880C3EF9BEE9AED99400DC3EFEF
:1039F0009BFFEE9AFEED99FDE842F0DC23ACF0D09F
:103A0000E0FFD0E0FED0E0FDAB8220E7101BEB60D2
:103A1000BAEC2CFCEF33FFEE33FEED33FD023AC778
:103A2000E803F830E705C0F075F000EF2FFFEE3344
:103A3000FEED33FD40B830E7C280AA75F020800E5D
:103A400075F010800575F0087D007E007F003392D0
:103A5000D530D503123BDDEC334010EF33FFEE33AE
:103A6000FEED33FDEC33FCD5F0ED22E5F0247EA233
:103A7000D513CC92E7CDCEFF22EDD2E7CD33EC3398
:103A800092D524814006E4FFFEFDFC22FCE4CFCE6B
:103A9000CDCC24E0501174FF80EDC3CC13CCCD13FA
:103AA000CDCE13CECF13CF0470F030D5DE023BDD88
:103AB000E9D2E7C933E833F892D5EDD2E7CD33EC5C
:103AC00033FC5002B2D522EC30E7100FBF000C0ED1
:103AD000BE00080DBD00040BEB6014A2D5EB13FC77
:103AE000ED92E7FD2274FFFCFDFEFF22E480F8A2C8
:103AF000D574FF13FC7D80E480EFBB010689828AC8
:103B000083E0225002E722BBFE02E32289828A83FD
:103B1000E49322BB010CE58229F582E5833AF58323
:103B2000E0225006E92582F8E622BBFE06E925825E
:103B3000F8E222E58229F582E5833AF583E49322CF
:103B4000BB010689828A83F0225002F722BBFE0164
:103B5000F322BC000BBE0029EF8DF084FFADF022F4
:103B6000E4CCF875F008EF2FFFEE33FEEC33FCEEFB
:103B70009DEC984005FCEE9DFE0FD5F0E9E4CEFDEE
:103B800022EDF8F5F0EE8420D21CFEADF075F008C1
:103B9000EF2FFFED33FD4007985006D5F0F222C31A
:103BA00098FD0FD5F0EA22C2D5EC30E709B2D5E492
:103BB000C39DFDE49CFCEE30E715B2D5E4C39FFF46
:103BC000E49EFE123B52C3E49DFDE49CFC80031284
:103BD0003B5230D507C3E49FFFE49EFE22C3E49F1F
:103BE000FFE49EFEE49DFDE49CFC22E8600FECC334
:103BF00013FCED13FDEE13FEEF13FFD8F122E86086
:103C00000FEFC333FFEE33FEED33FDEC33FCD8F1A1
:103C100022BB010789828A83023CAD5005E9F80284
:103C20003CA1BBFE05E9F8023CB922BB010DE582CF
:103C300029F582E5833AF583023CAD5007E92582F8
:103C4000F8023CA1BBFE07E92582F8023CB922D06C
:103C500083D082F8E4937012740193700DA3A39340
:103C6000F8740193F5828883E4737402936860EFBB
:103C7000A3A3A380DFEF4E6012EF60010EEDBB0146
:103C80000B89828A83F0A3DFFCDEFA2289F05007D9
:103C9000F709DFFCA9F022BBFEFCF309DFFCA9F069
:103CA00022ECF608EDF608EEF608EFF622ECF0A3AB
:103CB000EDF0A3EEF0A3EFF022ECF208EDF208EE47
:103CC000F208EFF22275F06484E5F075F00A84756D
:103CD000F040A4246CF9745B35F07536FFF5378934
:103CE00038227536FF75375475384C22AF11EF33D3
:103CF00095E0FEEF64304E22EF3395E0FEEFC4F81E
:103D0000540FC868FFEEC454F048FE74AC2FF97429
:103D10004F3E7540FFF54189422275F06484E5F01D
:103D2000D394007480948022900002E0D3940174B4
:103D3000809480227536FF753751753892E4FB7D8B
:103D4000507F0322E56275F00A84E5F022E50F2436
:103D5000D075F00AA4FFE51024D02F227536FF7528
:103D600037567538EC22E4F551F552F553F554E524
:103D70006A24FE2275F003A4C58325F0C5832215AD
:103D80006A7536FF753751753867E4FB7D1022750B
:103D9000F00A8475F010A424ACF9745235F022E5D1
:103DA0005BC433333354802275F06484E5F0C394EC
:103DB000177480948022E55A943B74809480227515
:103DC00036FF75375175388CE4FBFD227536FF756B
:103DD000375475386C22900002E0C39404748094C8
:103DE0008022156A7536FF75375175385922156A64
:103DF0007536FF75375175387022900004E0C39511
:103E00004DFFE49400CF24FFCF34FFFE7C007D0AF9
:103E1000023B5290000AF0E55A900004F0A37401AE
:103E2000F0227536FF7537547538EC22E55975F078
:103E30006484E5F022900002E024FE227537587574
:103E4000386C227536FF75375475388C227536FFFD
:103E50007537547538AC227536FF7537547538CCC4
:103E6000227536FF75375575380C227536FF753754
:103E70005575382C22754B0A756A0790000622E5A5
:103E80000D24D075F00AA4FFE50E24D02F2275F082
:103E9000648490000AE5F0227536FF75375D753849
:103EA000EC227540FF75415375424C22E54875F090
:103EB00020A4244CF9745435F07536FFF537893851
:103EC00022900000E0640122AF31AE30AD2FAC2E65
:103ED0002275F064846401227540FF754153754278
:103EE000CC2290000BE06401227536FF75375775C0
:103EF000386C227536FF7537577538CC227536FF0A
:103F000075375675388C227536FF7537567538AC4F
:103F100022D394DF74809480227540FF75415275DE
:103F200042CC22E4F551F552F553227537597538D4
:103F30006C227537597538AC227537587538CC22D4
:103F400075375975382C22AB517D407F05222403EB
:103F5000FFE433FEC3EF954D7480F86E9822F54B65
:103F6000900001741EF022900004F0A37401F0226E
:103F7000AF2DAE2CAD2BAC2A2290000CE0640122B8
:103F8000900003E0640122E55B33333354F822E50B
:103F90005BC4333354C022E55E33333354F822E537
:103FA0005EC4333354C022E56133333354F822E521
:103FB00061C4333354C022E56433333354F822E50B
:103FC00064C4333354C022E56733333354F822E5F5
:103FD00067C4333354C02290000F04F0156822C325
:103FE00094FF7480948022E4900008F0A3F022757E
:103FF00036FF75375775388C22900006E024FE2274
:10400000E55B25E025E022E55BC43354E022E55E74
:1040100025E025E022E55EC43354E022E56125E099
:1040200025E022E561C43354E022E56425E025E083
:1040300022E564C43354E022E56725E025E022E56B
:1040400067C43354E02290000FF005682290000FFF
:10405000E0640122C3743B954AFFE494002290007F
:1040600005E06402701490000AE0B54F0890000467
:10407000E0654D6005E4900005F0E55B30E74890B1
:104080000005E07042E559123ED1701B123E2C65CE
:104090004F7034E55A654D702E535B7F123E2C12E3
:1040A0003E131245728020AF48A807E55B088002E6
:1040B000C333D8FC30E710123E2CB54F0AE55AB591
:1040C0004D05E559123E13E55E30E74E900005E0E0
:1040D0007048E55C123ED17019E55C123E2E654FCA
:1040E0007038E55D654D7032535E7FE55C123E8E43
:1040F0008022AF48A807E55E088002C333D8FC30B1
:10410000E718E55C123E2EB54F10E55DB54D0B90FE
:10411000000AE55CF0E55D123E19E56130E74E907E
:104120000005E07048E55F123ED17019E55F123E70
:104130002E654F7038E560654D703253617FE55FE5
:10414000123E8E8022AF48A807E561088002C33383
:10415000D8FC30E718E55F123E2EB54F10E560B58C
:104160004D0B90000AE55FF0E560123F67E56430B3
:10417000E74E900005E07048E562123ED17019E507
:1041800062123E2E654F7038E563654D70325364A0
:104190007FE562123E8E8022AF48A807E564088062
:1041A00002C333D8FC30E718E562123E2EB54F103B
:1041B000E563B54D0B90000AE562F0E563123F67D9
:1041C000E56730E753900005E0704DE565123ED19C
:1041D0007019E565123E2E654F703DE566654D70C0
:1041E0003753677FE565123E8E8022AF48A807E50A
:1041F00067088002C333D8FC30E71DE565123E2E08
:10420000B54F15E566B54D1090000AE565F09000D4
:1042100004E566F0A37401F022123EC1700B123E59
:10422000D8FB7D967F011249F7123EE27008123EDC
:10423000E97DA01243A4123F797005123EF3800479
:10424000123FEFE47DB01243A4E55B30E708123D76
:104250005C7D7012439CE55E30E708123D5C7D801A
:104260001243B6E56130E708123D5C7D901243B61B
:10427000E56430E708123D5C7DA012439CE56730A1
:10428000E70C123D5CE4FB7DB07F07124A6275408B
:10429000FF7541537542DCE4FBFD124393754153B6
:1042A0007542EC7D101243727541537542FC7D20BE
:1042B00012437275415475420C7D3012437D754135
:1042C0005475421C7D4012437D75415475422CE467
:1042D000FB7D5012439375415475423CE4FB7D6075
:1042E0007F071249F7123E98E4FB7D207F03124AB4
:1042F000CD123E98123D3D124ACD123EA27D2012B3
:1043000043BE123EA27D381243BE123EFDE4FB7D49
:10431000587F01124A62123F07E4FB7D687F011259
:104320004A627540FF75415375425C7D881243882F
:104330007541537542BC7DA0124388754153754247
:104340006CE4FB7DAC7F031249F77540FF75415368
:1043500075427C7D881243AB7541537542BC7DA08C
:104360001243AB75415375428CE4FB7DAC7F050273
:1043700049F7E4FB7F071249F77540FF22E4FB7F12
:10438000071249F77540FF22E4FB7F031249F775D6
:1043900040FF227F071249F77540FF22E4FB7F07A9
:1043A000124A6222FB7F01124A6222E4FB7F05125D
:1043B00049F77540FF22E4FB7F07124A6222E4FBC3
:1043C0007F011249F7227B017A0079007538017F5D
:1043D000037E00124E8B7B017A00790B7538017FCA
:1043E000077E00124E8B7B017A00790C7538017FB5
:1043F0000B7E00124E8B900000123D2B4002E4F029
:1044000090000B123D2B4002E4F090000C123D2B6B
:104410004002E4F07B007A00795B753801E4FFFE2E
:10442000124E8B7B007A0079597538017F01124555
:104430004B7A00795A7538017F0212456BE5599421
:104440007B748094804003E4F559D3123DB6400359
:10445000E4F55A7B007A00795E7538017F041245D5
:104460004B7A00795C7538017F051245537A0079E3
:104470005D7538017F067E00124E8BE55C123F11A0
:104480004003E4F55CD3E55D123DB84003E4F55D1F
:104490007B007A0079617538017F081245537A00F4
:1044A000795F7538017F0912455B7A00796075384C
:1044B000017F0A7E00124E8BE55F123F114003E43C
:1044C000F55FD3E560123DB84003E4F5607B007A08
:1044D0000079647538017F0C12455B7A007962754A
:1044E00038017F0D1245637A0079637538017F0EBC
:1044F00012456BE562123F124003E4F562D3E563B7
:10450000123DB84003E4F5637B007A0079677538A3
:10451000017F1F1245637A0079657538017F2F7E10
:1045200000124E8B7B007A0079667538017F3F7EE2
:1045300000124E8BD3E565123F124003E4F565D3BC
:10454000E566123DB84003E4F566227E00124E8B0C
:104550007B00227E00124E8B7B00227E00124E8B4F
:104560007B00227E00124E8B7B00227E00124E8B3F
:10457000D3227F037E0012000E7B017A0079007542
:1045800038017F037E00124EB57B017A00790B75EE
:1045900038017F077E00124EB57B017A00790C75D9
:1045A00038017F0B1246687A00795B753801E4FFA9
:1045B000FE124EB57B007A0079597538017F0112E1
:1045C00046687A00795A7538017F021246707A007F
:1045D000795E7538017F041246707A00795C75380F
:1045E000017F051246787A00795D7538017F0612E1
:1045F00046787A0079617538017F081246807A0022
:10460000795F7538017F091246807A0079607538C4
:10461000017F0A1246887A0079647538017F0C128E
:1046200046887A0079627538017F0D1246907A00CB
:1046300079637538017F0E1246907A007967753874
:10464000017F1F7E00124EB57B007A0079657538B8
:10465000017F2F7E00124EB57B007A007966753897
:10466000017F3F7E00024EB57E00124EB57B0022D8
:104670007E00124EB57B00227E00124EB57B0022DA
:104680007E00124EB57B00227E00124EB57B0022CA
:104690007E00124EB57B00228B338A348935E4F5D7
:1046A00036F537F538F539F53AF53BF53CF540F593
:1046B0003FF53EF53DF541F542124F5712509AE451
:1046C000F541F542124FF4EF30E7161250BC0542A7
:1046D000E542AE417002054114C39464EE9400407B
:1046E000E312505F7F71124C92124DBD8F368F6B6B
:1046F0001247A08F378F6C1247A08F388F6D1247EB
:10470000A78F398F6E1247A78F3A8F6F12502C12D6
:104710004DBD8F3B8F7012502C124DBD8F3C8F7151
:1047200012503D1250C67B007A00796B7D06124D07
:1047300028EF653C7066F572AF37124BB6AF381292
:104740004BB6AF39124BE3AF40AE3FAD3EFC780401
:10475000123BEB124BC8AB33AA34A935123C11E41F
:10476000F540F53FF53EF53DAF39124BB6AF3A1285
:104770004BB6AF3B124BE3E540F540E53FF53FE577
:104780003E540FF53EE4F53DAF40AE3FAD3EAC3D8F
:10479000AB33AA34A935900004023C2B7572012278
:1047A00012502C124DBD2212502C124DBD22C202AD
:1047B000D2C4D2C52000147F0030C5027F017E0024
:1047C00030C4027E02EE2FF51BD2007F0030C502FE
:1047D0007F017E0030C4027E02EE2FFFB51B037FF7
:1047E0000022E51BFD7C007005EF6402600BED64A8
:1047F000034C7007EF640170028F1CE51B700BE522
:104800001C64027005EF6403600FE51B64037020F5
:10481000E51C6401701AEF70178F1BE4F51C300261
:10482000037F5222200104D2018005C2017F52225F
:10483000E51BFD7C007005EF6401600BED64034C2B
:104840007007EF640270028F1CE51B700BE51C649F
:10485000017005EF6403600FE51B64037020E51C25
:104860006402701AEF70178F1BE4F51C3002037F8F
:104870004C22200104D2018005C2017F4C227F001E
:1048800022787FE4F6D8FD7581720248C8020026BE
:10489000E493A3F8E493A34003F68001F208DFF465
:1048A0008029E493A3F85407240CC8C333C4540FDD
:1048B0004420C8834004F456800146F6DFE4800BB0
:1048C000010204081020408090498AE47E01936030
:1048D000BCA3FF543F30E509541FFEE493A36001DD
:1048E0000ECF54C025E060A840B8E493A3FAE49347
:1048F000A3F8E493A3C8C582C8CAC583CAF0A3C8F5
:10490000C582C8CAC583CADFE9DEE780BE8B338AA9
:10491000348935E4F536F537C2037F40124E5BE546
:104920003744B0FFC203124E5BC2037F10124E5BCE
:10493000C203E4FF124E5BE4F538F539E4F53AF5CD
:104940003BAB33AA34A935853B82853A83123B13AE
:10495000FFD203124E5B053BE53B7002053AC39460
:1049600004E53A940040DA0539E53970020538C3A8
:104970009430E538940040C40537E53770020536B9
:10498000C39409E5369400408F22014A00014F008C
:10499000014D00014900015000014E000148004155
:1049A00000070041000B0041000C004100000041E5
:1049B00000020141000500014B00016A00410003B3
:1049C000014100011E4200080000010800011A0018
:1049D00011090000000000000000000000000000BD
:1049E000000000017200076B00000000000000C121
:1049F00000C101011C00008F3D8D3E8B3FE4F54559
:104A0000F5467E00E546253DFFEE3545FEAD3E7C94
:104A100000124E29E4F543F544E53F6401AB40AA9A
:104A200041A9427006123AFAF48003123AFAFFD210
:104A300003124E5B74012542F542E43541F5410510
:104A400044E54470020543C39408E543940040C91B
:104A50000546E54670020545C39402E545940040CD
:104A6000A1228F338D348B35E4F53BF53C7E00E598
:104A70003C2533FFEE353BFEAD347C00124E29E47D
:104A8000F539F53AE5356401AB36AA37A938700631
:104A9000123AFAF48003123AFAFFD203124E5B7410
:104AA000012538F538E43537F537053AE53A70022F
:104AB0000539C39410E539940040C9053CE53C70C4
:104AC00002053BC39402E53B940040A1228F338D45
:104AD000348B35E4F53BF53C7E00E53C2533FFEEB9
:104AE000353BFEAD347C00124E29E4F539F53AE54C
:104AF000356401AB36AA37A9387006123AFAF48049
:104B000003123AFAFFD203124E5B74012538F538CE
:104B1000E43537F537053AE53A70020539C39410A4
:104B2000E539940040C9053CE53C7002053BC3945F
:104B300004E53B940040A1228F3312505F7F701236
:104B40004C92AF33124C92E4FF124C92E4FF124CA1
:104B500092124B917F71124C92124DBD8F341250B4
:104B60002C124DBD8F3512502C124DBD8F36124B6D
:104B7000917F70124C92E53344B0FF124C92AF35E6
:104B8000124C92AF36124C921250C6E4F535F536FF
:104B9000221250C61250A712505F22EF4500FFE5C7
:104BA00000FEE500FDE500FC7808123BFE8F008E5C
:104BB000008D008C0022EF4540FFE53FFEE53EFD05
:104BC000E53DFC7808123BFE8F408E3F8D3E8C3DCC
:104BD00022EF4500F500E500F500E500F500E500F1
:104BE000F50022EF4540F540E53FF53FE53EF53E57
:104BF000E53DF53D228F338D348B3585363A85374B
:104C00003B85383CE4F539AB3AAA3BA93C123AFA69
:104C1000603175F010A4246CF9745C35F07540FFB8
:104C2000F5418942E53975F008A42534FDAB35AF6F
:104C3000331249F705397401253CF53CE4353BF561
:104C40003B80C422D2951250BCC2951250BCD29562
:104C50001250A7C2037FE2124E5BC2037FA0124E26
:104C60005BC2037FEB124E5BC2037F2C124E5BC212
:104C7000037FC4124E5BC2037F81124E5BC2037F6F
:104C80008C124E5BC2037FA7124E5BC2037FAF0242
:104C90004E5B8F44E4F545E5451250EB5024AF459B
:104CA000A807E544088002C333D8FC30E704D2A645
:104CB0008002C2A61250F3D2A7120003C2A7054574
:104CC00080D51250F3D2A61250F3D2A71250F3306F
:104CD000A604C2048002D204C2A70250F38F35E4B6
:104CE000F536E5361250EB5024AF36A807E5350807
:104CF0008002C333D8FC30E704D2A68002C2A612D9
:104D000050F3D2A7120003C2A7053680D51250F384
:104D1000D2A61250F3D2A71250F330A604C20480D8
:104D200002D204C2A70250F38B438A4489458D46C0
:104D30007547FFE4FFEFC395465035AB43AA44A93E
:104D4000458F82758300123B1362477E08EED39431
:104D500000748094804016E54730E70825E0643110
:104D6000F5478006E54725E0F5471E80E00F80C542
:104D7000AF4722C0E0C0D075D000C000309837C225
:104D8000988599217409251AF8A621E509642470EB
:104D90001FC3E51A9411748094805002051A740898
:104DA000251AF8E6B40A0F7407251AF8760080036E
:104DB000750900751A00D000D0D0D0E032E4F54477
:104DC000D2A6F545C3E5451250EC501F1250F3C270
:104DD000A7120003D2A71250F3E54425E0F54430B2
:104DE000A60205441250F3054580D9C2A71250F31C
:104DF000AF4422E4F535D2A6F536C3E5361250ECC1
:104E0000501F1250F3C2A7120003D2A71250F3E5AD
:104E10003525E0F53530A60205351250F30536800C
:104E2000D9C2A71250F3AF3522AB05AA04EB1B7011
:104E3000011AEF24AFFFC203124E5BEAC4F854F02C
:104E4000C8EBC4540F48540F2410FFC203124E5B2A
:104E5000AF03EF540FFFC203024E5BC293A2039253
:104E600094E4FEEEC39408748094805016C297AD0B
:104E700007ED33929600000000D297EF25E0FDFF8A
:104E80000E80E0D293A203B3929422124FCB75C747
:104E90008175C501124FD2124FD900E5C2123B40B5
:104EA0000DBD00010C740129F9E43AFAD538E51278
:104EB000508CD2AF22124FCB75C78175C502124FED
:104EC000D2123AFAF5C2124FD9000DBD00010C748E
:104ED0000129F9E43AFAD538E512508CD2AF228F85
:104EE00033D2C01250DA1250DAC2C0D3E533123DC9
:104EF00021400ED2A51250DAC2A51250DA15338025
:104F0000EA22E4F5D8F5E9F5F9F5D975A240F5EA14
:104F1000F5FA75DA4275EBFF75FBFF75DB42D2DE01
:104F2000228F338D3412506E7FD0124CDDAF33128E
:104F30004CDDAF34124CDD1250D0020003EF4E6056
:104F4000157D087C07ED1DAA0470011C4A70F6EF60
:104F50001F70EA1E80E72212505F7F70124C927F12
:104F6000AC124C927F33124C92E4FF124C920250DE
:104F7000C6E4900008F0A3F0856968AD68AF688F5B
:104F8000FA8FEA8DFB8DEB2253877F759850438E05
:104F900004759CDC438E01438E10D2ACD2AF22123A
:104FA0003AFA6010F5993099FD740129F9E43AFA5A
:104FB000C29980EB2212506E7FD1124CDD124DF35C
:104FC0008F3412504E1250D0AF3422AD07AC06C20F
:104FD000AF228CC3AF058FC42275C65A75C6A522F1
:104FE000EF540FFEEFC4540FFF53070FEF75F00A95
:104FF000A42EFF2212505F7F71124C92124DBD8F72
:10500000431250C6AF4322EF75F00A84FEEF75F0ED
:105010000A84EEC454F025F0FF228F3312506E7FC5
:10502000D0124CDDAF33124CDD024FB5C2A6C2A781
:10503000120003D2A7120003C2A7D2A622D2A6C290
:10504000A7120003D2A7120003D2A6C2A722D2A69B
:10505000C2A7120003D2A7120003D2A6C2A722D26F
:10506000A6D2A7120003C2A6120003C2A722D2A68C
:10507000D2A7120003C2A6120003C2A7227F1B12EE
:105080004B387F1C124B387F1E024B38E4F5C7F5B6
:10509000C5F5C675C3FF75C4FF227F057E347DC389
:1050A000DDFEDEFCDFFA2200007F6C7E90DEFEDF9C
:1050B000FC22758901D2AFD2A9D28C22007F0B7E4F
:1050C000BEDEFEDFFC22C2A6D2A7120003D2A622B9
:1050D000C2A6D2A7120003D2A6227F027E0FDEFE56
:1050E000DFFC228F993099FDC29922C39408748005
:1050F00094802200220AC4E3B7A2CBCDB5C4C4DA9F
:10510000C8DDCAC7A3BA0A00D2D1BEADCEAAC4FABE
:10511000D0DEB8C4C8D5C6DAA3BA0A00323000C49B
:10512000EA00D4C200C8D520D0C7C6DA00D2D1BEAA
:10513000ADCEAAC4FAD0DEB8C4CAB1BCE4A3BA0AE0
:1051400000A3BA00416C61726D20636C6F636B20C9
:105150006F6E65004F4E003A005765656B3A657695
:10516000657279646179004F6E6C79206F6E6500AD
:105170005765656B3A7765656B64617973003100DB
:105180003200330034003500360037005765656B58
:105190003A004F464600416C61726D20636C6F634C
:1051A0006B2074776F00416C61726D20636C6F636C
:1051B0006B20746872656500416C61726D20636C70
:1051C0006F636B20666F757200416C61726D206356
:1051D0006C6F636B206669766500B5B1C7B0CAB104
:1051E000BCE4CEAAA3BA00B5B1C7B0CEC2B6C8CE91
:1051F000AAA3BA00B6C80A00B5B1C7B0CAAAB6C851
:10520000CEAAA3BA00250A00D2D1B4F2BFAAD5F023
:10521000B6AF0A00D2D1B4F2BFAAC9F9D2F40A00DB
:10522000C4D6D6D331D2D1B4F2BFAAA3BA00BDAB93
:10523000D4DAD6DC003120003220003320003420C4
:1052400000352000362000372000C1E5CFEC0A00F1
:10525000C4D6D6D332D2D1B4F2BFAAA3BA00C4D630
:10526000D6D333D2D1B4F2BFAAA3BA00C4D6D6D310
:1052700034D2D1B4F2BFAAA3BA00C4D6D6D335D2A1
:10528000D1B4F2BFAAA3BA00B5B1C7B0CAB1BCE4E9
:10529000CEAAA3BA0A00B5B1C7B0CEC2B6C8CEAACC
:1052A000A3BA0A0000000000FFFFFFFF007804041B
:1052B00004047800001F202020201F0000000000B0
:1052C000000078000000000000001F00000084843F
:1052D00084847800001F20202020000000008484A7
:1052E000848478000000202020201F000078808027
:1052F000808078000000000000001F000078848497
:10530000848400000000202020201F000078848476
:1053100084840000001F202020201F0000000404BF
:10532000040478000000000000001F00007884845E
:1053300084847800001F202020201F0000788484AF
:10534000848478000000202020201F0000808080BE
:1053500080808000000000000000000000C02010DD
:10536000081020C00003070F0F0F0703000018D814
:1053700030CCC00000000300000000000000FCAAC8
:1053800002FC00000C1E3F3E3E3F1E0C000800F8D1
:1053900004040400000000000101010000000030CE
:1053A000300000000000000C0C00000000000000B5
:1053B00000000000000000000000000000000000ED
:1053C000000000000030300000000000002040FE1F
:1053D000442810000002013F110A0400007070F020
:1053E000F0F070700000001F1F1F000000C0E0F010
:1053F0007070F0E000070F1F18181F0F00F0F0F09A
:105400007070F0E0001F1F1F0606070300F0F0F0A9
:105410007070F0E0001F1F1F1B1B1F0D00C0F0F07D
:10542000F0F08000181F1B090F1F1F1800F0F0E09C
:10543000C080F0F0001F1F0103070F1F00F0F0F005
:105440007070E0E0001F1F1F181C0F0F000000000D
:10545000000000000000000000000000000000004C
:10546000000000000000000000000000808080803C
:1054700080808080808080808080800000000000AC
:10548000000000000000000000000000000008080C
:105490000808080808080808080000001010101084
:1054A0001010101010101010101010000004848440
:1054B00084848484848484848404000020202020C4
:1054C00020202020202020202020200000FC040478
:1054D00004FC040404FC040404FC0000007F2824F1
:1054E0002320202020212222227F0000000242428D
:1054F00042C27E42424242C202020000404040405C
:10550000784740404040407F4040400020202020DD
:10551000202021222C2020202020200000402010AC
:105520000C030000000102041860000080808080ED
:105530008040FF404040202020200000000000006C
:1055400000003F4040404040407800000000000024
:1055500000FC0000007E8000000000000080601859
:10556000070000000000030C304080000010101005
:1055700010FF10101010F0000000000080402018F4
:105580000700000000003F4040407800404040409D
:10559000404040FF4040404040404000000000008C
:1055A000000000FF00000000000000000414AC47F1
:1055B000A4140C001CA444A4940C00000189884885
:1055C00028190E09094888483801010000101010F8
:1055D0001010FF1010101010F0000000008040208C
:1055E00018060100204080403F0000000000007FBE
:1055F000494949494949497F000000008141211D2D
:10560000214181FF89898989898181004040444401
:1056100064544C474C5464C4444040000000001E95
:10562000121212121E40807F00000000404042CC47
:105630000008C808F8090EF8084888000040201F34
:10564000205148464148504F4040410000F80C0B63
:105650000808F840308F080808F80000007F212172
:1056600021217F0000004380403F0000000000FE39
:1056700082828282828282FE00000000000000FF9F
:1056800040404040404040FF00000000000000BE9D
:105690002A2A2AEA2A2A2A3E000000000044424917
:1056A0004949497F49494949414000000004FF24D4
:1056B0002424FF0400FE222222FE000088482F0935
:1056C0000919AF48300F0242827F00000000003EFF
:1056D0002222E2222222223E0000000000814121FB
:1056E000110D0301014181413F000000000018CC71
:1056F000241010D010101024CC1800000000000757
:105700002810101312121228070000002424A4FEEF
:10571000232200F01010FF1010F00000080601FF17
:10572000010600070202FF0202070000404042CCCF
:105730000000F11610101814F30000000000003FE4
:105740009048211907013F41414070001060028CD0
:105750000010101010FF10101010000004047E0143
:1057600041E151494543415161C1010000E000F070
:1057700000F8F8F8F8F8F800F000E000000300077F
:10578000000F0F0F0F0F0F000700030000000000B5
:10579000E0109846261818E4020000000008141AC9
:1057A0001711505050501017181000000000000042
:1057B000E0305886865830E00000000000001018E5
:1057C00017345251515234171810000000000000D5
:1057D000E0105806065810E0000000000000101805
:1057E00017305152525130171810000000F80122A2
:1057F00020222AF22222222202FE000000FF0000C4
:105800001F01017F09110F40807F000020102CE74D
:10581000242400F01010FF1010F000000101017F9F
:10582000211100070202FF02020700000004040425
:10583000040404FC040404040404000020202020C8
:105840002020203F2020202020202000008060F801
:105850000740300FF888888888080800010000FF9A
:1058600000000000FF08080808080000000000FE13
:1058700082828282828282FE00000000000000FF9D
:1058800040404040404040FF0000000020100CF32A
:1058900012125292121212F20202000001011F11A2
:1058A000111115195191513F111101000000F849D2
:1058B0004A4C48F8484C4A49F800000010101312AE
:1058C000121212FF121212121310100000020C809A
:1058D000608040300FC808082818000002027E01CE
:1058E000804020180601061820408000000000F8C3
:1058F000888C8A89888888F800000000000000FFF2
:1059000044444444444444FF00000000100C444418
:10591000444445C64444444444140C008040201E82
:105920002040407F444444444440400000000C3048
:10593000C00001060080700E000000008080404022
:1059400020110A040A112040408080008082828257
:10595000FE8282828282FE828282800000804030CB
:105960000F0000000000FF0000000000000000FC2D
:105970004444444546444444447C000040201807C5
:1059800000FC44444444444444FC00000000101122
:10599000161010F010101413100000008181414106
:1059A00021110D030D1121414181810000F80122D7
:1059B000202222A2FA22222202FE000000FF00087A
:1059C000040211201F000040807F0000221408F410
:1059D00002F800FF02F212FE12F202004482413F7E
:1059E0008047300F001F00FF101F0000808282825E
:1059F000828282E2A2928A86828080000000000079
:105A00000040807F0000000000000000000000FF58
:105A1000080808404040FF2022AC2000007F2121E0
:105A200021217F80402017182641F00000FE02222D
:105A3000DA06000000FF00000000000000FF081070
:105A40008847201807000718204080008060F82051
:105A500020202020F82020E00000000000001F008F
:105A6000111109050307091911000000A0A0A0F8F1
:105A7000A0A0009090909090F0000000180E081FD9
:105A80001212101714141414141300000000E02054
:105A9000A0A0A0B0F0A0A0A0A0A00000100807083F
:105AA0000C0402011F0102040808000000C050603D
:105AB0004040506040606050C00000000004040599
:105AC0001515151F070705040400000000101050ED
:105AD00050909090101010F0000000000008080492
:105AE000040412121211100F000000000060203098
:105AF00050484C7246C8D850302020000000C05F8B
:105B00005F61311D0111217F5F40000000FC646472
:105B1000FC0014F41414FC14F4F61400007F1212A8
:105B20003F01494F49497F494F4F4900001090FEBE
:105B3000901004E4AEAEA4AEAEE404000006037F11
:105B40000043484B2A3A0E1A2A4BC8400010101046
:105B5000101010103EFE10141C10100000206121C7
:105B60003F3F111110031E30604070000000000024
:105B7000008080808080800000000000E0FCFE1F2C
:105B800007030101010103071FFEFCF01F7FFFE077
:105B90008080000000008080E0FF7F0F0000000197
:105BA00001030303030303010100000000000000E0
:105BB00000000000808000000000000000000C0CCD
:105BC000060603FFFFFF00000000000000000000C9
:105BD000000000FFFFFF00000000000000000000C8
:105BE00000000003030300000000000000000000AC
:105BF0008080808080808000000000000006030319
:105C000001010101010183C7FFFE3C0080E0F07843
:105C1000381C0C0E060703030100000003030303F6
:105C200003030303030303030303030300000080D0
:105C300080808080808000000000000000030381DD
:105C40008181818181C3E37F3E1C0000808000014F
:105C500001010101018383C7FEFE38000101030336
:105C60000303030303030101000000000000000020
:105C700000000000008080808000000000000080A4
:105C8000C0E0783C1E07FFFFFF0000003C3E3733BA
:105C9000313030303030FFFFFF3030300000000056
:105CA00000000000000003030300000000008080EB
:105CB00080808080808080808080000000F8FFFFEE
:105CC000C1C1C1C1C1C181818101000000808000CA
:105CD00000000000008181C3FFFF3E0000010303BC
:105CE00003030303030301010000000000000000A0
:105CF000000000808080808080000000C0F8FC1ED2
:105D00008783C3C1C1C1C1C1818300001F7FFFC39D
:105D10008180000000000081C3FFFF3E0000000101
:105D2000010303030303030101000000808080805E
:105D3000808080808080808080808080010101015F
:105D400001010101C1E1F97D1F0F03010000000005
:105D500080F0FC7F0F030000000000000000000046
:105D6000030303000000000000000000000000002A
:105D7000008080808080800000000000001C7E7F0A
:105D8000E3C381818181C3E37F7E1C0078FEFEC76F
:105D90008301010101010183C7FEFE7800000101BA
:105DA00003030303030303030101000000000000D9
:105DB00000808080808080000000000078FEFE87E8
:105DC000030101010101030387FEFCF0008183034D
:105DD00007060606068686C3F17F3F070001030318
:105DE00003030303030101010000000000000000A1
:105DF00000000000000000000000000000000000A3
:105E000070707070000000000000000000000000D2
:105E10008080808000000000000000000000000082
:105E20000303030300000000000000000000000066
:105E30000000000000000000000000000000000062
:105E40000000000000000000000000000000000052
:105E50000000000000000000000000000000000042
:105E60000000000000000000000000000000000032
:105E7000000000000000000000000000000000FC26
:105E80007C000000000000373000000000003808EF
:105E90000838000000000000000000004040F8400A
:105EA00040F04840043C0704340F04040070D8FC60
:105EB00008382000001C307F211F0E007088F84039
:105EC000E018000000300C031E213F000000F8889D
:105ED000783000000C1F312334181E1000000038E9
:105EE00000000000000000000000000000000000B2
:105EF000F0180400000000000F304000000418E01B
:105F0000000000004060300F000000000020A0F8FA
:105F1000F8A020000001000707000100000000E0D9
:105F2000000000000101010F01010101000000005B
:105F300000000000007030000000000000000000C1
:105F4000000000000101010101010100000000004A
:105F500000000000003030000000000000000000E1
:105F6000C030080020100C030000000000F01808EA
:105F70000818E000000F102030180F00006020F01B
:105F8000F80000000000003F3F000000003018084B
:105F900008D8700000303834333130000030180831
:105FA00088D870000018102021130E0000008060B7
:105FB00030F8000004070504043F040400F098C80A
:105FC000888808000819302030190F000080C0F0C0
:105FD00098800000001F312020301F0600080808AC
:105FE00088E838000000303E0300000000F0888898
:105FF00088D87000041F312121311E00E0F008080C
:106000000898F0000001233A0F0300000000008010
:106010008000000000000030300000000000008020
:106020008000000000000070300000000080804010
:1060300020100800000102040810200040404040E9
:10604000404040000404040404040400000810203C
:1060500040800000003010080402010000301808E1
:1060600088F870000000003201000000E01088682D
:1060700028E8F0000F102728272807000000C07824
:1060800078C00000203E070202073C2000F8888804
:1060900088987000003F313131111E0000F018085F
:1060A00008187000000F183020301E0000F8080893
:1060B0001830E000003F303010180F0000F88888DA
:1060C00088888800003F31313131310000F80808FC
:1060D00008080800003F01010101000000F0180855
:1060E00008187000000F183023133F0000F880805C
:1060F0008080F800003F010101013F00000000F82E
:10610000F80000000000003F3F0000000000000019
:106110000000F800001C303030180F0000F880C07C
:1061200060180800003F0101071C302000F8000043
:1061300000000000003F30303030300000F8F80040
:1061400080F8F800003F013F1F003F0000F870C0DA
:106150000000F800003F0001073C3F0080F01808F5
:106160000818F000031F102020180F0000F808087E
:106170000818F000003F03030101010080F0180837
:106180000818F000031F10202C382F0000F8080812
:106190000898F000003F0101071D30000070D8880A
:1061A00008383000001C302121331E00000808F898
:1061B000F80808000000003F3F00000000F8000061
:1061C0000000F800001F302020301F0008F8C00039
:1061D00000E078000000073C3E03000038F000F8C3
:1061E000F800F808003F3F00033C0F00001870C0A3
:1061F000C038080020380E03071C30000838E08043
:10620000C07018000000003F3F00000000080808B0
:10621000C878180000383E3330303000000000FEEF
:10622000020202000000007F404040000008708031
:1062300000000000000000010E30C0000002020259
:10624000FE000000004040407F0000000008040203
:10625000060408000000000000000000000000002C
:106260000000000080808080808080800000020626
:106270000C00000000000000000000000000808012
:1062800080800000001D2424321F3F0000F8808021
:1062900080800000003F102020191F000000808037
:1062A00080800000001F30202011190000808080B5
:1062B0008080F800001F302020193F0000008080FF
:1062C00080800000001F122222331B00008080F813
:1062D000888888000000003F0000000000008080E7
:1062E0008080800000FB949494B7600000F80080E8
:1062F00080808000003F010000003F000000009807
:10630000980000000000003F3F0000000000000077
:106310009898000000C08080FF7F000000F8000017
:1063200080800000003F060307183000000000F8DE
:10633000F80000000000003F3F00000080808080E7
:10634000008080803F3F003F3F003F3F0080008053
:1063500080808000003F010000003F00000080803E
:1063600080800000001F102020111F00008080800E
:106370008080000000FF102020191F000080808016
:1063800080808000001F30202019FF000000800066
:106390008080000000003F010000000000008080BD
:1063A00080800000001B332424351900808080F099
:1063B000808000000000001F2020300000800000CE
:1063C00000008000001F302030183F0000800000D7
:1063D0000000800000010F38380701008080008035
:1063E00080008080011F3C0307380F000080800080
:1063F000008000000030190E0F19200000800000FE
:106400000000800000818FF8380701000080808044
:10641000808080000030382423212000000000000C
:10642000FCFE0200000000003F7E0000000000FFB4
:10643000FF000000000000FFFF0000000002FE005F
:106440000000000000007E010000000000060302C2
:0C64500004040600000000000000000032
:00000001FF
